{
	"contracts/01Twitter.sol": {
		"Twitter": {
			"abi": [
				{
					"anonymous": false,
					"inputs": [
						{
							"indexed": true,
							"internalType": "address",
							"name": "owner",
							"type": "address"
						},
						{
							"indexed": true,
							"internalType": "address",
							"name": "grantedUser",
							"type": "address"
						}
					],
					"name": "AccessGranted",
					"type": "event"
				},
				{
					"anonymous": false,
					"inputs": [
						{
							"indexed": true,
							"internalType": "address",
							"name": "sender",
							"type": "address"
						},
						{
							"indexed": true,
							"internalType": "address",
							"name": "receiver",
							"type": "address"
						},
						{
							"indexed": false,
							"internalType": "string",
							"name": "message",
							"type": "string"
						}
					],
					"name": "MessageSent",
					"type": "event"
				},
				{
					"anonymous": false,
					"inputs": [
						{
							"indexed": true,
							"internalType": "address",
							"name": "user",
							"type": "address"
						},
						{
							"indexed": false,
							"internalType": "string",
							"name": "content",
							"type": "string"
						},
						{
							"indexed": false,
							"internalType": "uint256",
							"name": "timestamp",
							"type": "uint256"
						}
					],
					"name": "TweetPosted",
					"type": "event"
				},
				{
					"anonymous": false,
					"inputs": [
						{
							"indexed": true,
							"internalType": "address",
							"name": "follower",
							"type": "address"
						},
						{
							"indexed": true,
							"internalType": "address",
							"name": "followed",
							"type": "address"
						}
					],
					"name": "UserFollowed",
					"type": "event"
				},
				{
					"anonymous": false,
					"inputs": [
						{
							"indexed": true,
							"internalType": "address",
							"name": "unfollower",
							"type": "address"
						},
						{
							"indexed": true,
							"internalType": "address",
							"name": "unfollowed",
							"type": "address"
						}
					],
					"name": "UserUnfollowed",
					"type": "event"
				},
				{
					"inputs": [
						{
							"internalType": "address",
							"name": "",
							"type": "address"
						},
						{
							"internalType": "uint256",
							"name": "",
							"type": "uint256"
						}
					],
					"name": "allowedUsers",
					"outputs": [
						{
							"internalType": "address",
							"name": "",
							"type": "address"
						}
					],
					"stateMutability": "view",
					"type": "function"
				},
				{
					"inputs": [
						{
							"internalType": "address",
							"name": "_follow",
							"type": "address"
						}
					],
					"name": "follow",
					"outputs": [],
					"stateMutability": "nonpayable",
					"type": "function"
				},
				{
					"inputs": [
						{
							"internalType": "address",
							"name": "",
							"type": "address"
						},
						{
							"internalType": "uint256",
							"name": "",
							"type": "uint256"
						}
					],
					"name": "followersOfUsers",
					"outputs": [
						{
							"internalType": "address",
							"name": "",
							"type": "address"
						}
					],
					"stateMutability": "view",
					"type": "function"
				},
				{
					"inputs": [
						{
							"internalType": "address",
							"name": "",
							"type": "address"
						},
						{
							"internalType": "uint256",
							"name": "",
							"type": "uint256"
						}
					],
					"name": "followingOfUsers",
					"outputs": [
						{
							"internalType": "address",
							"name": "",
							"type": "address"
						}
					],
					"stateMutability": "view",
					"type": "function"
				},
				{
					"inputs": [],
					"name": "getMessages",
					"outputs": [
						{
							"components": [
								{
									"internalType": "string",
									"name": "messageContent",
									"type": "string"
								},
								{
									"internalType": "address",
									"name": "sender",
									"type": "address"
								},
								{
									"internalType": "address",
									"name": "receiver",
									"type": "address"
								},
								{
									"internalType": "uint256",
									"name": "sendAt",
									"type": "uint256"
								}
							],
							"internalType": "struct Twitter.Messaging[]",
							"name": "",
							"type": "tuple[]"
						}
					],
					"stateMutability": "view",
					"type": "function"
				},
				{
					"inputs": [],
					"name": "getTweets",
					"outputs": [
						{
							"components": [
								{
									"internalType": "string",
									"name": "tweetContent",
									"type": "string"
								},
								{
									"internalType": "uint256",
									"name": "timeStamp",
									"type": "uint256"
								}
							],
							"internalType": "struct Twitter.UserTweet[]",
							"name": "",
							"type": "tuple[]"
						}
					],
					"stateMutability": "view",
					"type": "function"
				},
				{
					"inputs": [
						{
							"internalType": "address",
							"name": "_grantTo",
							"type": "address"
						}
					],
					"name": "grantAccess",
					"outputs": [],
					"stateMutability": "nonpayable",
					"type": "function"
				},
				{
					"inputs": [
						{
							"internalType": "string",
							"name": "_msg",
							"type": "string"
						},
						{
							"internalType": "address",
							"name": "_receiver",
							"type": "address"
						}
					],
					"name": "sendMessage",
					"outputs": [],
					"stateMutability": "nonpayable",
					"type": "function"
				},
				{
					"inputs": [
						{
							"internalType": "address",
							"name": "",
							"type": "address"
						},
						{
							"internalType": "uint256",
							"name": "",
							"type": "uint256"
						}
					],
					"name": "sendMessages",
					"outputs": [
						{
							"internalType": "string",
							"name": "messageContent",
							"type": "string"
						},
						{
							"internalType": "address",
							"name": "sender",
							"type": "address"
						},
						{
							"internalType": "address",
							"name": "receiver",
							"type": "address"
						},
						{
							"internalType": "uint256",
							"name": "sendAt",
							"type": "uint256"
						}
					],
					"stateMutability": "view",
					"type": "function"
				},
				{
					"inputs": [
						{
							"internalType": "string",
							"name": "_content",
							"type": "string"
						}
					],
					"name": "tweet",
					"outputs": [],
					"stateMutability": "nonpayable",
					"type": "function"
				},
				{
					"inputs": [
						{
							"internalType": "address",
							"name": "_unfollow",
							"type": "address"
						}
					],
					"name": "unfollow",
					"outputs": [],
					"stateMutability": "nonpayable",
					"type": "function"
				},
				{
					"inputs": [
						{
							"internalType": "address",
							"name": "",
							"type": "address"
						},
						{
							"internalType": "uint256",
							"name": "",
							"type": "uint256"
						}
					],
					"name": "userAndTweetInfo",
					"outputs": [
						{
							"internalType": "string",
							"name": "tweetContent",
							"type": "string"
						},
						{
							"internalType": "uint256",
							"name": "timeStamp",
							"type": "uint256"
						}
					],
					"stateMutability": "view",
					"type": "function"
				}
			],
			"devdoc": {
				"kind": "dev",
				"methods": {},
				"version": 1
			},
			"evm": {
				"assembly": "    /* \"contracts/01Twitter.sol\":69:5074  contract Twitter {... */\n  mstore(0x40, 0x80)\n  callvalue\n  dup1\n  iszero\n  tag_1\n  jumpi\n  0x00\n  dup1\n  revert\ntag_1:\n  pop\n  dataSize(sub_0)\n  dup1\n  dataOffset(sub_0)\n  0x00\n  codecopy\n  0x00\n  return\nstop\n\nsub_0: assembly {\n        /* \"contracts/01Twitter.sol\":69:5074  contract Twitter {... */\n      mstore(0x40, 0x80)\n      callvalue\n      dup1\n      iszero\n      tag_1\n      jumpi\n      0x00\n      dup1\n      revert\n    tag_1:\n      pop\n      jumpi(tag_2, lt(calldatasize, 0x04))\n      shr(0xe0, calldataload(0x00))\n      dup1\n      0x5ff6cbf3\n      gt\n      tag_15\n      jumpi\n      dup1\n      0x5ff6cbf3\n      eq\n      tag_9\n      jumpi\n      dup1\n      0x9b85cf99\n      eq\n      tag_10\n      jumpi\n      dup1\n      0xbac7129a\n      eq\n      tag_11\n      jumpi\n      dup1\n      0xc48d6d5e\n      eq\n      tag_12\n      jumpi\n      dup1\n      0xfb46d4c5\n      eq\n      tag_13\n      jumpi\n      dup1\n      0xfc86741f\n      eq\n      tag_14\n      jumpi\n      jump(tag_2)\n    tag_15:\n      dup1\n      0x015a4ead\n      eq\n      tag_3\n      jumpi\n      dup1\n      0x01fc9e67\n      eq\n      tag_4\n      jumpi\n      dup1\n      0x0ae5e739\n      eq\n      tag_5\n      jumpi\n      dup1\n      0x3508b1f5\n      eq\n      tag_6\n      jumpi\n      dup1\n      0x4af88ddf\n      eq\n      tag_7\n      jumpi\n      dup1\n      0x4dbf27cc\n      eq\n      tag_8\n      jumpi\n    tag_2:\n      0x00\n      dup1\n      revert\n        /* \"contracts/01Twitter.sol\":1877:2258  function unfollow(address _unfollow) external {... */\n    tag_3:\n      tag_16\n      0x04\n      dup1\n      calldatasize\n      sub\n      dup2\n      add\n      swap1\n      tag_17\n      swap2\n      swap1\n      tag_18\n      jump\t// in\n    tag_17:\n      tag_19\n      jump\t// in\n    tag_16:\n      stop\n        /* \"contracts/01Twitter.sol\":520:573  mapping(address => address[]) public followersOfUsers */\n    tag_4:\n      tag_20\n      0x04\n      dup1\n      calldatasize\n      sub\n      dup2\n      add\n      swap1\n      tag_21\n      swap2\n      swap1\n      tag_22\n      jump\t// in\n    tag_21:\n      tag_23\n      jump\t// in\n    tag_20:\n      mload(0x40)\n      tag_24\n      swap2\n      swap1\n      tag_25\n      jump\t// in\n    tag_24:\n      mload(0x40)\n      dup1\n      swap2\n      sub\n      swap1\n      return\n        /* \"contracts/01Twitter.sol\":4382:4691  function grantAccess(address _grantTo) external {... */\n    tag_5:\n      tag_26\n      0x04\n      dup1\n      calldatasize\n      sub\n      dup2\n      add\n      swap1\n      tag_27\n      swap2\n      swap1\n      tag_18\n      jump\t// in\n    tag_27:\n      tag_28\n      jump\t// in\n    tag_26:\n      stop\n        /* \"contracts/01Twitter.sol\":579:632  mapping(address => address[]) public followingOfUsers */\n    tag_6:\n      tag_29\n      0x04\n      dup1\n      calldatasize\n      sub\n      dup2\n      add\n      swap1\n      tag_30\n      swap2\n      swap1\n      tag_22\n      jump\t// in\n    tag_30:\n      tag_31\n      jump\t// in\n    tag_29:\n      mload(0x40)\n      tag_32\n      swap2\n      swap1\n      tag_25\n      jump\t// in\n    tag_32:\n      mload(0x40)\n      dup1\n      swap2\n      sub\n      swap1\n      return\n        /* \"contracts/01Twitter.sol\":459:514  mapping(address => UserTweet[]) public userAndTweetInfo */\n    tag_7:\n      tag_33\n      0x04\n      dup1\n      calldatasize\n      sub\n      dup2\n      add\n      swap1\n      tag_34\n      swap2\n      swap1\n      tag_22\n      jump\t// in\n    tag_34:\n      tag_35\n      jump\t// in\n    tag_33:\n      mload(0x40)\n      tag_36\n      swap3\n      swap2\n      swap1\n      tag_37\n      jump\t// in\n    tag_36:\n      mload(0x40)\n      dup1\n      swap2\n      sub\n      swap1\n      return\n        /* \"contracts/01Twitter.sol\":1476:1836  function follow(address _follow) external {... */\n    tag_8:\n      tag_38\n      0x04\n      dup1\n      calldatasize\n      sub\n      dup2\n      add\n      swap1\n      tag_39\n      swap2\n      swap1\n      tag_18\n      jump\t// in\n    tag_39:\n      tag_40\n      jump\t// in\n    tag_38:\n      stop\n        /* \"contracts/01Twitter.sol\":2868:2982  function getMessages() external view returns (Messaging[] memory) {... */\n    tag_9:\n      tag_41\n      tag_42\n      jump\t// in\n    tag_41:\n      mload(0x40)\n      tag_43\n      swap2\n      swap1\n      tag_44\n      jump\t// in\n    tag_43:\n      mload(0x40)\n      dup1\n      swap2\n      sub\n      swap1\n      return\n        /* \"contracts/01Twitter.sol\":638:689  mapping(address => Messaging[]) public sendMessages */\n    tag_10:\n      tag_45\n      0x04\n      dup1\n      calldatasize\n      sub\n      dup2\n      add\n      swap1\n      tag_46\n      swap2\n      swap1\n      tag_22\n      jump\t// in\n    tag_46:\n      tag_47\n      jump\t// in\n    tag_45:\n      mload(0x40)\n      tag_48\n      swap5\n      swap4\n      swap3\n      swap2\n      swap1\n      tag_49\n      jump\t// in\n    tag_48:\n      mload(0x40)\n      dup1\n      swap2\n      sub\n      swap1\n      return\n        /* \"contracts/01Twitter.sol\":695:744  mapping(address => address[]) public allowedUsers */\n    tag_11:\n      tag_50\n      0x04\n      dup1\n      calldatasize\n      sub\n      dup2\n      add\n      swap1\n      tag_51\n      swap2\n      swap1\n      tag_22\n      jump\t// in\n    tag_51:\n      tag_52\n      jump\t// in\n    tag_50:\n      mload(0x40)\n      tag_53\n      swap2\n      swap1\n      tag_25\n      jump\t// in\n    tag_53:\n      mload(0x40)\n      dup1\n      swap2\n      sub\n      swap1\n      return\n        /* \"contracts/01Twitter.sol\":2308:2621  function sendMessage(string calldata _msg, address _receiver) external {... */\n    tag_12:\n      tag_54\n      0x04\n      dup1\n      calldatasize\n      sub\n      dup2\n      add\n      swap1\n      tag_55\n      swap2\n      swap1\n      tag_56\n      jump\t// in\n    tag_55:\n      tag_57\n      jump\t// in\n    tag_54:\n      stop\n        /* \"contracts/01Twitter.sol\":1234:1437  function tweet(string calldata _content) external {... */\n    tag_13:\n      tag_58\n      0x04\n      dup1\n      calldatasize\n      sub\n      dup2\n      add\n      swap1\n      tag_59\n      swap2\n      swap1\n      tag_60\n      jump\t// in\n    tag_59:\n      tag_61\n      jump\t// in\n    tag_58:\n      stop\n        /* \"contracts/01Twitter.sol\":2688:2804  function getTweets() external view returns (UserTweet[] memory) {... */\n    tag_14:\n      tag_62\n      tag_63\n      jump\t// in\n    tag_62:\n      mload(0x40)\n      tag_64\n      swap2\n      swap1\n      tag_65\n      jump\t// in\n    tag_64:\n      mload(0x40)\n      dup1\n      swap2\n      sub\n      swap1\n      return\n        /* \"contracts/01Twitter.sol\":1877:2258  function unfollow(address _unfollow) external {... */\n    tag_19:\n        /* \"contracts/01Twitter.sol\":1954:1964  msg.sender */\n      caller\n        /* \"contracts/01Twitter.sol\":1941:1964  _unfollow != msg.sender */\n      0xffffffffffffffffffffffffffffffffffffffff\n      and\n        /* \"contracts/01Twitter.sol\":1941:1950  _unfollow */\n      dup2\n        /* \"contracts/01Twitter.sol\":1941:1964  _unfollow != msg.sender */\n      0xffffffffffffffffffffffffffffffffffffffff\n      and\n      sub\n        /* \"contracts/01Twitter.sol\":1933:1992  require(_unfollow != msg.sender, \"Cannot unfollow oneself\") */\n      tag_67\n      jumpi\n      mload(0x40)\n      0x08c379a000000000000000000000000000000000000000000000000000000000\n      dup2\n      mstore\n      0x04\n      add\n      tag_68\n      swap1\n      tag_69\n      jump\t// in\n    tag_68:\n      mload(0x40)\n      dup1\n      swap2\n      sub\n      swap1\n      revert\n    tag_67:\n        /* \"contracts/01Twitter.sol\":2062:2088  _removeFollower(_unfollow) */\n      tag_70\n        /* \"contracts/01Twitter.sol\":2078:2087  _unfollow */\n      dup2\n        /* \"contracts/01Twitter.sol\":2062:2077  _removeFollower */\n      tag_71\n        /* \"contracts/01Twitter.sol\":2062:2088  _removeFollower(_unfollow) */\n      jump\t// in\n    tag_70:\n        /* \"contracts/01Twitter.sol\":2159:2198  _removeFollowing(msg.sender, _unfollow) */\n      tag_72\n        /* \"contracts/01Twitter.sol\":2176:2186  msg.sender */\n      caller\n        /* \"contracts/01Twitter.sol\":2188:2197  _unfollow */\n      dup3\n        /* \"contracts/01Twitter.sol\":2159:2175  _removeFollowing */\n      tag_73\n        /* \"contracts/01Twitter.sol\":2159:2198  _removeFollowing(msg.sender, _unfollow) */\n      jump\t// in\n    tag_72:\n        /* \"contracts/01Twitter.sol\":2241:2250  _unfollow */\n      dup1\n        /* \"contracts/01Twitter.sol\":2214:2251  UserUnfollowed(msg.sender, _unfollow) */\n      0xffffffffffffffffffffffffffffffffffffffff\n      and\n        /* \"contracts/01Twitter.sol\":2229:2239  msg.sender */\n      caller\n        /* \"contracts/01Twitter.sol\":2214:2251  UserUnfollowed(msg.sender, _unfollow) */\n      0xffffffffffffffffffffffffffffffffffffffff\n      and\n      0xe7339343c6edff57f2d15278c419523844cea30ae5ee2146aa22cb9e3107dab7\n      mload(0x40)\n      mload(0x40)\n      dup1\n      swap2\n      sub\n      swap1\n      log3\n        /* \"contracts/01Twitter.sol\":1877:2258  function unfollow(address _unfollow) external {... */\n      pop\n      jump\t// out\n        /* \"contracts/01Twitter.sol\":520:573  mapping(address => address[]) public followersOfUsers */\n    tag_23:\n      mstore(0x20, 0x01)\n      dup2\n      0x00\n      mstore\n      keccak256(0x00, 0x40)\n      dup2\n      dup2\n      sload\n      dup2\n      lt\n      tag_74\n      jumpi\n      0x00\n      dup1\n      revert\n    tag_74:\n      swap1\n      0x00\n      mstore\n      keccak256(0x00, 0x20)\n      add\n      0x00\n      swap2\n      pop\n      swap2\n      pop\n      swap1\n      sload\n      swap1\n      0x0100\n      exp\n      swap1\n      div\n      0xffffffffffffffffffffffffffffffffffffffff\n      and\n      dup2\n      jump\t// out\n        /* \"contracts/01Twitter.sol\":4382:4691  function grantAccess(address _grantTo) external {... */\n    tag_28:\n        /* \"contracts/01Twitter.sol\":4460:4470  msg.sender */\n      caller\n        /* \"contracts/01Twitter.sol\":4448:4470  _grantTo != msg.sender */\n      0xffffffffffffffffffffffffffffffffffffffff\n      and\n        /* \"contracts/01Twitter.sol\":4448:4456  _grantTo */\n      dup2\n        /* \"contracts/01Twitter.sol\":4448:4470  _grantTo != msg.sender */\n      0xffffffffffffffffffffffffffffffffffffffff\n      and\n      sub\n        /* \"contracts/01Twitter.sol\":4440:4505  require(_grantTo != msg.sender, \"Cannot grant access to oneself\") */\n      tag_77\n      jumpi\n      mload(0x40)\n      0x08c379a000000000000000000000000000000000000000000000000000000000\n      dup2\n      mstore\n      0x04\n      add\n      tag_78\n      swap1\n      tag_79\n      jump\t// in\n    tag_78:\n      mload(0x40)\n      dup1\n      swap2\n      sub\n      swap1\n      revert\n    tag_77:\n        /* \"contracts/01Twitter.sol\":4524:4556  _isAllowed(msg.sender, _grantTo) */\n      tag_80\n        /* \"contracts/01Twitter.sol\":4535:4545  msg.sender */\n      caller\n        /* \"contracts/01Twitter.sol\":4547:4555  _grantTo */\n      dup3\n        /* \"contracts/01Twitter.sol\":4524:4534  _isAllowed */\n      tag_81\n        /* \"contracts/01Twitter.sol\":4524:4556  _isAllowed(msg.sender, _grantTo) */\n      jump\t// in\n    tag_80:\n        /* \"contracts/01Twitter.sol\":4523:4556  !_isAllowed(msg.sender, _grantTo) */\n      iszero\n        /* \"contracts/01Twitter.sol\":4515:4583  require(!_isAllowed(msg.sender, _grantTo), \"Access already granted\") */\n      tag_82\n      jumpi\n      mload(0x40)\n      0x08c379a000000000000000000000000000000000000000000000000000000000\n      dup2\n      mstore\n      0x04\n      add\n      tag_83\n      swap1\n      tag_84\n      jump\t// in\n    tag_83:\n      mload(0x40)\n      dup1\n      swap2\n      sub\n      swap1\n      revert\n    tag_82:\n        /* \"contracts/01Twitter.sol\":4594:4606  allowedUsers */\n      0x04\n        /* \"contracts/01Twitter.sol\":4594:4618  allowedUsers[msg.sender] */\n      0x00\n        /* \"contracts/01Twitter.sol\":4607:4617  msg.sender */\n      caller\n        /* \"contracts/01Twitter.sol\":4594:4618  allowedUsers[msg.sender] */\n      0xffffffffffffffffffffffffffffffffffffffff\n      and\n      0xffffffffffffffffffffffffffffffffffffffff\n      and\n      dup2\n      mstore\n      0x20\n      add\n      swap1\n      dup2\n      mstore\n      0x20\n      add\n      0x00\n      keccak256\n        /* \"contracts/01Twitter.sol\":4624:4632  _grantTo */\n      dup2\n        /* \"contracts/01Twitter.sol\":4594:4633  allowedUsers[msg.sender].push(_grantTo) */\n      swap1\n      dup1\n      0x01\n      dup2\n      sload\n      add\n      dup1\n      dup3\n      sstore\n      dup1\n      swap2\n      pop\n      pop\n      0x01\n      swap1\n      sub\n      swap1\n      0x00\n      mstore\n      keccak256(0x00, 0x20)\n      add\n      0x00\n      swap1\n      swap2\n      swap1\n      swap2\n      swap1\n      swap2\n      0x0100\n      exp\n      dup2\n      sload\n      dup2\n      0xffffffffffffffffffffffffffffffffffffffff\n      mul\n      not\n      and\n      swap1\n      dup4\n      0xffffffffffffffffffffffffffffffffffffffff\n      and\n      mul\n      or\n      swap1\n      sstore\n      pop\n        /* \"contracts/01Twitter.sol\":4675:4683  _grantTo */\n      dup1\n        /* \"contracts/01Twitter.sol\":4649:4684  AccessGranted(msg.sender, _grantTo) */\n      0xffffffffffffffffffffffffffffffffffffffff\n      and\n        /* \"contracts/01Twitter.sol\":4663:4673  msg.sender */\n      caller\n        /* \"contracts/01Twitter.sol\":4649:4684  AccessGranted(msg.sender, _grantTo) */\n      0xffffffffffffffffffffffffffffffffffffffff\n      and\n      0x9f520b3bfc56d06f7065d10b4683b3f57ac8895d5026cd176dee95ce1454cb8d\n      mload(0x40)\n      mload(0x40)\n      dup1\n      swap2\n      sub\n      swap1\n      log3\n        /* \"contracts/01Twitter.sol\":4382:4691  function grantAccess(address _grantTo) external {... */\n      pop\n      jump\t// out\n        /* \"contracts/01Twitter.sol\":579:632  mapping(address => address[]) public followingOfUsers */\n    tag_31:\n      mstore(0x20, 0x02)\n      dup2\n      0x00\n      mstore\n      keccak256(0x00, 0x40)\n      dup2\n      dup2\n      sload\n      dup2\n      lt\n      tag_86\n      jumpi\n      0x00\n      dup1\n      revert\n    tag_86:\n      swap1\n      0x00\n      mstore\n      keccak256(0x00, 0x20)\n      add\n      0x00\n      swap2\n      pop\n      swap2\n      pop\n      swap1\n      sload\n      swap1\n      0x0100\n      exp\n      swap1\n      div\n      0xffffffffffffffffffffffffffffffffffffffff\n      and\n      dup2\n      jump\t// out\n        /* \"contracts/01Twitter.sol\":459:514  mapping(address => UserTweet[]) public userAndTweetInfo */\n    tag_35:\n      mstore(0x20, 0x00)\n      dup2\n      0x00\n      mstore\n      keccak256(0x00, 0x40)\n      dup2\n      dup2\n      sload\n      dup2\n      lt\n      tag_88\n      jumpi\n      0x00\n      dup1\n      revert\n    tag_88:\n      swap1\n      0x00\n      mstore\n      keccak256(0x00, 0x20)\n      swap1\n      0x02\n      mul\n      add\n      0x00\n      swap2\n      pop\n      swap2\n      pop\n      pop\n      dup1\n      0x00\n      add\n      dup1\n      sload\n      tag_90\n      swap1\n      tag_91\n      jump\t// in\n    tag_90:\n      dup1\n      0x1f\n      add\n      0x20\n      dup1\n      swap2\n      div\n      mul\n      0x20\n      add\n      mload(0x40)\n      swap1\n      dup2\n      add\n      0x40\n      mstore\n      dup1\n      swap3\n      swap2\n      swap1\n      dup2\n      dup2\n      mstore\n      0x20\n      add\n      dup3\n      dup1\n      sload\n      tag_92\n      swap1\n      tag_91\n      jump\t// in\n    tag_92:\n      dup1\n      iszero\n      tag_93\n      jumpi\n      dup1\n      0x1f\n      lt\n      tag_94\n      jumpi\n      0x0100\n      dup1\n      dup4\n      sload\n      div\n      mul\n      dup4\n      mstore\n      swap2\n      0x20\n      add\n      swap2\n      jump(tag_93)\n    tag_94:\n      dup3\n      add\n      swap2\n      swap1\n      0x00\n      mstore\n      keccak256(0x00, 0x20)\n      swap1\n    tag_95:\n      dup2\n      sload\n      dup2\n      mstore\n      swap1\n      0x01\n      add\n      swap1\n      0x20\n      add\n      dup1\n      dup4\n      gt\n      tag_95\n      jumpi\n      dup3\n      swap1\n      sub\n      0x1f\n      and\n      dup3\n      add\n      swap2\n    tag_93:\n      pop\n      pop\n      pop\n      pop\n      pop\n      swap1\n      dup1\n      0x01\n      add\n      sload\n      swap1\n      pop\n      dup3\n      jump\t// out\n        /* \"contracts/01Twitter.sol\":1476:1836  function follow(address _follow) external {... */\n    tag_40:\n        /* \"contracts/01Twitter.sol\":1547:1557  msg.sender */\n      caller\n        /* \"contracts/01Twitter.sol\":1536:1557  _follow != msg.sender */\n      0xffffffffffffffffffffffffffffffffffffffff\n      and\n        /* \"contracts/01Twitter.sol\":1536:1543  _follow */\n      dup2\n        /* \"contracts/01Twitter.sol\":1536:1557  _follow != msg.sender */\n      0xffffffffffffffffffffffffffffffffffffffff\n      and\n      sub\n        /* \"contracts/01Twitter.sol\":1528:1583  require(_follow != msg.sender, \"Cannot follow oneself\") */\n      tag_97\n      jumpi\n      mload(0x40)\n      0x08c379a000000000000000000000000000000000000000000000000000000000\n      dup2\n      mstore\n      0x04\n      add\n      tag_98\n      swap1\n      tag_99\n      jump\t// in\n    tag_98:\n      mload(0x40)\n      dup1\n      swap2\n      sub\n      swap1\n      revert\n    tag_97:\n        /* \"contracts/01Twitter.sol\":1602:1635  _isFollowing(msg.sender, _follow) */\n      tag_100\n        /* \"contracts/01Twitter.sol\":1615:1625  msg.sender */\n      caller\n        /* \"contracts/01Twitter.sol\":1627:1634  _follow */\n      dup3\n        /* \"contracts/01Twitter.sol\":1602:1614  _isFollowing */\n      tag_101\n        /* \"contracts/01Twitter.sol\":1602:1635  _isFollowing(msg.sender, _follow) */\n      jump\t// in\n    tag_100:\n        /* \"contracts/01Twitter.sol\":1601:1635  !_isFollowing(msg.sender, _follow) */\n      iszero\n        /* \"contracts/01Twitter.sol\":1593:1667  require(!_isFollowing(msg.sender, _follow), \"Already following this user\") */\n      tag_102\n      jumpi\n      mload(0x40)\n      0x08c379a000000000000000000000000000000000000000000000000000000000\n      dup2\n      mstore\n      0x04\n      add\n      tag_103\n      swap1\n      tag_104\n      jump\t// in\n    tag_103:\n      mload(0x40)\n      dup1\n      swap2\n      sub\n      swap1\n      revert\n    tag_102:\n        /* \"contracts/01Twitter.sol\":1678:1694  followersOfUsers */\n      0x01\n        /* \"contracts/01Twitter.sol\":1678:1703  followersOfUsers[_follow] */\n      0x00\n        /* \"contracts/01Twitter.sol\":1695:1702  _follow */\n      dup3\n        /* \"contracts/01Twitter.sol\":1678:1703  followersOfUsers[_follow] */\n      0xffffffffffffffffffffffffffffffffffffffff\n      and\n      0xffffffffffffffffffffffffffffffffffffffff\n      and\n      dup2\n      mstore\n      0x20\n      add\n      swap1\n      dup2\n      mstore\n      0x20\n      add\n      0x00\n      keccak256\n        /* \"contracts/01Twitter.sol\":1709:1719  msg.sender */\n      caller\n        /* \"contracts/01Twitter.sol\":1678:1720  followersOfUsers[_follow].push(msg.sender) */\n      swap1\n      dup1\n      0x01\n      dup2\n      sload\n      add\n      dup1\n      dup3\n      sstore\n      dup1\n      swap2\n      pop\n      pop\n      0x01\n      swap1\n      sub\n      swap1\n      0x00\n      mstore\n      keccak256(0x00, 0x20)\n      add\n      0x00\n      swap1\n      swap2\n      swap1\n      swap2\n      swap1\n      swap2\n      0x0100\n      exp\n      dup2\n      sload\n      dup2\n      0xffffffffffffffffffffffffffffffffffffffff\n      mul\n      not\n      and\n      swap1\n      dup4\n      0xffffffffffffffffffffffffffffffffffffffff\n      and\n      mul\n      or\n      swap1\n      sstore\n      pop\n        /* \"contracts/01Twitter.sol\":1730:1746  followingOfUsers */\n      0x02\n        /* \"contracts/01Twitter.sol\":1730:1758  followingOfUsers[msg.sender] */\n      0x00\n        /* \"contracts/01Twitter.sol\":1747:1757  msg.sender */\n      caller\n        /* \"contracts/01Twitter.sol\":1730:1758  followingOfUsers[msg.sender] */\n      0xffffffffffffffffffffffffffffffffffffffff\n      and\n      0xffffffffffffffffffffffffffffffffffffffff\n      and\n      dup2\n      mstore\n      0x20\n      add\n      swap1\n      dup2\n      mstore\n      0x20\n      add\n      0x00\n      keccak256\n        /* \"contracts/01Twitter.sol\":1764:1771  _follow */\n      dup2\n        /* \"contracts/01Twitter.sol\":1730:1772  followingOfUsers[msg.sender].push(_follow) */\n      swap1\n      dup1\n      0x01\n      dup2\n      sload\n      add\n      dup1\n      dup3\n      sstore\n      dup1\n      swap2\n      pop\n      pop\n      0x01\n      swap1\n      sub\n      swap1\n      0x00\n      mstore\n      keccak256(0x00, 0x20)\n      add\n      0x00\n      swap1\n      swap2\n      swap1\n      swap2\n      swap1\n      swap2\n      0x0100\n      exp\n      dup2\n      sload\n      dup2\n      0xffffffffffffffffffffffffffffffffffffffff\n      mul\n      not\n      and\n      swap1\n      dup4\n      0xffffffffffffffffffffffffffffffffffffffff\n      and\n      mul\n      or\n      swap1\n      sstore\n      pop\n        /* \"contracts/01Twitter.sol\":1821:1828  _follow */\n      dup1\n        /* \"contracts/01Twitter.sol\":1796:1829  UserFollowed(msg.sender, _follow) */\n      0xffffffffffffffffffffffffffffffffffffffff\n      and\n        /* \"contracts/01Twitter.sol\":1809:1819  msg.sender */\n      caller\n        /* \"contracts/01Twitter.sol\":1796:1829  UserFollowed(msg.sender, _follow) */\n      0xffffffffffffffffffffffffffffffffffffffff\n      and\n      0x30b3435b456f45779984ddfa456115ee4c20d9e446979b1b9e90dbb7e12b90b7\n      mload(0x40)\n      mload(0x40)\n      dup1\n      swap2\n      sub\n      swap1\n      log3\n        /* \"contracts/01Twitter.sol\":1476:1836  function follow(address _follow) external {... */\n      pop\n      jump\t// out\n        /* \"contracts/01Twitter.sol\":2868:2982  function getMessages() external view returns (Messaging[] memory) {... */\n    tag_42:\n        /* \"contracts/01Twitter.sol\":2914:2932  Messaging[] memory */\n      0x60\n        /* \"contracts/01Twitter.sol\":2951:2963  sendMessages */\n      0x03\n        /* \"contracts/01Twitter.sol\":2951:2975  sendMessages[msg.sender] */\n      0x00\n        /* \"contracts/01Twitter.sol\":2964:2974  msg.sender */\n      caller\n        /* \"contracts/01Twitter.sol\":2951:2975  sendMessages[msg.sender] */\n      0xffffffffffffffffffffffffffffffffffffffff\n      and\n      0xffffffffffffffffffffffffffffffffffffffff\n      and\n      dup2\n      mstore\n      0x20\n      add\n      swap1\n      dup2\n      mstore\n      0x20\n      add\n      0x00\n      keccak256\n        /* \"contracts/01Twitter.sol\":2944:2975  return sendMessages[msg.sender] */\n      dup1\n      sload\n      dup1\n      0x20\n      mul\n      0x20\n      add\n      mload(0x40)\n      swap1\n      dup2\n      add\n      0x40\n      mstore\n      dup1\n      swap3\n      swap2\n      swap1\n      dup2\n      dup2\n      mstore\n      0x20\n      add\n      0x00\n      swap1\n    tag_108:\n      dup3\n      dup3\n      lt\n      iszero\n      tag_109\n      jumpi\n      dup4\n      dup3\n      swap1\n      0x00\n      mstore\n      keccak256(0x00, 0x20)\n      swap1\n      0x04\n      mul\n      add\n      mload(0x40)\n      dup1\n      0x80\n      add\n      0x40\n      mstore\n      swap1\n      dup2\n      0x00\n      dup3\n      add\n      dup1\n      sload\n      tag_111\n      swap1\n      tag_91\n      jump\t// in\n    tag_111:\n      dup1\n      0x1f\n      add\n      0x20\n      dup1\n      swap2\n      div\n      mul\n      0x20\n      add\n      mload(0x40)\n      swap1\n      dup2\n      add\n      0x40\n      mstore\n      dup1\n      swap3\n      swap2\n      swap1\n      dup2\n      dup2\n      mstore\n      0x20\n      add\n      dup3\n      dup1\n      sload\n      tag_112\n      swap1\n      tag_91\n      jump\t// in\n    tag_112:\n      dup1\n      iszero\n      tag_113\n      jumpi\n      dup1\n      0x1f\n      lt\n      tag_114\n      jumpi\n      0x0100\n      dup1\n      dup4\n      sload\n      div\n      mul\n      dup4\n      mstore\n      swap2\n      0x20\n      add\n      swap2\n      jump(tag_113)\n    tag_114:\n      dup3\n      add\n      swap2\n      swap1\n      0x00\n      mstore\n      keccak256(0x00, 0x20)\n      swap1\n    tag_115:\n      dup2\n      sload\n      dup2\n      mstore\n      swap1\n      0x01\n      add\n      swap1\n      0x20\n      add\n      dup1\n      dup4\n      gt\n      tag_115\n      jumpi\n      dup3\n      swap1\n      sub\n      0x1f\n      and\n      dup3\n      add\n      swap2\n    tag_113:\n      pop\n      pop\n      pop\n      pop\n      pop\n      dup2\n      mstore\n      0x20\n      add\n      0x01\n      dup3\n      add\n      0x00\n      swap1\n      sload\n      swap1\n      0x0100\n      exp\n      swap1\n      div\n      0xffffffffffffffffffffffffffffffffffffffff\n      and\n      0xffffffffffffffffffffffffffffffffffffffff\n      and\n      0xffffffffffffffffffffffffffffffffffffffff\n      and\n      dup2\n      mstore\n      0x20\n      add\n      0x02\n      dup3\n      add\n      0x00\n      swap1\n      sload\n      swap1\n      0x0100\n      exp\n      swap1\n      div\n      0xffffffffffffffffffffffffffffffffffffffff\n      and\n      0xffffffffffffffffffffffffffffffffffffffff\n      and\n      0xffffffffffffffffffffffffffffffffffffffff\n      and\n      dup2\n      mstore\n      0x20\n      add\n      0x03\n      dup3\n      add\n      sload\n      dup2\n      mstore\n      pop\n      pop\n      dup2\n      mstore\n      0x20\n      add\n      swap1\n      0x01\n      add\n      swap1\n      jump(tag_108)\n    tag_109:\n      pop\n      pop\n      pop\n      pop\n      swap1\n      pop\n        /* \"contracts/01Twitter.sol\":2868:2982  function getMessages() external view returns (Messaging[] memory) {... */\n      swap1\n      jump\t// out\n        /* \"contracts/01Twitter.sol\":638:689  mapping(address => Messaging[]) public sendMessages */\n    tag_47:\n      mstore(0x20, 0x03)\n      dup2\n      0x00\n      mstore\n      keccak256(0x00, 0x40)\n      dup2\n      dup2\n      sload\n      dup2\n      lt\n      tag_116\n      jumpi\n      0x00\n      dup1\n      revert\n    tag_116:\n      swap1\n      0x00\n      mstore\n      keccak256(0x00, 0x20)\n      swap1\n      0x04\n      mul\n      add\n      0x00\n      swap2\n      pop\n      swap2\n      pop\n      pop\n      dup1\n      0x00\n      add\n      dup1\n      sload\n      tag_118\n      swap1\n      tag_91\n      jump\t// in\n    tag_118:\n      dup1\n      0x1f\n      add\n      0x20\n      dup1\n      swap2\n      div\n      mul\n      0x20\n      add\n      mload(0x40)\n      swap1\n      dup2\n      add\n      0x40\n      mstore\n      dup1\n      swap3\n      swap2\n      swap1\n      dup2\n      dup2\n      mstore\n      0x20\n      add\n      dup3\n      dup1\n      sload\n      tag_119\n      swap1\n      tag_91\n      jump\t// in\n    tag_119:\n      dup1\n      iszero\n      tag_120\n      jumpi\n      dup1\n      0x1f\n      lt\n      tag_121\n      jumpi\n      0x0100\n      dup1\n      dup4\n      sload\n      div\n      mul\n      dup4\n      mstore\n      swap2\n      0x20\n      add\n      swap2\n      jump(tag_120)\n    tag_121:\n      dup3\n      add\n      swap2\n      swap1\n      0x00\n      mstore\n      keccak256(0x00, 0x20)\n      swap1\n    tag_122:\n      dup2\n      sload\n      dup2\n      mstore\n      swap1\n      0x01\n      add\n      swap1\n      0x20\n      add\n      dup1\n      dup4\n      gt\n      tag_122\n      jumpi\n      dup3\n      swap1\n      sub\n      0x1f\n      and\n      dup3\n      add\n      swap2\n    tag_120:\n      pop\n      pop\n      pop\n      pop\n      pop\n      swap1\n      dup1\n      0x01\n      add\n      0x00\n      swap1\n      sload\n      swap1\n      0x0100\n      exp\n      swap1\n      div\n      0xffffffffffffffffffffffffffffffffffffffff\n      and\n      swap1\n      dup1\n      0x02\n      add\n      0x00\n      swap1\n      sload\n      swap1\n      0x0100\n      exp\n      swap1\n      div\n      0xffffffffffffffffffffffffffffffffffffffff\n      and\n      swap1\n      dup1\n      0x03\n      add\n      sload\n      swap1\n      pop\n      dup5\n      jump\t// out\n        /* \"contracts/01Twitter.sol\":695:744  mapping(address => address[]) public allowedUsers */\n    tag_52:\n      mstore(0x20, 0x04)\n      dup2\n      0x00\n      mstore\n      keccak256(0x00, 0x40)\n      dup2\n      dup2\n      sload\n      dup2\n      lt\n      tag_123\n      jumpi\n      0x00\n      dup1\n      revert\n    tag_123:\n      swap1\n      0x00\n      mstore\n      keccak256(0x00, 0x20)\n      add\n      0x00\n      swap2\n      pop\n      swap2\n      pop\n      swap1\n      sload\n      swap1\n      0x0100\n      exp\n      swap1\n      div\n      0xffffffffffffffffffffffffffffffffffffffff\n      and\n      dup2\n      jump\t// out\n        /* \"contracts/01Twitter.sol\":2308:2621  function sendMessage(string calldata _msg, address _receiver) external {... */\n    tag_57:\n        /* \"contracts/01Twitter.sol\":2410:2420  msg.sender */\n      caller\n        /* \"contracts/01Twitter.sol\":2397:2420  _receiver != msg.sender */\n      0xffffffffffffffffffffffffffffffffffffffff\n      and\n        /* \"contracts/01Twitter.sol\":2397:2406  _receiver */\n      dup2\n        /* \"contracts/01Twitter.sol\":2397:2420  _receiver != msg.sender */\n      0xffffffffffffffffffffffffffffffffffffffff\n      and\n      sub\n        /* \"contracts/01Twitter.sol\":2389:2455  require(_receiver != msg.sender, \"Cannot send message to oneself\") */\n      tag_126\n      jumpi\n      mload(0x40)\n      0x08c379a000000000000000000000000000000000000000000000000000000000\n      dup2\n      mstore\n      0x04\n      add\n      tag_127\n      swap1\n      tag_128\n      jump\t// in\n    tag_127:\n      mload(0x40)\n      dup1\n      swap2\n      sub\n      swap1\n      revert\n    tag_126:\n        /* \"contracts/01Twitter.sol\":2465:2477  sendMessages */\n      0x03\n        /* \"contracts/01Twitter.sol\":2465:2488  sendMessages[_receiver] */\n      0x00\n        /* \"contracts/01Twitter.sol\":2478:2487  _receiver */\n      dup3\n        /* \"contracts/01Twitter.sol\":2465:2488  sendMessages[_receiver] */\n      0xffffffffffffffffffffffffffffffffffffffff\n      and\n      0xffffffffffffffffffffffffffffffffffffffff\n      and\n      dup2\n      mstore\n      0x20\n      add\n      swap1\n      dup2\n      mstore\n      0x20\n      add\n      0x00\n      keccak256\n        /* \"contracts/01Twitter.sol\":2494:2549  Messaging(_msg, msg.sender, _receiver, block.timestamp) */\n      mload(0x40)\n      dup1\n      0x80\n      add\n      0x40\n      mstore\n      dup1\n        /* \"contracts/01Twitter.sol\":2504:2508  _msg */\n      dup6\n      dup6\n        /* \"contracts/01Twitter.sol\":2494:2549  Messaging(_msg, msg.sender, _receiver, block.timestamp) */\n      dup1\n      dup1\n      0x1f\n      add\n      0x20\n      dup1\n      swap2\n      div\n      mul\n      0x20\n      add\n      mload(0x40)\n      swap1\n      dup2\n      add\n      0x40\n      mstore\n      dup1\n      swap4\n      swap3\n      swap2\n      swap1\n      dup2\n      dup2\n      mstore\n      0x20\n      add\n      dup4\n      dup4\n      dup1\n      dup3\n      dup5\n      calldatacopy\n      0x00\n      dup2\n      dup5\n      add\n      mstore\n      not(0x1f)\n      0x1f\n      dup3\n      add\n      and\n      swap1\n      pop\n      dup1\n      dup4\n      add\n      swap3\n      pop\n      pop\n      pop\n      pop\n      pop\n      pop\n      pop\n      dup2\n      mstore\n      0x20\n      add\n        /* \"contracts/01Twitter.sol\":2510:2520  msg.sender */\n      caller\n        /* \"contracts/01Twitter.sol\":2494:2549  Messaging(_msg, msg.sender, _receiver, block.timestamp) */\n      0xffffffffffffffffffffffffffffffffffffffff\n      and\n      dup2\n      mstore\n      0x20\n      add\n        /* \"contracts/01Twitter.sol\":2522:2531  _receiver */\n      dup4\n        /* \"contracts/01Twitter.sol\":2494:2549  Messaging(_msg, msg.sender, _receiver, block.timestamp) */\n      0xffffffffffffffffffffffffffffffffffffffff\n      and\n      dup2\n      mstore\n      0x20\n      add\n        /* \"contracts/01Twitter.sol\":2533:2548  block.timestamp */\n      timestamp\n        /* \"contracts/01Twitter.sol\":2494:2549  Messaging(_msg, msg.sender, _receiver, block.timestamp) */\n      dup2\n      mstore\n      pop\n        /* \"contracts/01Twitter.sol\":2465:2550  sendMessages[_receiver].push(Messaging(_msg, msg.sender, _receiver, block.timestamp)) */\n      swap1\n      dup1\n      0x01\n      dup2\n      sload\n      add\n      dup1\n      dup3\n      sstore\n      dup1\n      swap2\n      pop\n      pop\n      0x01\n      swap1\n      sub\n      swap1\n      0x00\n      mstore\n      keccak256(0x00, 0x20)\n      swap1\n      0x04\n      mul\n      add\n      0x00\n      swap1\n      swap2\n      swap1\n      swap2\n      swap1\n      swap2\n      pop\n      0x00\n      dup3\n      add\n      mload\n      dup2\n      0x00\n      add\n      swap1\n      dup2\n      tag_130\n      swap2\n      swap1\n      tag_131\n      jump\t// in\n    tag_130:\n      pop\n      0x20\n      dup3\n      add\n      mload\n      dup2\n      0x01\n      add\n      exp(0x0100, 0x00)\n      dup2\n      sload\n      dup2\n      0xffffffffffffffffffffffffffffffffffffffff\n      mul\n      not\n      and\n      swap1\n      dup4\n      0xffffffffffffffffffffffffffffffffffffffff\n      and\n      mul\n      or\n      swap1\n      sstore\n      pop\n      0x40\n      dup3\n      add\n      mload\n      dup2\n      0x02\n      add\n      exp(0x0100, 0x00)\n      dup2\n      sload\n      dup2\n      0xffffffffffffffffffffffffffffffffffffffff\n      mul\n      not\n      and\n      swap1\n      dup4\n      0xffffffffffffffffffffffffffffffffffffffff\n      and\n      mul\n      or\n      swap1\n      sstore\n      pop\n      0x60\n      dup3\n      add\n      mload\n      dup2\n      0x03\n      add\n      sstore\n      pop\n      pop\n        /* \"contracts/01Twitter.sol\":2598:2607  _receiver */\n      dup1\n        /* \"contracts/01Twitter.sol\":2574:2614  MessageSent(msg.sender, _receiver, _msg) */\n      0xffffffffffffffffffffffffffffffffffffffff\n      and\n        /* \"contracts/01Twitter.sol\":2586:2596  msg.sender */\n      caller\n        /* \"contracts/01Twitter.sol\":2574:2614  MessageSent(msg.sender, _receiver, _msg) */\n      0xffffffffffffffffffffffffffffffffffffffff\n      and\n      0xe2cf7446a11cbcd14cd99ea3a1bb77fb7653a64f4064d660140b5100d001e13c\n        /* \"contracts/01Twitter.sol\":2609:2613  _msg */\n      dup6\n      dup6\n        /* \"contracts/01Twitter.sol\":2574:2614  MessageSent(msg.sender, _receiver, _msg) */\n      mload(0x40)\n      tag_132\n      swap3\n      swap2\n      swap1\n      tag_133\n      jump\t// in\n    tag_132:\n      mload(0x40)\n      dup1\n      swap2\n      sub\n      swap1\n      log3\n        /* \"contracts/01Twitter.sol\":2308:2621  function sendMessage(string calldata _msg, address _receiver) external {... */\n      pop\n      pop\n      pop\n      jump\t// out\n        /* \"contracts/01Twitter.sol\":1234:1437  function tweet(string calldata _content) external {... */\n    tag_61:\n        /* \"contracts/01Twitter.sol\":1294:1310  userAndTweetInfo */\n      0x00\n        /* \"contracts/01Twitter.sol\":1294:1322  userAndTweetInfo[msg.sender] */\n      dup1\n        /* \"contracts/01Twitter.sol\":1311:1321  msg.sender */\n      caller\n        /* \"contracts/01Twitter.sol\":1294:1322  userAndTweetInfo[msg.sender] */\n      0xffffffffffffffffffffffffffffffffffffffff\n      and\n      0xffffffffffffffffffffffffffffffffffffffff\n      and\n      dup2\n      mstore\n      0x20\n      add\n      swap1\n      dup2\n      mstore\n      0x20\n      add\n      0x00\n      keccak256\n        /* \"contracts/01Twitter.sol\":1328:1364  UserTweet(_content, block.timestamp) */\n      mload(0x40)\n      dup1\n      0x40\n      add\n      0x40\n      mstore\n      dup1\n        /* \"contracts/01Twitter.sol\":1338:1346  _content */\n      dup5\n      dup5\n        /* \"contracts/01Twitter.sol\":1328:1364  UserTweet(_content, block.timestamp) */\n      dup1\n      dup1\n      0x1f\n      add\n      0x20\n      dup1\n      swap2\n      div\n      mul\n      0x20\n      add\n      mload(0x40)\n      swap1\n      dup2\n      add\n      0x40\n      mstore\n      dup1\n      swap4\n      swap3\n      swap2\n      swap1\n      dup2\n      dup2\n      mstore\n      0x20\n      add\n      dup4\n      dup4\n      dup1\n      dup3\n      dup5\n      calldatacopy\n      0x00\n      dup2\n      dup5\n      add\n      mstore\n      not(0x1f)\n      0x1f\n      dup3\n      add\n      and\n      swap1\n      pop\n      dup1\n      dup4\n      add\n      swap3\n      pop\n      pop\n      pop\n      pop\n      pop\n      pop\n      pop\n      dup2\n      mstore\n      0x20\n      add\n        /* \"contracts/01Twitter.sol\":1348:1363  block.timestamp */\n      timestamp\n        /* \"contracts/01Twitter.sol\":1328:1364  UserTweet(_content, block.timestamp) */\n      dup2\n      mstore\n      pop\n        /* \"contracts/01Twitter.sol\":1294:1365  userAndTweetInfo[msg.sender].push(UserTweet(_content, block.timestamp)) */\n      swap1\n      dup1\n      0x01\n      dup2\n      sload\n      add\n      dup1\n      dup3\n      sstore\n      dup1\n      swap2\n      pop\n      pop\n      0x01\n      swap1\n      sub\n      swap1\n      0x00\n      mstore\n      keccak256(0x00, 0x20)\n      swap1\n      0x02\n      mul\n      add\n      0x00\n      swap1\n      swap2\n      swap1\n      swap2\n      swap1\n      swap2\n      pop\n      0x00\n      dup3\n      add\n      mload\n      dup2\n      0x00\n      add\n      swap1\n      dup2\n      tag_136\n      swap2\n      swap1\n      tag_131\n      jump\t// in\n    tag_136:\n      pop\n      0x20\n      dup3\n      add\n      mload\n      dup2\n      0x01\n      add\n      sstore\n      pop\n      pop\n        /* \"contracts/01Twitter.sol\":1392:1402  msg.sender */\n      caller\n        /* \"contracts/01Twitter.sol\":1380:1430  TweetPosted(msg.sender, _content, block.timestamp) */\n      0xffffffffffffffffffffffffffffffffffffffff\n      and\n      0x79365ad4f87bfb12e1f7390d6e6128c39800a8d6b51bdea21fdf11520480a887\n        /* \"contracts/01Twitter.sol\":1404:1412  _content */\n      dup4\n      dup4\n        /* \"contracts/01Twitter.sol\":1414:1429  block.timestamp */\n      timestamp\n        /* \"contracts/01Twitter.sol\":1380:1430  TweetPosted(msg.sender, _content, block.timestamp) */\n      mload(0x40)\n      tag_137\n      swap4\n      swap3\n      swap2\n      swap1\n      tag_138\n      jump\t// in\n    tag_137:\n      mload(0x40)\n      dup1\n      swap2\n      sub\n      swap1\n      log2\n        /* \"contracts/01Twitter.sol\":1234:1437  function tweet(string calldata _content) external {... */\n      pop\n      pop\n      jump\t// out\n        /* \"contracts/01Twitter.sol\":2688:2804  function getTweets() external view returns (UserTweet[] memory) {... */\n    tag_63:\n        /* \"contracts/01Twitter.sol\":2732:2750  UserTweet[] memory */\n      0x60\n        /* \"contracts/01Twitter.sol\":2769:2785  userAndTweetInfo */\n      0x00\n        /* \"contracts/01Twitter.sol\":2769:2797  userAndTweetInfo[msg.sender] */\n      dup1\n        /* \"contracts/01Twitter.sol\":2786:2796  msg.sender */\n      caller\n        /* \"contracts/01Twitter.sol\":2769:2797  userAndTweetInfo[msg.sender] */\n      0xffffffffffffffffffffffffffffffffffffffff\n      and\n      0xffffffffffffffffffffffffffffffffffffffff\n      and\n      dup2\n      mstore\n      0x20\n      add\n      swap1\n      dup2\n      mstore\n      0x20\n      add\n      0x00\n      keccak256\n        /* \"contracts/01Twitter.sol\":2762:2797  return userAndTweetInfo[msg.sender] */\n      dup1\n      sload\n      dup1\n      0x20\n      mul\n      0x20\n      add\n      mload(0x40)\n      swap1\n      dup2\n      add\n      0x40\n      mstore\n      dup1\n      swap3\n      swap2\n      swap1\n      dup2\n      dup2\n      mstore\n      0x20\n      add\n      0x00\n      swap1\n    tag_140:\n      dup3\n      dup3\n      lt\n      iszero\n      tag_141\n      jumpi\n      dup4\n      dup3\n      swap1\n      0x00\n      mstore\n      keccak256(0x00, 0x20)\n      swap1\n      0x02\n      mul\n      add\n      mload(0x40)\n      dup1\n      0x40\n      add\n      0x40\n      mstore\n      swap1\n      dup2\n      0x00\n      dup3\n      add\n      dup1\n      sload\n      tag_143\n      swap1\n      tag_91\n      jump\t// in\n    tag_143:\n      dup1\n      0x1f\n      add\n      0x20\n      dup1\n      swap2\n      div\n      mul\n      0x20\n      add\n      mload(0x40)\n      swap1\n      dup2\n      add\n      0x40\n      mstore\n      dup1\n      swap3\n      swap2\n      swap1\n      dup2\n      dup2\n      mstore\n      0x20\n      add\n      dup3\n      dup1\n      sload\n      tag_144\n      swap1\n      tag_91\n      jump\t// in\n    tag_144:\n      dup1\n      iszero\n      tag_145\n      jumpi\n      dup1\n      0x1f\n      lt\n      tag_146\n      jumpi\n      0x0100\n      dup1\n      dup4\n      sload\n      div\n      mul\n      dup4\n      mstore\n      swap2\n      0x20\n      add\n      swap2\n      jump(tag_145)\n    tag_146:\n      dup3\n      add\n      swap2\n      swap1\n      0x00\n      mstore\n      keccak256(0x00, 0x20)\n      swap1\n    tag_147:\n      dup2\n      sload\n      dup2\n      mstore\n      swap1\n      0x01\n      add\n      swap1\n      0x20\n      add\n      dup1\n      dup4\n      gt\n      tag_147\n      jumpi\n      dup3\n      swap1\n      sub\n      0x1f\n      and\n      dup3\n      add\n      swap2\n    tag_145:\n      pop\n      pop\n      pop\n      pop\n      pop\n      dup2\n      mstore\n      0x20\n      add\n      0x01\n      dup3\n      add\n      sload\n      dup2\n      mstore\n      pop\n      pop\n      dup2\n      mstore\n      0x20\n      add\n      swap1\n      0x01\n      add\n      swap1\n      jump(tag_140)\n    tag_141:\n      pop\n      pop\n      pop\n      pop\n      swap1\n      pop\n        /* \"contracts/01Twitter.sol\":2688:2804  function getTweets() external view returns (UserTweet[] memory) {... */\n      swap1\n      jump\t// out\n        /* \"contracts/01Twitter.sol\":3450:3824  function _removeFollower(address _unfollow) internal {... */\n    tag_71:\n        /* \"contracts/01Twitter.sol\":3513:3540  address[] storage followers */\n      0x00\n        /* \"contracts/01Twitter.sol\":3543:3559  followersOfUsers */\n      0x01\n        /* \"contracts/01Twitter.sol\":3543:3570  followersOfUsers[_unfollow] */\n      0x00\n        /* \"contracts/01Twitter.sol\":3560:3569  _unfollow */\n      dup4\n        /* \"contracts/01Twitter.sol\":3543:3570  followersOfUsers[_unfollow] */\n      0xffffffffffffffffffffffffffffffffffffffff\n      and\n      0xffffffffffffffffffffffffffffffffffffffff\n      and\n      dup2\n      mstore\n      0x20\n      add\n      swap1\n      dup2\n      mstore\n      0x20\n      add\n      0x00\n      keccak256\n        /* \"contracts/01Twitter.sol\":3513:3570  address[] storage followers = followersOfUsers[_unfollow] */\n      swap1\n      pop\n        /* \"contracts/01Twitter.sol\":3585:3594  uint256 i */\n      0x00\n        /* \"contracts/01Twitter.sol\":3580:3818  for (uint256 i = 0; i < followers.length; i++) {... */\n    tag_149:\n        /* \"contracts/01Twitter.sol\":3604:3613  followers */\n      dup2\n        /* \"contracts/01Twitter.sol\":3604:3620  followers.length */\n      dup1\n      sload\n      swap1\n      pop\n        /* \"contracts/01Twitter.sol\":3600:3601  i */\n      dup2\n        /* \"contracts/01Twitter.sol\":3600:3620  i < followers.length */\n      lt\n        /* \"contracts/01Twitter.sol\":3580:3818  for (uint256 i = 0; i < followers.length; i++) {... */\n      iszero\n      tag_150\n      jumpi\n        /* \"contracts/01Twitter.sol\":3661:3671  msg.sender */\n      caller\n        /* \"contracts/01Twitter.sol\":3645:3671  followers[i] == msg.sender */\n      0xffffffffffffffffffffffffffffffffffffffff\n      and\n        /* \"contracts/01Twitter.sol\":3645:3654  followers */\n      dup3\n        /* \"contracts/01Twitter.sol\":3655:3656  i */\n      dup3\n        /* \"contracts/01Twitter.sol\":3645:3657  followers[i] */\n      dup2\n      sload\n      dup2\n      lt\n      tag_152\n      jumpi\n      tag_153\n      tag_154\n      jump\t// in\n    tag_153:\n    tag_152:\n      swap1\n      0x00\n      mstore\n      keccak256(0x00, 0x20)\n      add\n      0x00\n      swap1\n      sload\n      swap1\n      0x0100\n      exp\n      swap1\n      div\n      0xffffffffffffffffffffffffffffffffffffffff\n      and\n        /* \"contracts/01Twitter.sol\":3645:3671  followers[i] == msg.sender */\n      0xffffffffffffffffffffffffffffffffffffffff\n      and\n      sub\n        /* \"contracts/01Twitter.sol\":3641:3808  if (followers[i] == msg.sender) {... */\n      tag_156\n      jumpi\n        /* \"contracts/01Twitter.sol\":3706:3715  followers */\n      dup2\n        /* \"contracts/01Twitter.sol\":3735:3736  1 */\n      0x01\n        /* \"contracts/01Twitter.sol\":3716:3725  followers */\n      dup4\n        /* \"contracts/01Twitter.sol\":3716:3732  followers.length */\n      dup1\n      sload\n      swap1\n      pop\n        /* \"contracts/01Twitter.sol\":3716:3736  followers.length - 1 */\n      tag_157\n      swap2\n      swap1\n      tag_158\n      jump\t// in\n    tag_157:\n        /* \"contracts/01Twitter.sol\":3706:3737  followers[followers.length - 1] */\n      dup2\n      sload\n      dup2\n      lt\n      tag_159\n      jumpi\n      tag_160\n      tag_154\n      jump\t// in\n    tag_160:\n    tag_159:\n      swap1\n      0x00\n      mstore\n      keccak256(0x00, 0x20)\n      add\n      0x00\n      swap1\n      sload\n      swap1\n      0x0100\n      exp\n      swap1\n      div\n      0xffffffffffffffffffffffffffffffffffffffff\n      and\n        /* \"contracts/01Twitter.sol\":3691:3700  followers */\n      dup3\n        /* \"contracts/01Twitter.sol\":3701:3702  i */\n      dup3\n        /* \"contracts/01Twitter.sol\":3691:3703  followers[i] */\n      dup2\n      sload\n      dup2\n      lt\n      tag_162\n      jumpi\n      tag_163\n      tag_154\n      jump\t// in\n    tag_163:\n    tag_162:\n      swap1\n      0x00\n      mstore\n      keccak256(0x00, 0x20)\n      add\n      0x00\n        /* \"contracts/01Twitter.sol\":3691:3737  followers[i] = followers[followers.length - 1] */\n      0x0100\n      exp\n      dup2\n      sload\n      dup2\n      0xffffffffffffffffffffffffffffffffffffffff\n      mul\n      not\n      and\n      swap1\n      dup4\n      0xffffffffffffffffffffffffffffffffffffffff\n      and\n      mul\n      or\n      swap1\n      sstore\n      pop\n        /* \"contracts/01Twitter.sol\":3755:3764  followers */\n      dup2\n        /* \"contracts/01Twitter.sol\":3755:3770  followers.pop() */\n      dup1\n      sload\n      dup1\n      tag_165\n      jumpi\n      tag_166\n      tag_167\n      jump\t// in\n    tag_166:\n    tag_165:\n      0x01\n      swap1\n      sub\n      dup2\n      dup2\n      swap1\n      0x00\n      mstore\n      keccak256(0x00, 0x20)\n      add\n      exp(0x0100, 0x00)\n      dup2\n      sload\n      swap1\n      0xffffffffffffffffffffffffffffffffffffffff\n      mul\n      not\n      and\n      swap1\n      sstore\n      swap1\n      sstore\n        /* \"contracts/01Twitter.sol\":3788:3793  break */\n      jump(tag_150)\n        /* \"contracts/01Twitter.sol\":3641:3808  if (followers[i] == msg.sender) {... */\n    tag_156:\n        /* \"contracts/01Twitter.sol\":3622:3625  i++ */\n      dup1\n      dup1\n      0x01\n      add\n      swap2\n      pop\n      pop\n        /* \"contracts/01Twitter.sol\":3580:3818  for (uint256 i = 0; i < followers.length; i++) {... */\n      jump(tag_149)\n    tag_150:\n      pop\n        /* \"contracts/01Twitter.sol\":3503:3824  {... */\n      pop\n        /* \"contracts/01Twitter.sol\":3450:3824  function _removeFollower(address _unfollow) internal {... */\n      pop\n      jump\t// out\n        /* \"contracts/01Twitter.sol\":3894:4287  function _removeFollowing(address _follower, address _followee) internal {... */\n    tag_73:\n        /* \"contracts/01Twitter.sol\":3977:4004  address[] storage following */\n      0x00\n        /* \"contracts/01Twitter.sol\":4007:4023  followingOfUsers */\n      0x02\n        /* \"contracts/01Twitter.sol\":4007:4034  followingOfUsers[_follower] */\n      0x00\n        /* \"contracts/01Twitter.sol\":4024:4033  _follower */\n      dup5\n        /* \"contracts/01Twitter.sol\":4007:4034  followingOfUsers[_follower] */\n      0xffffffffffffffffffffffffffffffffffffffff\n      and\n      0xffffffffffffffffffffffffffffffffffffffff\n      and\n      dup2\n      mstore\n      0x20\n      add\n      swap1\n      dup2\n      mstore\n      0x20\n      add\n      0x00\n      keccak256\n        /* \"contracts/01Twitter.sol\":3977:4034  address[] storage following = followingOfUsers[_follower] */\n      swap1\n      pop\n        /* \"contracts/01Twitter.sol\":4049:4058  uint256 i */\n      0x00\n        /* \"contracts/01Twitter.sol\":4044:4281  for (uint256 i = 0; i < following.length; i++) {... */\n    tag_170:\n        /* \"contracts/01Twitter.sol\":4068:4077  following */\n      dup2\n        /* \"contracts/01Twitter.sol\":4068:4084  following.length */\n      dup1\n      sload\n      swap1\n      pop\n        /* \"contracts/01Twitter.sol\":4064:4065  i */\n      dup2\n        /* \"contracts/01Twitter.sol\":4064:4084  i < following.length */\n      lt\n        /* \"contracts/01Twitter.sol\":4044:4281  for (uint256 i = 0; i < following.length; i++) {... */\n      iszero\n      tag_171\n      jumpi\n        /* \"contracts/01Twitter.sol\":4125:4134  _followee */\n      dup3\n        /* \"contracts/01Twitter.sol\":4109:4134  following[i] == _followee */\n      0xffffffffffffffffffffffffffffffffffffffff\n      and\n        /* \"contracts/01Twitter.sol\":4109:4118  following */\n      dup3\n        /* \"contracts/01Twitter.sol\":4119:4120  i */\n      dup3\n        /* \"contracts/01Twitter.sol\":4109:4121  following[i] */\n      dup2\n      sload\n      dup2\n      lt\n      tag_173\n      jumpi\n      tag_174\n      tag_154\n      jump\t// in\n    tag_174:\n    tag_173:\n      swap1\n      0x00\n      mstore\n      keccak256(0x00, 0x20)\n      add\n      0x00\n      swap1\n      sload\n      swap1\n      0x0100\n      exp\n      swap1\n      div\n      0xffffffffffffffffffffffffffffffffffffffff\n      and\n        /* \"contracts/01Twitter.sol\":4109:4134  following[i] == _followee */\n      0xffffffffffffffffffffffffffffffffffffffff\n      and\n      sub\n        /* \"contracts/01Twitter.sol\":4105:4271  if (following[i] == _followee) {... */\n      tag_176\n      jumpi\n        /* \"contracts/01Twitter.sol\":4169:4178  following */\n      dup2\n        /* \"contracts/01Twitter.sol\":4198:4199  1 */\n      0x01\n        /* \"contracts/01Twitter.sol\":4179:4188  following */\n      dup4\n        /* \"contracts/01Twitter.sol\":4179:4195  following.length */\n      dup1\n      sload\n      swap1\n      pop\n        /* \"contracts/01Twitter.sol\":4179:4199  following.length - 1 */\n      tag_177\n      swap2\n      swap1\n      tag_158\n      jump\t// in\n    tag_177:\n        /* \"contracts/01Twitter.sol\":4169:4200  following[following.length - 1] */\n      dup2\n      sload\n      dup2\n      lt\n      tag_178\n      jumpi\n      tag_179\n      tag_154\n      jump\t// in\n    tag_179:\n    tag_178:\n      swap1\n      0x00\n      mstore\n      keccak256(0x00, 0x20)\n      add\n      0x00\n      swap1\n      sload\n      swap1\n      0x0100\n      exp\n      swap1\n      div\n      0xffffffffffffffffffffffffffffffffffffffff\n      and\n        /* \"contracts/01Twitter.sol\":4154:4163  following */\n      dup3\n        /* \"contracts/01Twitter.sol\":4164:4165  i */\n      dup3\n        /* \"contracts/01Twitter.sol\":4154:4166  following[i] */\n      dup2\n      sload\n      dup2\n      lt\n      tag_181\n      jumpi\n      tag_182\n      tag_154\n      jump\t// in\n    tag_182:\n    tag_181:\n      swap1\n      0x00\n      mstore\n      keccak256(0x00, 0x20)\n      add\n      0x00\n        /* \"contracts/01Twitter.sol\":4154:4200  following[i] = following[following.length - 1] */\n      0x0100\n      exp\n      dup2\n      sload\n      dup2\n      0xffffffffffffffffffffffffffffffffffffffff\n      mul\n      not\n      and\n      swap1\n      dup4\n      0xffffffffffffffffffffffffffffffffffffffff\n      and\n      mul\n      or\n      swap1\n      sstore\n      pop\n        /* \"contracts/01Twitter.sol\":4218:4227  following */\n      dup2\n        /* \"contracts/01Twitter.sol\":4218:4233  following.pop() */\n      dup1\n      sload\n      dup1\n      tag_184\n      jumpi\n      tag_185\n      tag_167\n      jump\t// in\n    tag_185:\n    tag_184:\n      0x01\n      swap1\n      sub\n      dup2\n      dup2\n      swap1\n      0x00\n      mstore\n      keccak256(0x00, 0x20)\n      add\n      exp(0x0100, 0x00)\n      dup2\n      sload\n      swap1\n      0xffffffffffffffffffffffffffffffffffffffff\n      mul\n      not\n      and\n      swap1\n      sstore\n      swap1\n      sstore\n        /* \"contracts/01Twitter.sol\":4251:4256  break */\n      jump(tag_171)\n        /* \"contracts/01Twitter.sol\":4105:4271  if (following[i] == _followee) {... */\n    tag_176:\n        /* \"contracts/01Twitter.sol\":4086:4089  i++ */\n      dup1\n      dup1\n      0x01\n      add\n      swap2\n      pop\n      pop\n        /* \"contracts/01Twitter.sol\":4044:4281  for (uint256 i = 0; i < following.length; i++) {... */\n      jump(tag_170)\n    tag_171:\n      pop\n        /* \"contracts/01Twitter.sol\":3967:4287  {... */\n      pop\n        /* \"contracts/01Twitter.sol\":3894:4287  function _removeFollowing(address _follower, address _followee) internal {... */\n      pop\n      pop\n      jump\t// out\n        /* \"contracts/01Twitter.sol\":4759:5072  function _isAllowed(address _owner, address _user) internal view returns (bool) {... */\n    tag_81:\n        /* \"contracts/01Twitter.sol\":4833:4837  bool */\n      0x00\n        /* \"contracts/01Twitter.sol\":4849:4873  address[] memory allowed */\n      dup1\n        /* \"contracts/01Twitter.sol\":4876:4888  allowedUsers */\n      0x04\n        /* \"contracts/01Twitter.sol\":4876:4896  allowedUsers[_owner] */\n      0x00\n        /* \"contracts/01Twitter.sol\":4889:4895  _owner */\n      dup6\n        /* \"contracts/01Twitter.sol\":4876:4896  allowedUsers[_owner] */\n      0xffffffffffffffffffffffffffffffffffffffff\n      and\n      0xffffffffffffffffffffffffffffffffffffffff\n      and\n      dup2\n      mstore\n      0x20\n      add\n      swap1\n      dup2\n      mstore\n      0x20\n      add\n      0x00\n      keccak256\n        /* \"contracts/01Twitter.sol\":4849:4896  address[] memory allowed = allowedUsers[_owner] */\n      dup1\n      sload\n      dup1\n      0x20\n      mul\n      0x20\n      add\n      mload(0x40)\n      swap1\n      dup2\n      add\n      0x40\n      mstore\n      dup1\n      swap3\n      swap2\n      swap1\n      dup2\n      dup2\n      mstore\n      0x20\n      add\n      dup3\n      dup1\n      sload\n      dup1\n      iszero\n      tag_188\n      jumpi\n      0x20\n      mul\n      dup3\n      add\n      swap2\n      swap1\n      0x00\n      mstore\n      keccak256(0x00, 0x20)\n      swap1\n    tag_189:\n      dup2\n      0x00\n      swap1\n      sload\n      swap1\n      0x0100\n      exp\n      swap1\n      div\n      0xffffffffffffffffffffffffffffffffffffffff\n      and\n      0xffffffffffffffffffffffffffffffffffffffff\n      and\n      dup2\n      mstore\n      0x20\n      add\n      swap1\n      0x01\n      add\n      swap1\n      dup1\n      dup4\n      gt\n      tag_189\n      jumpi\n    tag_188:\n      pop\n      pop\n      pop\n      pop\n      pop\n      swap1\n      pop\n        /* \"contracts/01Twitter.sol\":4911:4920  uint256 i */\n      0x00\n        /* \"contracts/01Twitter.sol\":4906:5044  for (uint256 i = 0; i < allowed.length; i++) {... */\n    tag_190:\n        /* \"contracts/01Twitter.sol\":4930:4937  allowed */\n      dup2\n        /* \"contracts/01Twitter.sol\":4930:4944  allowed.length */\n      mload\n        /* \"contracts/01Twitter.sol\":4926:4927  i */\n      dup2\n        /* \"contracts/01Twitter.sol\":4926:4944  i < allowed.length */\n      lt\n        /* \"contracts/01Twitter.sol\":4906:5044  for (uint256 i = 0; i < allowed.length; i++) {... */\n      iszero\n      tag_191\n      jumpi\n        /* \"contracts/01Twitter.sol\":4983:4988  _user */\n      dup4\n        /* \"contracts/01Twitter.sol\":4969:4988  allowed[i] == _user */\n      0xffffffffffffffffffffffffffffffffffffffff\n      and\n        /* \"contracts/01Twitter.sol\":4969:4976  allowed */\n      dup3\n        /* \"contracts/01Twitter.sol\":4977:4978  i */\n      dup3\n        /* \"contracts/01Twitter.sol\":4969:4979  allowed[i] */\n      dup2\n      mload\n      dup2\n      lt\n      tag_193\n      jumpi\n      tag_194\n      tag_154\n      jump\t// in\n    tag_194:\n    tag_193:\n      0x20\n      mul\n      0x20\n      add\n      add\n      mload\n        /* \"contracts/01Twitter.sol\":4969:4988  allowed[i] == _user */\n      0xffffffffffffffffffffffffffffffffffffffff\n      and\n      sub\n        /* \"contracts/01Twitter.sol\":4965:5034  if (allowed[i] == _user) {... */\n      tag_195\n      jumpi\n        /* \"contracts/01Twitter.sol\":5015:5019  true */\n      0x01\n        /* \"contracts/01Twitter.sol\":5008:5019  return true */\n      swap3\n      pop\n      pop\n      pop\n      jump(tag_187)\n        /* \"contracts/01Twitter.sol\":4965:5034  if (allowed[i] == _user) {... */\n    tag_195:\n        /* \"contracts/01Twitter.sol\":4946:4949  i++ */\n      dup1\n      dup1\n      0x01\n      add\n      swap2\n      pop\n      pop\n        /* \"contracts/01Twitter.sol\":4906:5044  for (uint256 i = 0; i < allowed.length; i++) {... */\n      jump(tag_190)\n    tag_191:\n      pop\n        /* \"contracts/01Twitter.sol\":5060:5065  false */\n      0x00\n        /* \"contracts/01Twitter.sol\":5053:5065  return false */\n      swap2\n      pop\n      pop\n        /* \"contracts/01Twitter.sol\":4759:5072  function _isAllowed(address _owner, address _user) internal view returns (bool) {... */\n    tag_187:\n      swap3\n      swap2\n      pop\n      pop\n      jump\t// out\n        /* \"contracts/01Twitter.sol\":3049:3400  function _isFollowing(address _follower, address _followee) internal view returns (bool) {... */\n    tag_101:\n        /* \"contracts/01Twitter.sol\":3132:3136  bool */\n      0x00\n        /* \"contracts/01Twitter.sol\":3148:3178  address[] memory followedUsers */\n      dup1\n        /* \"contracts/01Twitter.sol\":3181:3197  followingOfUsers */\n      0x02\n        /* \"contracts/01Twitter.sol\":3181:3208  followingOfUsers[_follower] */\n      0x00\n        /* \"contracts/01Twitter.sol\":3198:3207  _follower */\n      dup6\n        /* \"contracts/01Twitter.sol\":3181:3208  followingOfUsers[_follower] */\n      0xffffffffffffffffffffffffffffffffffffffff\n      and\n      0xffffffffffffffffffffffffffffffffffffffff\n      and\n      dup2\n      mstore\n      0x20\n      add\n      swap1\n      dup2\n      mstore\n      0x20\n      add\n      0x00\n      keccak256\n        /* \"contracts/01Twitter.sol\":3148:3208  address[] memory followedUsers = followingOfUsers[_follower] */\n      dup1\n      sload\n      dup1\n      0x20\n      mul\n      0x20\n      add\n      mload(0x40)\n      swap1\n      dup2\n      add\n      0x40\n      mstore\n      dup1\n      swap3\n      swap2\n      swap1\n      dup2\n      dup2\n      mstore\n      0x20\n      add\n      dup3\n      dup1\n      sload\n      dup1\n      iszero\n      tag_197\n      jumpi\n      0x20\n      mul\n      dup3\n      add\n      swap2\n      swap1\n      0x00\n      mstore\n      keccak256(0x00, 0x20)\n      swap1\n    tag_198:\n      dup2\n      0x00\n      swap1\n      sload\n      swap1\n      0x0100\n      exp\n      swap1\n      div\n      0xffffffffffffffffffffffffffffffffffffffff\n      and\n      0xffffffffffffffffffffffffffffffffffffffff\n      and\n      dup2\n      mstore\n      0x20\n      add\n      swap1\n      0x01\n      add\n      swap1\n      dup1\n      dup4\n      gt\n      tag_198\n      jumpi\n    tag_197:\n      pop\n      pop\n      pop\n      pop\n      pop\n      swap1\n      pop\n        /* \"contracts/01Twitter.sol\":3223:3232  uint256 i */\n      0x00\n        /* \"contracts/01Twitter.sol\":3218:3372  for (uint256 i = 0; i < followedUsers.length; i++) {... */\n    tag_199:\n        /* \"contracts/01Twitter.sol\":3242:3255  followedUsers */\n      dup2\n        /* \"contracts/01Twitter.sol\":3242:3262  followedUsers.length */\n      mload\n        /* \"contracts/01Twitter.sol\":3238:3239  i */\n      dup2\n        /* \"contracts/01Twitter.sol\":3238:3262  i < followedUsers.length */\n      lt\n        /* \"contracts/01Twitter.sol\":3218:3372  for (uint256 i = 0; i < followedUsers.length; i++) {... */\n      iszero\n      tag_200\n      jumpi\n        /* \"contracts/01Twitter.sol\":3307:3316  _followee */\n      dup4\n        /* \"contracts/01Twitter.sol\":3287:3316  followedUsers[i] == _followee */\n      0xffffffffffffffffffffffffffffffffffffffff\n      and\n        /* \"contracts/01Twitter.sol\":3287:3300  followedUsers */\n      dup3\n        /* \"contracts/01Twitter.sol\":3301:3302  i */\n      dup3\n        /* \"contracts/01Twitter.sol\":3287:3303  followedUsers[i] */\n      dup2\n      mload\n      dup2\n      lt\n      tag_202\n      jumpi\n      tag_203\n      tag_154\n      jump\t// in\n    tag_203:\n    tag_202:\n      0x20\n      mul\n      0x20\n      add\n      add\n      mload\n        /* \"contracts/01Twitter.sol\":3287:3316  followedUsers[i] == _followee */\n      0xffffffffffffffffffffffffffffffffffffffff\n      and\n      sub\n        /* \"contracts/01Twitter.sol\":3283:3362  if (followedUsers[i] == _followee) {... */\n      tag_204\n      jumpi\n        /* \"contracts/01Twitter.sol\":3343:3347  true */\n      0x01\n        /* \"contracts/01Twitter.sol\":3336:3347  return true */\n      swap3\n      pop\n      pop\n      pop\n      jump(tag_196)\n        /* \"contracts/01Twitter.sol\":3283:3362  if (followedUsers[i] == _followee) {... */\n    tag_204:\n        /* \"contracts/01Twitter.sol\":3264:3267  i++ */\n      dup1\n      dup1\n      0x01\n      add\n      swap2\n      pop\n      pop\n        /* \"contracts/01Twitter.sol\":3218:3372  for (uint256 i = 0; i < followedUsers.length; i++) {... */\n      jump(tag_199)\n    tag_200:\n      pop\n        /* \"contracts/01Twitter.sol\":3388:3393  false */\n      0x00\n        /* \"contracts/01Twitter.sol\":3381:3393  return false */\n      swap2\n      pop\n      pop\n        /* \"contracts/01Twitter.sol\":3049:3400  function _isFollowing(address _follower, address _followee) internal view returns (bool) {... */\n    tag_196:\n      swap3\n      swap2\n      pop\n      pop\n      jump\t// out\n        /* \"#utility.yul\":88:205   */\n    tag_206:\n        /* \"#utility.yul\":197:198   */\n      0x00\n        /* \"#utility.yul\":194:195   */\n      dup1\n        /* \"#utility.yul\":187:199   */\n      revert\n        /* \"#utility.yul\":211:328   */\n    tag_207:\n        /* \"#utility.yul\":320:321   */\n      0x00\n        /* \"#utility.yul\":317:318   */\n      dup1\n        /* \"#utility.yul\":310:322   */\n      revert\n        /* \"#utility.yul\":334:460   */\n    tag_208:\n        /* \"#utility.yul\":371:378   */\n      0x00\n        /* \"#utility.yul\":411:453   */\n      0xffffffffffffffffffffffffffffffffffffffff\n        /* \"#utility.yul\":404:409   */\n      dup3\n        /* \"#utility.yul\":400:454   */\n      and\n        /* \"#utility.yul\":389:454   */\n      swap1\n      pop\n        /* \"#utility.yul\":334:460   */\n      swap2\n      swap1\n      pop\n      jump\t// out\n        /* \"#utility.yul\":466:562   */\n    tag_209:\n        /* \"#utility.yul\":503:510   */\n      0x00\n        /* \"#utility.yul\":532:556   */\n      tag_282\n        /* \"#utility.yul\":550:555   */\n      dup3\n        /* \"#utility.yul\":532:556   */\n      tag_208\n      jump\t// in\n    tag_282:\n        /* \"#utility.yul\":521:556   */\n      swap1\n      pop\n        /* \"#utility.yul\":466:562   */\n      swap2\n      swap1\n      pop\n      jump\t// out\n        /* \"#utility.yul\":568:690   */\n    tag_210:\n        /* \"#utility.yul\":641:665   */\n      tag_284\n        /* \"#utility.yul\":659:664   */\n      dup2\n        /* \"#utility.yul\":641:665   */\n      tag_209\n      jump\t// in\n    tag_284:\n        /* \"#utility.yul\":634:639   */\n      dup2\n        /* \"#utility.yul\":631:666   */\n      eq\n        /* \"#utility.yul\":621:684   */\n      tag_285\n      jumpi\n        /* \"#utility.yul\":680:681   */\n      0x00\n        /* \"#utility.yul\":677:678   */\n      dup1\n        /* \"#utility.yul\":670:682   */\n      revert\n        /* \"#utility.yul\":621:684   */\n    tag_285:\n        /* \"#utility.yul\":568:690   */\n      pop\n      jump\t// out\n        /* \"#utility.yul\":696:835   */\n    tag_211:\n        /* \"#utility.yul\":742:747   */\n      0x00\n        /* \"#utility.yul\":780:786   */\n      dup2\n        /* \"#utility.yul\":767:787   */\n      calldataload\n        /* \"#utility.yul\":758:787   */\n      swap1\n      pop\n        /* \"#utility.yul\":796:829   */\n      tag_287\n        /* \"#utility.yul\":823:828   */\n      dup2\n        /* \"#utility.yul\":796:829   */\n      tag_210\n      jump\t// in\n    tag_287:\n        /* \"#utility.yul\":696:835   */\n      swap3\n      swap2\n      pop\n      pop\n      jump\t// out\n        /* \"#utility.yul\":841:1170   */\n    tag_18:\n        /* \"#utility.yul\":900:906   */\n      0x00\n        /* \"#utility.yul\":949:951   */\n      0x20\n        /* \"#utility.yul\":937:946   */\n      dup3\n        /* \"#utility.yul\":928:935   */\n      dup5\n        /* \"#utility.yul\":924:947   */\n      sub\n        /* \"#utility.yul\":920:952   */\n      slt\n        /* \"#utility.yul\":917:1036   */\n      iszero\n      tag_289\n      jumpi\n        /* \"#utility.yul\":955:1034   */\n      tag_290\n      tag_206\n      jump\t// in\n    tag_290:\n        /* \"#utility.yul\":917:1036   */\n    tag_289:\n        /* \"#utility.yul\":1075:1076   */\n      0x00\n        /* \"#utility.yul\":1100:1153   */\n      tag_291\n        /* \"#utility.yul\":1145:1152   */\n      dup5\n        /* \"#utility.yul\":1136:1142   */\n      dup3\n        /* \"#utility.yul\":1125:1134   */\n      dup6\n        /* \"#utility.yul\":1121:1143   */\n      add\n        /* \"#utility.yul\":1100:1153   */\n      tag_211\n      jump\t// in\n    tag_291:\n        /* \"#utility.yul\":1090:1153   */\n      swap2\n      pop\n        /* \"#utility.yul\":1046:1163   */\n      pop\n        /* \"#utility.yul\":841:1170   */\n      swap3\n      swap2\n      pop\n      pop\n      jump\t// out\n        /* \"#utility.yul\":1176:1253   */\n    tag_212:\n        /* \"#utility.yul\":1213:1220   */\n      0x00\n        /* \"#utility.yul\":1242:1247   */\n      dup2\n        /* \"#utility.yul\":1231:1247   */\n      swap1\n      pop\n        /* \"#utility.yul\":1176:1253   */\n      swap2\n      swap1\n      pop\n      jump\t// out\n        /* \"#utility.yul\":1259:1381   */\n    tag_213:\n        /* \"#utility.yul\":1332:1356   */\n      tag_294\n        /* \"#utility.yul\":1350:1355   */\n      dup2\n        /* \"#utility.yul\":1332:1356   */\n      tag_212\n      jump\t// in\n    tag_294:\n        /* \"#utility.yul\":1325:1330   */\n      dup2\n        /* \"#utility.yul\":1322:1357   */\n      eq\n        /* \"#utility.yul\":1312:1375   */\n      tag_295\n      jumpi\n        /* \"#utility.yul\":1371:1372   */\n      0x00\n        /* \"#utility.yul\":1368:1369   */\n      dup1\n        /* \"#utility.yul\":1361:1373   */\n      revert\n        /* \"#utility.yul\":1312:1375   */\n    tag_295:\n        /* \"#utility.yul\":1259:1381   */\n      pop\n      jump\t// out\n        /* \"#utility.yul\":1387:1526   */\n    tag_214:\n        /* \"#utility.yul\":1433:1438   */\n      0x00\n        /* \"#utility.yul\":1471:1477   */\n      dup2\n        /* \"#utility.yul\":1458:1478   */\n      calldataload\n        /* \"#utility.yul\":1449:1478   */\n      swap1\n      pop\n        /* \"#utility.yul\":1487:1520   */\n      tag_297\n        /* \"#utility.yul\":1514:1519   */\n      dup2\n        /* \"#utility.yul\":1487:1520   */\n      tag_213\n      jump\t// in\n    tag_297:\n        /* \"#utility.yul\":1387:1526   */\n      swap3\n      swap2\n      pop\n      pop\n      jump\t// out\n        /* \"#utility.yul\":1532:2006   */\n    tag_22:\n        /* \"#utility.yul\":1600:1606   */\n      0x00\n        /* \"#utility.yul\":1608:1614   */\n      dup1\n        /* \"#utility.yul\":1657:1659   */\n      0x40\n        /* \"#utility.yul\":1645:1654   */\n      dup4\n        /* \"#utility.yul\":1636:1643   */\n      dup6\n        /* \"#utility.yul\":1632:1655   */\n      sub\n        /* \"#utility.yul\":1628:1660   */\n      slt\n        /* \"#utility.yul\":1625:1744   */\n      iszero\n      tag_299\n      jumpi\n        /* \"#utility.yul\":1663:1742   */\n      tag_300\n      tag_206\n      jump\t// in\n    tag_300:\n        /* \"#utility.yul\":1625:1744   */\n    tag_299:\n        /* \"#utility.yul\":1783:1784   */\n      0x00\n        /* \"#utility.yul\":1808:1861   */\n      tag_301\n        /* \"#utility.yul\":1853:1860   */\n      dup6\n        /* \"#utility.yul\":1844:1850   */\n      dup3\n        /* \"#utility.yul\":1833:1842   */\n      dup7\n        /* \"#utility.yul\":1829:1851   */\n      add\n        /* \"#utility.yul\":1808:1861   */\n      tag_211\n      jump\t// in\n    tag_301:\n        /* \"#utility.yul\":1798:1861   */\n      swap3\n      pop\n        /* \"#utility.yul\":1754:1871   */\n      pop\n        /* \"#utility.yul\":1910:1912   */\n      0x20\n        /* \"#utility.yul\":1936:1989   */\n      tag_302\n        /* \"#utility.yul\":1981:1988   */\n      dup6\n        /* \"#utility.yul\":1972:1978   */\n      dup3\n        /* \"#utility.yul\":1961:1970   */\n      dup7\n        /* \"#utility.yul\":1957:1979   */\n      add\n        /* \"#utility.yul\":1936:1989   */\n      tag_214\n      jump\t// in\n    tag_302:\n        /* \"#utility.yul\":1926:1989   */\n      swap2\n      pop\n        /* \"#utility.yul\":1881:1999   */\n      pop\n        /* \"#utility.yul\":1532:2006   */\n      swap3\n      pop\n      swap3\n      swap1\n      pop\n      jump\t// out\n        /* \"#utility.yul\":2012:2130   */\n    tag_215:\n        /* \"#utility.yul\":2099:2123   */\n      tag_304\n        /* \"#utility.yul\":2117:2122   */\n      dup2\n        /* \"#utility.yul\":2099:2123   */\n      tag_209\n      jump\t// in\n    tag_304:\n        /* \"#utility.yul\":2094:2097   */\n      dup3\n        /* \"#utility.yul\":2087:2124   */\n      mstore\n        /* \"#utility.yul\":2012:2130   */\n      pop\n      pop\n      jump\t// out\n        /* \"#utility.yul\":2136:2358   */\n    tag_25:\n        /* \"#utility.yul\":2229:2233   */\n      0x00\n        /* \"#utility.yul\":2267:2269   */\n      0x20\n        /* \"#utility.yul\":2256:2265   */\n      dup3\n        /* \"#utility.yul\":2252:2270   */\n      add\n        /* \"#utility.yul\":2244:2270   */\n      swap1\n      pop\n        /* \"#utility.yul\":2280:2351   */\n      tag_306\n        /* \"#utility.yul\":2348:2349   */\n      0x00\n        /* \"#utility.yul\":2337:2346   */\n      dup4\n        /* \"#utility.yul\":2333:2350   */\n      add\n        /* \"#utility.yul\":2324:2330   */\n      dup5\n        /* \"#utility.yul\":2280:2351   */\n      tag_215\n      jump\t// in\n    tag_306:\n        /* \"#utility.yul\":2136:2358   */\n      swap3\n      swap2\n      pop\n      pop\n      jump\t// out\n        /* \"#utility.yul\":2364:2463   */\n    tag_216:\n        /* \"#utility.yul\":2416:2422   */\n      0x00\n        /* \"#utility.yul\":2450:2455   */\n      dup2\n        /* \"#utility.yul\":2444:2456   */\n      mload\n        /* \"#utility.yul\":2434:2456   */\n      swap1\n      pop\n        /* \"#utility.yul\":2364:2463   */\n      swap2\n      swap1\n      pop\n      jump\t// out\n        /* \"#utility.yul\":2469:2638   */\n    tag_217:\n        /* \"#utility.yul\":2553:2564   */\n      0x00\n        /* \"#utility.yul\":2587:2593   */\n      dup3\n        /* \"#utility.yul\":2582:2585   */\n      dup3\n        /* \"#utility.yul\":2575:2594   */\n      mstore\n        /* \"#utility.yul\":2627:2631   */\n      0x20\n        /* \"#utility.yul\":2622:2625   */\n      dup3\n        /* \"#utility.yul\":2618:2632   */\n      add\n        /* \"#utility.yul\":2603:2632   */\n      swap1\n      pop\n        /* \"#utility.yul\":2469:2638   */\n      swap3\n      swap2\n      pop\n      pop\n      jump\t// out\n        /* \"#utility.yul\":2644:2783   */\n    tag_218:\n        /* \"#utility.yul\":2733:2739   */\n      dup3\n        /* \"#utility.yul\":2728:2731   */\n      dup2\n        /* \"#utility.yul\":2723:2726   */\n      dup4\n        /* \"#utility.yul\":2717:2740   */\n      mcopy\n        /* \"#utility.yul\":2774:2775   */\n      0x00\n        /* \"#utility.yul\":2765:2771   */\n      dup4\n        /* \"#utility.yul\":2760:2763   */\n      dup4\n        /* \"#utility.yul\":2756:2772   */\n      add\n        /* \"#utility.yul\":2749:2776   */\n      mstore\n        /* \"#utility.yul\":2644:2783   */\n      pop\n      pop\n      pop\n      jump\t// out\n        /* \"#utility.yul\":2789:2891   */\n    tag_219:\n        /* \"#utility.yul\":2830:2836   */\n      0x00\n        /* \"#utility.yul\":2881:2883   */\n      0x1f\n        /* \"#utility.yul\":2877:2884   */\n      not\n        /* \"#utility.yul\":2872:2874   */\n      0x1f\n        /* \"#utility.yul\":2865:2870   */\n      dup4\n        /* \"#utility.yul\":2861:2875   */\n      add\n        /* \"#utility.yul\":2857:2885   */\n      and\n        /* \"#utility.yul\":2847:2885   */\n      swap1\n      pop\n        /* \"#utility.yul\":2789:2891   */\n      swap2\n      swap1\n      pop\n      jump\t// out\n        /* \"#utility.yul\":2897:3274   */\n    tag_220:\n        /* \"#utility.yul\":2985:2988   */\n      0x00\n        /* \"#utility.yul\":3013:3052   */\n      tag_312\n        /* \"#utility.yul\":3046:3051   */\n      dup3\n        /* \"#utility.yul\":3013:3052   */\n      tag_216\n      jump\t// in\n    tag_312:\n        /* \"#utility.yul\":3068:3139   */\n      tag_313\n        /* \"#utility.yul\":3132:3138   */\n      dup2\n        /* \"#utility.yul\":3127:3130   */\n      dup6\n        /* \"#utility.yul\":3068:3139   */\n      tag_217\n      jump\t// in\n    tag_313:\n        /* \"#utility.yul\":3061:3139   */\n      swap4\n      pop\n        /* \"#utility.yul\":3148:3213   */\n      tag_314\n        /* \"#utility.yul\":3206:3212   */\n      dup2\n        /* \"#utility.yul\":3201:3204   */\n      dup6\n        /* \"#utility.yul\":3194:3198   */\n      0x20\n        /* \"#utility.yul\":3187:3192   */\n      dup7\n        /* \"#utility.yul\":3183:3199   */\n      add\n        /* \"#utility.yul\":3148:3213   */\n      tag_218\n      jump\t// in\n    tag_314:\n        /* \"#utility.yul\":3238:3267   */\n      tag_315\n        /* \"#utility.yul\":3260:3266   */\n      dup2\n        /* \"#utility.yul\":3238:3267   */\n      tag_219\n      jump\t// in\n    tag_315:\n        /* \"#utility.yul\":3233:3236   */\n      dup5\n        /* \"#utility.yul\":3229:3268   */\n      add\n        /* \"#utility.yul\":3222:3268   */\n      swap2\n      pop\n        /* \"#utility.yul\":2989:3274   */\n      pop\n        /* \"#utility.yul\":2897:3274   */\n      swap3\n      swap2\n      pop\n      pop\n      jump\t// out\n        /* \"#utility.yul\":3280:3398   */\n    tag_221:\n        /* \"#utility.yul\":3367:3391   */\n      tag_317\n        /* \"#utility.yul\":3385:3390   */\n      dup2\n        /* \"#utility.yul\":3367:3391   */\n      tag_212\n      jump\t// in\n    tag_317:\n        /* \"#utility.yul\":3362:3365   */\n      dup3\n        /* \"#utility.yul\":3355:3392   */\n      mstore\n        /* \"#utility.yul\":3280:3398   */\n      pop\n      pop\n      jump\t// out\n        /* \"#utility.yul\":3404:3827   */\n    tag_37:\n        /* \"#utility.yul\":3545:3549   */\n      0x00\n        /* \"#utility.yul\":3583:3585   */\n      0x40\n        /* \"#utility.yul\":3572:3581   */\n      dup3\n        /* \"#utility.yul\":3568:3586   */\n      add\n        /* \"#utility.yul\":3560:3586   */\n      swap1\n      pop\n        /* \"#utility.yul\":3632:3641   */\n      dup2\n        /* \"#utility.yul\":3626:3630   */\n      dup2\n        /* \"#utility.yul\":3622:3642   */\n      sub\n        /* \"#utility.yul\":3618:3619   */\n      0x00\n        /* \"#utility.yul\":3607:3616   */\n      dup4\n        /* \"#utility.yul\":3603:3620   */\n      add\n        /* \"#utility.yul\":3596:3643   */\n      mstore\n        /* \"#utility.yul\":3660:3738   */\n      tag_319\n        /* \"#utility.yul\":3733:3737   */\n      dup2\n        /* \"#utility.yul\":3724:3730   */\n      dup6\n        /* \"#utility.yul\":3660:3738   */\n      tag_220\n      jump\t// in\n    tag_319:\n        /* \"#utility.yul\":3652:3738   */\n      swap1\n      pop\n        /* \"#utility.yul\":3748:3820   */\n      tag_320\n        /* \"#utility.yul\":3816:3818   */\n      0x20\n        /* \"#utility.yul\":3805:3814   */\n      dup4\n        /* \"#utility.yul\":3801:3819   */\n      add\n        /* \"#utility.yul\":3792:3798   */\n      dup5\n        /* \"#utility.yul\":3748:3820   */\n      tag_221\n      jump\t// in\n    tag_320:\n        /* \"#utility.yul\":3404:3827   */\n      swap4\n      swap3\n      pop\n      pop\n      pop\n      jump\t// out\n        /* \"#utility.yul\":3833:3972   */\n    tag_222:\n        /* \"#utility.yul\":3925:3931   */\n      0x00\n        /* \"#utility.yul\":3959:3964   */\n      dup2\n        /* \"#utility.yul\":3953:3965   */\n      mload\n        /* \"#utility.yul\":3943:3965   */\n      swap1\n      pop\n        /* \"#utility.yul\":3833:3972   */\n      swap2\n      swap1\n      pop\n      jump\t// out\n        /* \"#utility.yul\":3978:4187   */\n    tag_223:\n        /* \"#utility.yul\":4102:4113   */\n      0x00\n        /* \"#utility.yul\":4136:4142   */\n      dup3\n        /* \"#utility.yul\":4131:4134   */\n      dup3\n        /* \"#utility.yul\":4124:4143   */\n      mstore\n        /* \"#utility.yul\":4176:4180   */\n      0x20\n        /* \"#utility.yul\":4171:4174   */\n      dup3\n        /* \"#utility.yul\":4167:4181   */\n      add\n        /* \"#utility.yul\":4152:4181   */\n      swap1\n      pop\n        /* \"#utility.yul\":3978:4187   */\n      swap3\n      swap2\n      pop\n      pop\n      jump\t// out\n        /* \"#utility.yul\":4193:4350   */\n    tag_224:\n        /* \"#utility.yul\":4285:4289   */\n      0x00\n        /* \"#utility.yul\":4308:4311   */\n      dup2\n        /* \"#utility.yul\":4300:4311   */\n      swap1\n      pop\n        /* \"#utility.yul\":4338:4342   */\n      0x20\n        /* \"#utility.yul\":4333:4336   */\n      dup3\n        /* \"#utility.yul\":4329:4343   */\n      add\n        /* \"#utility.yul\":4321:4343   */\n      swap1\n      pop\n        /* \"#utility.yul\":4193:4350   */\n      swap2\n      swap1\n      pop\n      jump\t// out\n        /* \"#utility.yul\":4356:4515   */\n    tag_225:\n        /* \"#utility.yul\":4430:4441   */\n      0x00\n        /* \"#utility.yul\":4464:4470   */\n      dup3\n        /* \"#utility.yul\":4459:4462   */\n      dup3\n        /* \"#utility.yul\":4452:4471   */\n      mstore\n        /* \"#utility.yul\":4504:4508   */\n      0x20\n        /* \"#utility.yul\":4499:4502   */\n      dup3\n        /* \"#utility.yul\":4495:4509   */\n      add\n        /* \"#utility.yul\":4480:4509   */\n      swap1\n      pop\n        /* \"#utility.yul\":4356:4515   */\n      swap3\n      swap2\n      pop\n      pop\n      jump\t// out\n        /* \"#utility.yul\":4521:4878   */\n    tag_226:\n        /* \"#utility.yul\":4599:4602   */\n      0x00\n        /* \"#utility.yul\":4627:4666   */\n      tag_326\n        /* \"#utility.yul\":4660:4665   */\n      dup3\n        /* \"#utility.yul\":4627:4666   */\n      tag_216\n      jump\t// in\n    tag_326:\n        /* \"#utility.yul\":4682:4743   */\n      tag_327\n        /* \"#utility.yul\":4736:4742   */\n      dup2\n        /* \"#utility.yul\":4731:4734   */\n      dup6\n        /* \"#utility.yul\":4682:4743   */\n      tag_225\n      jump\t// in\n    tag_327:\n        /* \"#utility.yul\":4675:4743   */\n      swap4\n      pop\n        /* \"#utility.yul\":4752:4817   */\n      tag_328\n        /* \"#utility.yul\":4810:4816   */\n      dup2\n        /* \"#utility.yul\":4805:4808   */\n      dup6\n        /* \"#utility.yul\":4798:4802   */\n      0x20\n        /* \"#utility.yul\":4791:4796   */\n      dup7\n        /* \"#utility.yul\":4787:4803   */\n      add\n        /* \"#utility.yul\":4752:4817   */\n      tag_218\n      jump\t// in\n    tag_328:\n        /* \"#utility.yul\":4842:4871   */\n      tag_329\n        /* \"#utility.yul\":4864:4870   */\n      dup2\n        /* \"#utility.yul\":4842:4871   */\n      tag_219\n      jump\t// in\n    tag_329:\n        /* \"#utility.yul\":4837:4840   */\n      dup5\n        /* \"#utility.yul\":4833:4872   */\n      add\n        /* \"#utility.yul\":4826:4872   */\n      swap2\n      pop\n        /* \"#utility.yul\":4603:4878   */\n      pop\n        /* \"#utility.yul\":4521:4878   */\n      swap3\n      swap2\n      pop\n      pop\n      jump\t// out\n        /* \"#utility.yul\":4884:4992   */\n    tag_227:\n        /* \"#utility.yul\":4961:4985   */\n      tag_331\n        /* \"#utility.yul\":4979:4984   */\n      dup2\n        /* \"#utility.yul\":4961:4985   */\n      tag_209\n      jump\t// in\n    tag_331:\n        /* \"#utility.yul\":4956:4959   */\n      dup3\n        /* \"#utility.yul\":4949:4986   */\n      mstore\n        /* \"#utility.yul\":4884:4992   */\n      pop\n      pop\n      jump\t// out\n        /* \"#utility.yul\":4998:5106   */\n    tag_228:\n        /* \"#utility.yul\":5075:5099   */\n      tag_333\n        /* \"#utility.yul\":5093:5098   */\n      dup2\n        /* \"#utility.yul\":5075:5099   */\n      tag_212\n      jump\t// in\n    tag_333:\n        /* \"#utility.yul\":5070:5073   */\n      dup3\n        /* \"#utility.yul\":5063:5100   */\n      mstore\n        /* \"#utility.yul\":4998:5106   */\n      pop\n      pop\n      jump\t// out\n        /* \"#utility.yul\":5172:6134   */\n    tag_229:\n        /* \"#utility.yul\":5281:5284   */\n      0x00\n        /* \"#utility.yul\":5317:5321   */\n      0x80\n        /* \"#utility.yul\":5312:5315   */\n      dup4\n        /* \"#utility.yul\":5308:5322   */\n      add\n        /* \"#utility.yul\":5414:5418   */\n      0x00\n        /* \"#utility.yul\":5407:5412   */\n      dup4\n        /* \"#utility.yul\":5403:5419   */\n      add\n        /* \"#utility.yul\":5397:5420   */\n      mload\n        /* \"#utility.yul\":5467:5470   */\n      dup5\n        /* \"#utility.yul\":5461:5465   */\n      dup3\n        /* \"#utility.yul\":5457:5471   */\n      sub\n        /* \"#utility.yul\":5450:5454   */\n      0x00\n        /* \"#utility.yul\":5445:5448   */\n      dup7\n        /* \"#utility.yul\":5441:5455   */\n      add\n        /* \"#utility.yul\":5434:5472   */\n      mstore\n        /* \"#utility.yul\":5493:5566   */\n      tag_335\n        /* \"#utility.yul\":5561:5565   */\n      dup3\n        /* \"#utility.yul\":5547:5559   */\n      dup3\n        /* \"#utility.yul\":5493:5566   */\n      tag_226\n      jump\t// in\n    tag_335:\n        /* \"#utility.yul\":5485:5566   */\n      swap2\n      pop\n        /* \"#utility.yul\":5332:5577   */\n      pop\n        /* \"#utility.yul\":5661:5665   */\n      0x20\n        /* \"#utility.yul\":5654:5659   */\n      dup4\n        /* \"#utility.yul\":5650:5666   */\n      add\n        /* \"#utility.yul\":5644:5667   */\n      mload\n        /* \"#utility.yul\":5680:5743   */\n      tag_336\n        /* \"#utility.yul\":5737:5741   */\n      0x20\n        /* \"#utility.yul\":5732:5735   */\n      dup7\n        /* \"#utility.yul\":5728:5742   */\n      add\n        /* \"#utility.yul\":5714:5726   */\n      dup3\n        /* \"#utility.yul\":5680:5743   */\n      tag_227\n      jump\t// in\n    tag_336:\n        /* \"#utility.yul\":5587:5753   */\n      pop\n        /* \"#utility.yul\":5839:5843   */\n      0x40\n        /* \"#utility.yul\":5832:5837   */\n      dup4\n        /* \"#utility.yul\":5828:5844   */\n      add\n        /* \"#utility.yul\":5822:5845   */\n      mload\n        /* \"#utility.yul\":5858:5921   */\n      tag_337\n        /* \"#utility.yul\":5915:5919   */\n      0x40\n        /* \"#utility.yul\":5910:5913   */\n      dup7\n        /* \"#utility.yul\":5906:5920   */\n      add\n        /* \"#utility.yul\":5892:5904   */\n      dup3\n        /* \"#utility.yul\":5858:5921   */\n      tag_227\n      jump\t// in\n    tag_337:\n        /* \"#utility.yul\":5763:5931   */\n      pop\n        /* \"#utility.yul\":6015:6019   */\n      0x60\n        /* \"#utility.yul\":6008:6013   */\n      dup4\n        /* \"#utility.yul\":6004:6020   */\n      add\n        /* \"#utility.yul\":5998:6021   */\n      mload\n        /* \"#utility.yul\":6034:6097   */\n      tag_338\n        /* \"#utility.yul\":6091:6095   */\n      0x60\n        /* \"#utility.yul\":6086:6089   */\n      dup7\n        /* \"#utility.yul\":6082:6096   */\n      add\n        /* \"#utility.yul\":6068:6080   */\n      dup3\n        /* \"#utility.yul\":6034:6097   */\n      tag_228\n      jump\t// in\n    tag_338:\n        /* \"#utility.yul\":5941:6107   */\n      pop\n        /* \"#utility.yul\":6124:6128   */\n      dup1\n        /* \"#utility.yul\":6117:6128   */\n      swap2\n      pop\n        /* \"#utility.yul\":5286:6134   */\n      pop\n        /* \"#utility.yul\":5172:6134   */\n      swap3\n      swap2\n      pop\n      pop\n      jump\t// out\n        /* \"#utility.yul\":6140:6396   */\n    tag_230:\n        /* \"#utility.yul\":6259:6269   */\n      0x00\n        /* \"#utility.yul\":6294:6390   */\n      tag_340\n        /* \"#utility.yul\":6386:6389   */\n      dup4\n        /* \"#utility.yul\":6378:6384   */\n      dup4\n        /* \"#utility.yul\":6294:6390   */\n      tag_229\n      jump\t// in\n    tag_340:\n        /* \"#utility.yul\":6280:6390   */\n      swap1\n      pop\n        /* \"#utility.yul\":6140:6396   */\n      swap3\n      swap2\n      pop\n      pop\n      jump\t// out\n        /* \"#utility.yul\":6402:6540   */\n    tag_231:\n        /* \"#utility.yul\":6497:6501   */\n      0x00\n        /* \"#utility.yul\":6529:6533   */\n      0x20\n        /* \"#utility.yul\":6524:6527   */\n      dup3\n        /* \"#utility.yul\":6520:6534   */\n      add\n        /* \"#utility.yul\":6512:6534   */\n      swap1\n      pop\n        /* \"#utility.yul\":6402:6540   */\n      swap2\n      swap1\n      pop\n      jump\t// out\n        /* \"#utility.yul\":6610:7721   */\n    tag_232:\n        /* \"#utility.yul\":6779:6782   */\n      0x00\n        /* \"#utility.yul\":6808:6887   */\n      tag_343\n        /* \"#utility.yul\":6881:6886   */\n      dup3\n        /* \"#utility.yul\":6808:6887   */\n      tag_222\n      jump\t// in\n    tag_343:\n        /* \"#utility.yul\":6903:7014   */\n      tag_344\n        /* \"#utility.yul\":7007:7013   */\n      dup2\n        /* \"#utility.yul\":7002:7005   */\n      dup6\n        /* \"#utility.yul\":6903:7014   */\n      tag_223\n      jump\t// in\n    tag_344:\n        /* \"#utility.yul\":6896:7014   */\n      swap4\n      pop\n        /* \"#utility.yul\":7040:7043   */\n      dup4\n        /* \"#utility.yul\":7085:7089   */\n      0x20\n        /* \"#utility.yul\":7077:7083   */\n      dup3\n        /* \"#utility.yul\":7073:7090   */\n      mul\n        /* \"#utility.yul\":7068:7071   */\n      dup6\n        /* \"#utility.yul\":7064:7091   */\n      add\n        /* \"#utility.yul\":7115:7196   */\n      tag_345\n        /* \"#utility.yul\":7190:7195   */\n      dup6\n        /* \"#utility.yul\":7115:7196   */\n      tag_224\n      jump\t// in\n    tag_345:\n        /* \"#utility.yul\":7219:7226   */\n      dup1\n        /* \"#utility.yul\":7250:7251   */\n      0x00\n        /* \"#utility.yul\":7235:7676   */\n    tag_346:\n        /* \"#utility.yul\":7260:7266   */\n      dup6\n        /* \"#utility.yul\":7257:7258   */\n      dup2\n        /* \"#utility.yul\":7254:7267   */\n      lt\n        /* \"#utility.yul\":7235:7676   */\n      iszero\n      tag_348\n      jumpi\n        /* \"#utility.yul\":7331:7340   */\n      dup5\n        /* \"#utility.yul\":7325:7329   */\n      dup5\n        /* \"#utility.yul\":7321:7341   */\n      sub\n        /* \"#utility.yul\":7316:7319   */\n      dup10\n        /* \"#utility.yul\":7309:7342   */\n      mstore\n        /* \"#utility.yul\":7382:7388   */\n      dup2\n        /* \"#utility.yul\":7376:7389   */\n      mload\n        /* \"#utility.yul\":7410:7524   */\n      tag_349\n        /* \"#utility.yul\":7519:7523   */\n      dup6\n        /* \"#utility.yul\":7504:7517   */\n      dup3\n        /* \"#utility.yul\":7410:7524   */\n      tag_230\n      jump\t// in\n    tag_349:\n        /* \"#utility.yul\":7402:7524   */\n      swap5\n      pop\n        /* \"#utility.yul\":7547:7632   */\n      tag_350\n        /* \"#utility.yul\":7625:7631   */\n      dup4\n        /* \"#utility.yul\":7547:7632   */\n      tag_231\n      jump\t// in\n    tag_350:\n        /* \"#utility.yul\":7537:7632   */\n      swap3\n      pop\n        /* \"#utility.yul\":7661:7665   */\n      0x20\n        /* \"#utility.yul\":7656:7659   */\n      dup11\n        /* \"#utility.yul\":7652:7666   */\n      add\n        /* \"#utility.yul\":7645:7666   */\n      swap10\n      pop\n        /* \"#utility.yul\":7295:7676   */\n      pop\n        /* \"#utility.yul\":7282:7283   */\n      0x01\n        /* \"#utility.yul\":7279:7280   */\n      dup2\n        /* \"#utility.yul\":7275:7284   */\n      add\n        /* \"#utility.yul\":7270:7284   */\n      swap1\n      pop\n        /* \"#utility.yul\":7235:7676   */\n      jump(tag_346)\n    tag_348:\n        /* \"#utility.yul\":7239:7253   */\n      pop\n        /* \"#utility.yul\":7692:7696   */\n      dup3\n        /* \"#utility.yul\":7685:7696   */\n      swap8\n      pop\n        /* \"#utility.yul\":7712:7715   */\n      dup8\n        /* \"#utility.yul\":7705:7715   */\n      swap6\n      pop\n        /* \"#utility.yul\":6784:7721   */\n      pop\n      pop\n      pop\n      pop\n      pop\n        /* \"#utility.yul\":6610:7721   */\n      swap3\n      swap2\n      pop\n      pop\n      jump\t// out\n        /* \"#utility.yul\":7727:8200   */\n    tag_44:\n        /* \"#utility.yul\":7920:7924   */\n      0x00\n        /* \"#utility.yul\":7958:7960   */\n      0x20\n        /* \"#utility.yul\":7947:7956   */\n      dup3\n        /* \"#utility.yul\":7943:7961   */\n      add\n        /* \"#utility.yul\":7935:7961   */\n      swap1\n      pop\n        /* \"#utility.yul\":8007:8016   */\n      dup2\n        /* \"#utility.yul\":8001:8005   */\n      dup2\n        /* \"#utility.yul\":7997:8017   */\n      sub\n        /* \"#utility.yul\":7993:7994   */\n      0x00\n        /* \"#utility.yul\":7982:7991   */\n      dup4\n        /* \"#utility.yul\":7978:7995   */\n      add\n        /* \"#utility.yul\":7971:8018   */\n      mstore\n        /* \"#utility.yul\":8035:8193   */\n      tag_352\n        /* \"#utility.yul\":8188:8192   */\n      dup2\n        /* \"#utility.yul\":8179:8185   */\n      dup5\n        /* \"#utility.yul\":8035:8193   */\n      tag_232\n      jump\t// in\n    tag_352:\n        /* \"#utility.yul\":8027:8193   */\n      swap1\n      pop\n        /* \"#utility.yul\":7727:8200   */\n      swap3\n      swap2\n      pop\n      pop\n      jump\t// out\n        /* \"#utility.yul\":8206:8850   */\n    tag_49:\n        /* \"#utility.yul\":8403:8407   */\n      0x00\n        /* \"#utility.yul\":8441:8444   */\n      0x80\n        /* \"#utility.yul\":8430:8439   */\n      dup3\n        /* \"#utility.yul\":8426:8445   */\n      add\n        /* \"#utility.yul\":8418:8445   */\n      swap1\n      pop\n        /* \"#utility.yul\":8491:8500   */\n      dup2\n        /* \"#utility.yul\":8485:8489   */\n      dup2\n        /* \"#utility.yul\":8481:8501   */\n      sub\n        /* \"#utility.yul\":8477:8478   */\n      0x00\n        /* \"#utility.yul\":8466:8475   */\n      dup4\n        /* \"#utility.yul\":8462:8479   */\n      add\n        /* \"#utility.yul\":8455:8502   */\n      mstore\n        /* \"#utility.yul\":8519:8597   */\n      tag_354\n        /* \"#utility.yul\":8592:8596   */\n      dup2\n        /* \"#utility.yul\":8583:8589   */\n      dup8\n        /* \"#utility.yul\":8519:8597   */\n      tag_220\n      jump\t// in\n    tag_354:\n        /* \"#utility.yul\":8511:8597   */\n      swap1\n      pop\n        /* \"#utility.yul\":8607:8679   */\n      tag_355\n        /* \"#utility.yul\":8675:8677   */\n      0x20\n        /* \"#utility.yul\":8664:8673   */\n      dup4\n        /* \"#utility.yul\":8660:8678   */\n      add\n        /* \"#utility.yul\":8651:8657   */\n      dup7\n        /* \"#utility.yul\":8607:8679   */\n      tag_215\n      jump\t// in\n    tag_355:\n        /* \"#utility.yul\":8689:8761   */\n      tag_356\n        /* \"#utility.yul\":8757:8759   */\n      0x40\n        /* \"#utility.yul\":8746:8755   */\n      dup4\n        /* \"#utility.yul\":8742:8760   */\n      add\n        /* \"#utility.yul\":8733:8739   */\n      dup6\n        /* \"#utility.yul\":8689:8761   */\n      tag_215\n      jump\t// in\n    tag_356:\n        /* \"#utility.yul\":8771:8843   */\n      tag_357\n        /* \"#utility.yul\":8839:8841   */\n      0x60\n        /* \"#utility.yul\":8828:8837   */\n      dup4\n        /* \"#utility.yul\":8824:8842   */\n      add\n        /* \"#utility.yul\":8815:8821   */\n      dup5\n        /* \"#utility.yul\":8771:8843   */\n      tag_221\n      jump\t// in\n    tag_357:\n        /* \"#utility.yul\":8206:8850   */\n      swap6\n      swap5\n      pop\n      pop\n      pop\n      pop\n      pop\n      jump\t// out\n        /* \"#utility.yul\":8856:8973   */\n    tag_233:\n        /* \"#utility.yul\":8965:8966   */\n      0x00\n        /* \"#utility.yul\":8962:8963   */\n      dup1\n        /* \"#utility.yul\":8955:8967   */\n      revert\n        /* \"#utility.yul\":8979:9096   */\n    tag_234:\n        /* \"#utility.yul\":9088:9089   */\n      0x00\n        /* \"#utility.yul\":9085:9086   */\n      dup1\n        /* \"#utility.yul\":9078:9090   */\n      revert\n        /* \"#utility.yul\":9102:9219   */\n    tag_235:\n        /* \"#utility.yul\":9211:9212   */\n      0x00\n        /* \"#utility.yul\":9208:9209   */\n      dup1\n        /* \"#utility.yul\":9201:9213   */\n      revert\n        /* \"#utility.yul\":9239:9792   */\n    tag_236:\n        /* \"#utility.yul\":9297:9305   */\n      0x00\n        /* \"#utility.yul\":9307:9313   */\n      dup1\n        /* \"#utility.yul\":9357:9360   */\n      dup4\n        /* \"#utility.yul\":9350:9354   */\n      0x1f\n        /* \"#utility.yul\":9342:9348   */\n      dup5\n        /* \"#utility.yul\":9338:9355   */\n      add\n        /* \"#utility.yul\":9334:9361   */\n      slt\n        /* \"#utility.yul\":9324:9446   */\n      tag_362\n      jumpi\n        /* \"#utility.yul\":9365:9444   */\n      tag_363\n      tag_233\n      jump\t// in\n    tag_363:\n        /* \"#utility.yul\":9324:9446   */\n    tag_362:\n        /* \"#utility.yul\":9478:9484   */\n      dup3\n        /* \"#utility.yul\":9465:9485   */\n      calldataload\n        /* \"#utility.yul\":9455:9485   */\n      swap1\n      pop\n        /* \"#utility.yul\":9508:9526   */\n      0xffffffffffffffff\n        /* \"#utility.yul\":9500:9506   */\n      dup2\n        /* \"#utility.yul\":9497:9527   */\n      gt\n        /* \"#utility.yul\":9494:9611   */\n      iszero\n      tag_364\n      jumpi\n        /* \"#utility.yul\":9530:9609   */\n      tag_365\n      tag_234\n      jump\t// in\n    tag_365:\n        /* \"#utility.yul\":9494:9611   */\n    tag_364:\n        /* \"#utility.yul\":9644:9648   */\n      0x20\n        /* \"#utility.yul\":9636:9642   */\n      dup4\n        /* \"#utility.yul\":9632:9649   */\n      add\n        /* \"#utility.yul\":9620:9649   */\n      swap2\n      pop\n        /* \"#utility.yul\":9698:9701   */\n      dup4\n        /* \"#utility.yul\":9690:9694   */\n      0x01\n        /* \"#utility.yul\":9682:9688   */\n      dup3\n        /* \"#utility.yul\":9678:9695   */\n      mul\n        /* \"#utility.yul\":9668:9676   */\n      dup4\n        /* \"#utility.yul\":9664:9696   */\n      add\n        /* \"#utility.yul\":9661:9702   */\n      gt\n        /* \"#utility.yul\":9658:9786   */\n      iszero\n      tag_366\n      jumpi\n        /* \"#utility.yul\":9705:9784   */\n      tag_367\n      tag_235\n      jump\t// in\n    tag_367:\n        /* \"#utility.yul\":9658:9786   */\n    tag_366:\n        /* \"#utility.yul\":9239:9792   */\n      swap3\n      pop\n      swap3\n      swap1\n      pop\n      jump\t// out\n        /* \"#utility.yul\":9798:10472   */\n    tag_56:\n        /* \"#utility.yul\":9878:9884   */\n      0x00\n        /* \"#utility.yul\":9886:9892   */\n      dup1\n        /* \"#utility.yul\":9894:9900   */\n      0x00\n        /* \"#utility.yul\":9943:9945   */\n      0x40\n        /* \"#utility.yul\":9931:9940   */\n      dup5\n        /* \"#utility.yul\":9922:9929   */\n      dup7\n        /* \"#utility.yul\":9918:9941   */\n      sub\n        /* \"#utility.yul\":9914:9946   */\n      slt\n        /* \"#utility.yul\":9911:10030   */\n      iszero\n      tag_369\n      jumpi\n        /* \"#utility.yul\":9949:10028   */\n      tag_370\n      tag_206\n      jump\t// in\n    tag_370:\n        /* \"#utility.yul\":9911:10030   */\n    tag_369:\n        /* \"#utility.yul\":10097:10098   */\n      0x00\n        /* \"#utility.yul\":10086:10095   */\n      dup5\n        /* \"#utility.yul\":10082:10099   */\n      add\n        /* \"#utility.yul\":10069:10100   */\n      calldataload\n        /* \"#utility.yul\":10127:10145   */\n      0xffffffffffffffff\n        /* \"#utility.yul\":10119:10125   */\n      dup2\n        /* \"#utility.yul\":10116:10146   */\n      gt\n        /* \"#utility.yul\":10113:10230   */\n      iszero\n      tag_371\n      jumpi\n        /* \"#utility.yul\":10149:10228   */\n      tag_372\n      tag_207\n      jump\t// in\n    tag_372:\n        /* \"#utility.yul\":10113:10230   */\n    tag_371:\n        /* \"#utility.yul\":10262:10327   */\n      tag_373\n        /* \"#utility.yul\":10319:10326   */\n      dup7\n        /* \"#utility.yul\":10310:10316   */\n      dup3\n        /* \"#utility.yul\":10299:10308   */\n      dup8\n        /* \"#utility.yul\":10295:10317   */\n      add\n        /* \"#utility.yul\":10262:10327   */\n      tag_236\n      jump\t// in\n    tag_373:\n        /* \"#utility.yul\":10244:10327   */\n      swap4\n      pop\n      swap4\n      pop\n        /* \"#utility.yul\":10040:10337   */\n      pop\n        /* \"#utility.yul\":10376:10378   */\n      0x20\n        /* \"#utility.yul\":10402:10455   */\n      tag_374\n        /* \"#utility.yul\":10447:10454   */\n      dup7\n        /* \"#utility.yul\":10438:10444   */\n      dup3\n        /* \"#utility.yul\":10427:10436   */\n      dup8\n        /* \"#utility.yul\":10423:10445   */\n      add\n        /* \"#utility.yul\":10402:10455   */\n      tag_211\n      jump\t// in\n    tag_374:\n        /* \"#utility.yul\":10392:10455   */\n      swap2\n      pop\n        /* \"#utility.yul\":10347:10465   */\n      pop\n        /* \"#utility.yul\":9798:10472   */\n      swap3\n      pop\n      swap3\n      pop\n      swap3\n      jump\t// out\n        /* \"#utility.yul\":10478:11007   */\n    tag_60:\n        /* \"#utility.yul\":10549:10555   */\n      0x00\n        /* \"#utility.yul\":10557:10563   */\n      dup1\n        /* \"#utility.yul\":10606:10608   */\n      0x20\n        /* \"#utility.yul\":10594:10603   */\n      dup4\n        /* \"#utility.yul\":10585:10592   */\n      dup6\n        /* \"#utility.yul\":10581:10604   */\n      sub\n        /* \"#utility.yul\":10577:10609   */\n      slt\n        /* \"#utility.yul\":10574:10693   */\n      iszero\n      tag_376\n      jumpi\n        /* \"#utility.yul\":10612:10691   */\n      tag_377\n      tag_206\n      jump\t// in\n    tag_377:\n        /* \"#utility.yul\":10574:10693   */\n    tag_376:\n        /* \"#utility.yul\":10760:10761   */\n      0x00\n        /* \"#utility.yul\":10749:10758   */\n      dup4\n        /* \"#utility.yul\":10745:10762   */\n      add\n        /* \"#utility.yul\":10732:10763   */\n      calldataload\n        /* \"#utility.yul\":10790:10808   */\n      0xffffffffffffffff\n        /* \"#utility.yul\":10782:10788   */\n      dup2\n        /* \"#utility.yul\":10779:10809   */\n      gt\n        /* \"#utility.yul\":10776:10893   */\n      iszero\n      tag_378\n      jumpi\n        /* \"#utility.yul\":10812:10891   */\n      tag_379\n      tag_207\n      jump\t// in\n    tag_379:\n        /* \"#utility.yul\":10776:10893   */\n    tag_378:\n        /* \"#utility.yul\":10925:10990   */\n      tag_380\n        /* \"#utility.yul\":10982:10989   */\n      dup6\n        /* \"#utility.yul\":10973:10979   */\n      dup3\n        /* \"#utility.yul\":10962:10971   */\n      dup7\n        /* \"#utility.yul\":10958:10980   */\n      add\n        /* \"#utility.yul\":10925:10990   */\n      tag_236\n      jump\t// in\n    tag_380:\n        /* \"#utility.yul\":10907:10990   */\n      swap3\n      pop\n      swap3\n      pop\n        /* \"#utility.yul\":10703:11000   */\n      pop\n        /* \"#utility.yul\":10478:11007   */\n      swap3\n      pop\n      swap3\n      swap1\n      pop\n      jump\t// out\n        /* \"#utility.yul\":11013:11151   */\n    tag_237:\n        /* \"#utility.yul\":11104:11110   */\n      0x00\n        /* \"#utility.yul\":11138:11143   */\n      dup2\n        /* \"#utility.yul\":11132:11144   */\n      mload\n        /* \"#utility.yul\":11122:11144   */\n      swap1\n      pop\n        /* \"#utility.yul\":11013:11151   */\n      swap2\n      swap1\n      pop\n      jump\t// out\n        /* \"#utility.yul\":11157:11365   */\n    tag_238:\n        /* \"#utility.yul\":11280:11291   */\n      0x00\n        /* \"#utility.yul\":11314:11320   */\n      dup3\n        /* \"#utility.yul\":11309:11312   */\n      dup3\n        /* \"#utility.yul\":11302:11321   */\n      mstore\n        /* \"#utility.yul\":11354:11358   */\n      0x20\n        /* \"#utility.yul\":11349:11352   */\n      dup3\n        /* \"#utility.yul\":11345:11359   */\n      add\n        /* \"#utility.yul\":11330:11359   */\n      swap1\n      pop\n        /* \"#utility.yul\":11157:11365   */\n      swap3\n      swap2\n      pop\n      pop\n      jump\t// out\n        /* \"#utility.yul\":11371:11527   */\n    tag_239:\n        /* \"#utility.yul\":11462:11466   */\n      0x00\n        /* \"#utility.yul\":11485:11488   */\n      dup2\n        /* \"#utility.yul\":11477:11488   */\n      swap1\n      pop\n        /* \"#utility.yul\":11515:11519   */\n      0x20\n        /* \"#utility.yul\":11510:11513   */\n      dup3\n        /* \"#utility.yul\":11506:11520   */\n      add\n        /* \"#utility.yul\":11498:11520   */\n      swap1\n      pop\n        /* \"#utility.yul\":11371:11527   */\n      swap2\n      swap1\n      pop\n      jump\t// out\n        /* \"#utility.yul\":11593:12200   */\n    tag_240:\n        /* \"#utility.yul\":11700:11703   */\n      0x00\n        /* \"#utility.yul\":11736:11740   */\n      0x40\n        /* \"#utility.yul\":11731:11734   */\n      dup4\n        /* \"#utility.yul\":11727:11741   */\n      add\n        /* \"#utility.yul\":11831:11835   */\n      0x00\n        /* \"#utility.yul\":11824:11829   */\n      dup4\n        /* \"#utility.yul\":11820:11836   */\n      add\n        /* \"#utility.yul\":11814:11837   */\n      mload\n        /* \"#utility.yul\":11884:11887   */\n      dup5\n        /* \"#utility.yul\":11878:11882   */\n      dup3\n        /* \"#utility.yul\":11874:11888   */\n      sub\n        /* \"#utility.yul\":11867:11871   */\n      0x00\n        /* \"#utility.yul\":11862:11865   */\n      dup7\n        /* \"#utility.yul\":11858:11872   */\n      add\n        /* \"#utility.yul\":11851:11889   */\n      mstore\n        /* \"#utility.yul\":11910:11983   */\n      tag_385\n        /* \"#utility.yul\":11978:11982   */\n      dup3\n        /* \"#utility.yul\":11964:11976   */\n      dup3\n        /* \"#utility.yul\":11910:11983   */\n      tag_226\n      jump\t// in\n    tag_385:\n        /* \"#utility.yul\":11902:11983   */\n      swap2\n      pop\n        /* \"#utility.yul\":11751:11994   */\n      pop\n        /* \"#utility.yul\":12081:12085   */\n      0x20\n        /* \"#utility.yul\":12074:12079   */\n      dup4\n        /* \"#utility.yul\":12070:12086   */\n      add\n        /* \"#utility.yul\":12064:12087   */\n      mload\n        /* \"#utility.yul\":12100:12163   */\n      tag_386\n        /* \"#utility.yul\":12157:12161   */\n      0x20\n        /* \"#utility.yul\":12152:12155   */\n      dup7\n        /* \"#utility.yul\":12148:12162   */\n      add\n        /* \"#utility.yul\":12134:12146   */\n      dup3\n        /* \"#utility.yul\":12100:12163   */\n      tag_228\n      jump\t// in\n    tag_386:\n        /* \"#utility.yul\":12004:12173   */\n      pop\n        /* \"#utility.yul\":12190:12194   */\n      dup1\n        /* \"#utility.yul\":12183:12194   */\n      swap2\n      pop\n        /* \"#utility.yul\":11705:12200   */\n      pop\n        /* \"#utility.yul\":11593:12200   */\n      swap3\n      swap2\n      pop\n      pop\n      jump\t// out\n        /* \"#utility.yul\":12206:12458   */\n    tag_241:\n        /* \"#utility.yul\":12323:12333   */\n      0x00\n        /* \"#utility.yul\":12358:12452   */\n      tag_388\n        /* \"#utility.yul\":12448:12451   */\n      dup4\n        /* \"#utility.yul\":12440:12446   */\n      dup4\n        /* \"#utility.yul\":12358:12452   */\n      tag_240\n      jump\t// in\n    tag_388:\n        /* \"#utility.yul\":12344:12452   */\n      swap1\n      pop\n        /* \"#utility.yul\":12206:12458   */\n      swap3\n      swap2\n      pop\n      pop\n      jump\t// out\n        /* \"#utility.yul\":12464:12601   */\n    tag_242:\n        /* \"#utility.yul\":12558:12562   */\n      0x00\n        /* \"#utility.yul\":12590:12594   */\n      0x20\n        /* \"#utility.yul\":12585:12588   */\n      dup3\n        /* \"#utility.yul\":12581:12595   */\n      add\n        /* \"#utility.yul\":12573:12595   */\n      swap1\n      pop\n        /* \"#utility.yul\":12464:12601   */\n      swap2\n      swap1\n      pop\n      jump\t// out\n        /* \"#utility.yul\":12671:13774   */\n    tag_243:\n        /* \"#utility.yul\":12838:12841   */\n      0x00\n        /* \"#utility.yul\":12867:12945   */\n      tag_391\n        /* \"#utility.yul\":12939:12944   */\n      dup3\n        /* \"#utility.yul\":12867:12945   */\n      tag_237\n      jump\t// in\n    tag_391:\n        /* \"#utility.yul\":12961:13071   */\n      tag_392\n        /* \"#utility.yul\":13064:13070   */\n      dup2\n        /* \"#utility.yul\":13059:13062   */\n      dup6\n        /* \"#utility.yul\":12961:13071   */\n      tag_238\n      jump\t// in\n    tag_392:\n        /* \"#utility.yul\":12954:13071   */\n      swap4\n      pop\n        /* \"#utility.yul\":13097:13100   */\n      dup4\n        /* \"#utility.yul\":13142:13146   */\n      0x20\n        /* \"#utility.yul\":13134:13140   */\n      dup3\n        /* \"#utility.yul\":13130:13147   */\n      mul\n        /* \"#utility.yul\":13125:13128   */\n      dup6\n        /* \"#utility.yul\":13121:13148   */\n      add\n        /* \"#utility.yul\":13172:13252   */\n      tag_393\n        /* \"#utility.yul\":13246:13251   */\n      dup6\n        /* \"#utility.yul\":13172:13252   */\n      tag_239\n      jump\t// in\n    tag_393:\n        /* \"#utility.yul\":13275:13282   */\n      dup1\n        /* \"#utility.yul\":13306:13307   */\n      0x00\n        /* \"#utility.yul\":13291:13729   */\n    tag_394:\n        /* \"#utility.yul\":13316:13322   */\n      dup6\n        /* \"#utility.yul\":13313:13314   */\n      dup2\n        /* \"#utility.yul\":13310:13323   */\n      lt\n        /* \"#utility.yul\":13291:13729   */\n      iszero\n      tag_396\n      jumpi\n        /* \"#utility.yul\":13387:13396   */\n      dup5\n        /* \"#utility.yul\":13381:13385   */\n      dup5\n        /* \"#utility.yul\":13377:13397   */\n      sub\n        /* \"#utility.yul\":13372:13375   */\n      dup10\n        /* \"#utility.yul\":13365:13398   */\n      mstore\n        /* \"#utility.yul\":13438:13444   */\n      dup2\n        /* \"#utility.yul\":13432:13445   */\n      mload\n        /* \"#utility.yul\":13466:13578   */\n      tag_397\n        /* \"#utility.yul\":13573:13577   */\n      dup6\n        /* \"#utility.yul\":13558:13571   */\n      dup3\n        /* \"#utility.yul\":13466:13578   */\n      tag_241\n      jump\t// in\n    tag_397:\n        /* \"#utility.yul\":13458:13578   */\n      swap5\n      pop\n        /* \"#utility.yul\":13601:13685   */\n      tag_398\n        /* \"#utility.yul\":13678:13684   */\n      dup4\n        /* \"#utility.yul\":13601:13685   */\n      tag_242\n      jump\t// in\n    tag_398:\n        /* \"#utility.yul\":13591:13685   */\n      swap3\n      pop\n        /* \"#utility.yul\":13714:13718   */\n      0x20\n        /* \"#utility.yul\":13709:13712   */\n      dup11\n        /* \"#utility.yul\":13705:13719   */\n      add\n        /* \"#utility.yul\":13698:13719   */\n      swap10\n      pop\n        /* \"#utility.yul\":13351:13729   */\n      pop\n        /* \"#utility.yul\":13338:13339   */\n      0x01\n        /* \"#utility.yul\":13335:13336   */\n      dup2\n        /* \"#utility.yul\":13331:13340   */\n      add\n        /* \"#utility.yul\":13326:13340   */\n      swap1\n      pop\n        /* \"#utility.yul\":13291:13729   */\n      jump(tag_394)\n    tag_396:\n        /* \"#utility.yul\":13295:13309   */\n      pop\n        /* \"#utility.yul\":13745:13749   */\n      dup3\n        /* \"#utility.yul\":13738:13749   */\n      swap8\n      pop\n        /* \"#utility.yul\":13765:13768   */\n      dup8\n        /* \"#utility.yul\":13758:13768   */\n      swap6\n      pop\n        /* \"#utility.yul\":12843:13774   */\n      pop\n      pop\n      pop\n      pop\n      pop\n        /* \"#utility.yul\":12671:13774   */\n      swap3\n      swap2\n      pop\n      pop\n      jump\t// out\n        /* \"#utility.yul\":13780:14249   */\n    tag_65:\n        /* \"#utility.yul\":13971:13975   */\n      0x00\n        /* \"#utility.yul\":14009:14011   */\n      0x20\n        /* \"#utility.yul\":13998:14007   */\n      dup3\n        /* \"#utility.yul\":13994:14012   */\n      add\n        /* \"#utility.yul\":13986:14012   */\n      swap1\n      pop\n        /* \"#utility.yul\":14058:14067   */\n      dup2\n        /* \"#utility.yul\":14052:14056   */\n      dup2\n        /* \"#utility.yul\":14048:14068   */\n      sub\n        /* \"#utility.yul\":14044:14045   */\n      0x00\n        /* \"#utility.yul\":14033:14042   */\n      dup4\n        /* \"#utility.yul\":14029:14046   */\n      add\n        /* \"#utility.yul\":14022:14069   */\n      mstore\n        /* \"#utility.yul\":14086:14242   */\n      tag_400\n        /* \"#utility.yul\":14237:14241   */\n      dup2\n        /* \"#utility.yul\":14228:14234   */\n      dup5\n        /* \"#utility.yul\":14086:14242   */\n      tag_243\n      jump\t// in\n    tag_400:\n        /* \"#utility.yul\":14078:14242   */\n      swap1\n      pop\n        /* \"#utility.yul\":13780:14249   */\n      swap3\n      swap2\n      pop\n      pop\n      jump\t// out\n        /* \"#utility.yul\":14255:14428   */\n    tag_244:\n        /* \"#utility.yul\":14395:14420   */\n      0x43616e6e6f7420756e666f6c6c6f77206f6e6573656c66000000000000000000\n        /* \"#utility.yul\":14391:14392   */\n      0x00\n        /* \"#utility.yul\":14383:14389   */\n      dup3\n        /* \"#utility.yul\":14379:14393   */\n      add\n        /* \"#utility.yul\":14372:14421   */\n      mstore\n        /* \"#utility.yul\":14255:14428   */\n      pop\n      jump\t// out\n        /* \"#utility.yul\":14434:14800   */\n    tag_245:\n        /* \"#utility.yul\":14576:14579   */\n      0x00\n        /* \"#utility.yul\":14597:14664   */\n      tag_403\n        /* \"#utility.yul\":14661:14663   */\n      0x17\n        /* \"#utility.yul\":14656:14659   */\n      dup4\n        /* \"#utility.yul\":14597:14664   */\n      tag_217\n      jump\t// in\n    tag_403:\n        /* \"#utility.yul\":14590:14664   */\n      swap2\n      pop\n        /* \"#utility.yul\":14673:14766   */\n      tag_404\n        /* \"#utility.yul\":14762:14765   */\n      dup3\n        /* \"#utility.yul\":14673:14766   */\n      tag_244\n      jump\t// in\n    tag_404:\n        /* \"#utility.yul\":14791:14793   */\n      0x20\n        /* \"#utility.yul\":14786:14789   */\n      dup3\n        /* \"#utility.yul\":14782:14794   */\n      add\n        /* \"#utility.yul\":14775:14794   */\n      swap1\n      pop\n        /* \"#utility.yul\":14434:14800   */\n      swap2\n      swap1\n      pop\n      jump\t// out\n        /* \"#utility.yul\":14806:15225   */\n    tag_69:\n        /* \"#utility.yul\":14972:14976   */\n      0x00\n        /* \"#utility.yul\":15010:15012   */\n      0x20\n        /* \"#utility.yul\":14999:15008   */\n      dup3\n        /* \"#utility.yul\":14995:15013   */\n      add\n        /* \"#utility.yul\":14987:15013   */\n      swap1\n      pop\n        /* \"#utility.yul\":15059:15068   */\n      dup2\n        /* \"#utility.yul\":15053:15057   */\n      dup2\n        /* \"#utility.yul\":15049:15069   */\n      sub\n        /* \"#utility.yul\":15045:15046   */\n      0x00\n        /* \"#utility.yul\":15034:15043   */\n      dup4\n        /* \"#utility.yul\":15030:15047   */\n      add\n        /* \"#utility.yul\":15023:15070   */\n      mstore\n        /* \"#utility.yul\":15087:15218   */\n      tag_406\n        /* \"#utility.yul\":15213:15217   */\n      dup2\n        /* \"#utility.yul\":15087:15218   */\n      tag_245\n      jump\t// in\n    tag_406:\n        /* \"#utility.yul\":15079:15218   */\n      swap1\n      pop\n        /* \"#utility.yul\":14806:15225   */\n      swap2\n      swap1\n      pop\n      jump\t// out\n        /* \"#utility.yul\":15231:15411   */\n    tag_246:\n        /* \"#utility.yul\":15371:15403   */\n      0x43616e6e6f74206772616e742061636365737320746f206f6e6573656c660000\n        /* \"#utility.yul\":15367:15368   */\n      0x00\n        /* \"#utility.yul\":15359:15365   */\n      dup3\n        /* \"#utility.yul\":15355:15369   */\n      add\n        /* \"#utility.yul\":15348:15404   */\n      mstore\n        /* \"#utility.yul\":15231:15411   */\n      pop\n      jump\t// out\n        /* \"#utility.yul\":15417:15783   */\n    tag_247:\n        /* \"#utility.yul\":15559:15562   */\n      0x00\n        /* \"#utility.yul\":15580:15647   */\n      tag_409\n        /* \"#utility.yul\":15644:15646   */\n      0x1e\n        /* \"#utility.yul\":15639:15642   */\n      dup4\n        /* \"#utility.yul\":15580:15647   */\n      tag_217\n      jump\t// in\n    tag_409:\n        /* \"#utility.yul\":15573:15647   */\n      swap2\n      pop\n        /* \"#utility.yul\":15656:15749   */\n      tag_410\n        /* \"#utility.yul\":15745:15748   */\n      dup3\n        /* \"#utility.yul\":15656:15749   */\n      tag_246\n      jump\t// in\n    tag_410:\n        /* \"#utility.yul\":15774:15776   */\n      0x20\n        /* \"#utility.yul\":15769:15772   */\n      dup3\n        /* \"#utility.yul\":15765:15777   */\n      add\n        /* \"#utility.yul\":15758:15777   */\n      swap1\n      pop\n        /* \"#utility.yul\":15417:15783   */\n      swap2\n      swap1\n      pop\n      jump\t// out\n        /* \"#utility.yul\":15789:16208   */\n    tag_79:\n        /* \"#utility.yul\":15955:15959   */\n      0x00\n        /* \"#utility.yul\":15993:15995   */\n      0x20\n        /* \"#utility.yul\":15982:15991   */\n      dup3\n        /* \"#utility.yul\":15978:15996   */\n      add\n        /* \"#utility.yul\":15970:15996   */\n      swap1\n      pop\n        /* \"#utility.yul\":16042:16051   */\n      dup2\n        /* \"#utility.yul\":16036:16040   */\n      dup2\n        /* \"#utility.yul\":16032:16052   */\n      sub\n        /* \"#utility.yul\":16028:16029   */\n      0x00\n        /* \"#utility.yul\":16017:16026   */\n      dup4\n        /* \"#utility.yul\":16013:16030   */\n      add\n        /* \"#utility.yul\":16006:16053   */\n      mstore\n        /* \"#utility.yul\":16070:16201   */\n      tag_412\n        /* \"#utility.yul\":16196:16200   */\n      dup2\n        /* \"#utility.yul\":16070:16201   */\n      tag_247\n      jump\t// in\n    tag_412:\n        /* \"#utility.yul\":16062:16201   */\n      swap1\n      pop\n        /* \"#utility.yul\":15789:16208   */\n      swap2\n      swap1\n      pop\n      jump\t// out\n        /* \"#utility.yul\":16214:16386   */\n    tag_248:\n        /* \"#utility.yul\":16354:16378   */\n      0x41636365737320616c7265616479206772616e74656400000000000000000000\n        /* \"#utility.yul\":16350:16351   */\n      0x00\n        /* \"#utility.yul\":16342:16348   */\n      dup3\n        /* \"#utility.yul\":16338:16352   */\n      add\n        /* \"#utility.yul\":16331:16379   */\n      mstore\n        /* \"#utility.yul\":16214:16386   */\n      pop\n      jump\t// out\n        /* \"#utility.yul\":16392:16758   */\n    tag_249:\n        /* \"#utility.yul\":16534:16537   */\n      0x00\n        /* \"#utility.yul\":16555:16622   */\n      tag_415\n        /* \"#utility.yul\":16619:16621   */\n      0x16\n        /* \"#utility.yul\":16614:16617   */\n      dup4\n        /* \"#utility.yul\":16555:16622   */\n      tag_217\n      jump\t// in\n    tag_415:\n        /* \"#utility.yul\":16548:16622   */\n      swap2\n      pop\n        /* \"#utility.yul\":16631:16724   */\n      tag_416\n        /* \"#utility.yul\":16720:16723   */\n      dup3\n        /* \"#utility.yul\":16631:16724   */\n      tag_248\n      jump\t// in\n    tag_416:\n        /* \"#utility.yul\":16749:16751   */\n      0x20\n        /* \"#utility.yul\":16744:16747   */\n      dup3\n        /* \"#utility.yul\":16740:16752   */\n      add\n        /* \"#utility.yul\":16733:16752   */\n      swap1\n      pop\n        /* \"#utility.yul\":16392:16758   */\n      swap2\n      swap1\n      pop\n      jump\t// out\n        /* \"#utility.yul\":16764:17183   */\n    tag_84:\n        /* \"#utility.yul\":16930:16934   */\n      0x00\n        /* \"#utility.yul\":16968:16970   */\n      0x20\n        /* \"#utility.yul\":16957:16966   */\n      dup3\n        /* \"#utility.yul\":16953:16971   */\n      add\n        /* \"#utility.yul\":16945:16971   */\n      swap1\n      pop\n        /* \"#utility.yul\":17017:17026   */\n      dup2\n        /* \"#utility.yul\":17011:17015   */\n      dup2\n        /* \"#utility.yul\":17007:17027   */\n      sub\n        /* \"#utility.yul\":17003:17004   */\n      0x00\n        /* \"#utility.yul\":16992:17001   */\n      dup4\n        /* \"#utility.yul\":16988:17005   */\n      add\n        /* \"#utility.yul\":16981:17028   */\n      mstore\n        /* \"#utility.yul\":17045:17176   */\n      tag_418\n        /* \"#utility.yul\":17171:17175   */\n      dup2\n        /* \"#utility.yul\":17045:17176   */\n      tag_249\n      jump\t// in\n    tag_418:\n        /* \"#utility.yul\":17037:17176   */\n      swap1\n      pop\n        /* \"#utility.yul\":16764:17183   */\n      swap2\n      swap1\n      pop\n      jump\t// out\n        /* \"#utility.yul\":17189:17369   */\n    tag_250:\n        /* \"#utility.yul\":17237:17314   */\n      0x4e487b7100000000000000000000000000000000000000000000000000000000\n        /* \"#utility.yul\":17234:17235   */\n      0x00\n        /* \"#utility.yul\":17227:17315   */\n      mstore\n        /* \"#utility.yul\":17334:17338   */\n      0x22\n        /* \"#utility.yul\":17331:17332   */\n      0x04\n        /* \"#utility.yul\":17324:17339   */\n      mstore\n        /* \"#utility.yul\":17358:17362   */\n      0x24\n        /* \"#utility.yul\":17355:17356   */\n      0x00\n        /* \"#utility.yul\":17348:17363   */\n      revert\n        /* \"#utility.yul\":17375:17695   */\n    tag_91:\n        /* \"#utility.yul\":17419:17425   */\n      0x00\n        /* \"#utility.yul\":17456:17457   */\n      0x02\n        /* \"#utility.yul\":17450:17454   */\n      dup3\n        /* \"#utility.yul\":17446:17458   */\n      div\n        /* \"#utility.yul\":17436:17458   */\n      swap1\n      pop\n        /* \"#utility.yul\":17503:17504   */\n      0x01\n        /* \"#utility.yul\":17497:17501   */\n      dup3\n        /* \"#utility.yul\":17493:17505   */\n      and\n        /* \"#utility.yul\":17524:17542   */\n      dup1\n        /* \"#utility.yul\":17514:17595   */\n      tag_421\n      jumpi\n        /* \"#utility.yul\":17580:17584   */\n      0x7f\n        /* \"#utility.yul\":17572:17578   */\n      dup3\n        /* \"#utility.yul\":17568:17585   */\n      and\n        /* \"#utility.yul\":17558:17585   */\n      swap2\n      pop\n        /* \"#utility.yul\":17514:17595   */\n    tag_421:\n        /* \"#utility.yul\":17642:17644   */\n      0x20\n        /* \"#utility.yul\":17634:17640   */\n      dup3\n        /* \"#utility.yul\":17631:17645   */\n      lt\n        /* \"#utility.yul\":17611:17629   */\n      dup2\n        /* \"#utility.yul\":17608:17646   */\n      sub\n        /* \"#utility.yul\":17605:17689   */\n      tag_422\n      jumpi\n        /* \"#utility.yul\":17661:17679   */\n      tag_423\n      tag_250\n      jump\t// in\n    tag_423:\n        /* \"#utility.yul\":17605:17689   */\n    tag_422:\n        /* \"#utility.yul\":17426:17695   */\n      pop\n        /* \"#utility.yul\":17375:17695   */\n      swap2\n      swap1\n      pop\n      jump\t// out\n        /* \"#utility.yul\":17701:17872   */\n    tag_251:\n        /* \"#utility.yul\":17841:17864   */\n      0x43616e6e6f7420666f6c6c6f77206f6e6573656c660000000000000000000000\n        /* \"#utility.yul\":17837:17838   */\n      0x00\n        /* \"#utility.yul\":17829:17835   */\n      dup3\n        /* \"#utility.yul\":17825:17839   */\n      add\n        /* \"#utility.yul\":17818:17865   */\n      mstore\n        /* \"#utility.yul\":17701:17872   */\n      pop\n      jump\t// out\n        /* \"#utility.yul\":17878:18244   */\n    tag_252:\n        /* \"#utility.yul\":18020:18023   */\n      0x00\n        /* \"#utility.yul\":18041:18108   */\n      tag_426\n        /* \"#utility.yul\":18105:18107   */\n      0x15\n        /* \"#utility.yul\":18100:18103   */\n      dup4\n        /* \"#utility.yul\":18041:18108   */\n      tag_217\n      jump\t// in\n    tag_426:\n        /* \"#utility.yul\":18034:18108   */\n      swap2\n      pop\n        /* \"#utility.yul\":18117:18210   */\n      tag_427\n        /* \"#utility.yul\":18206:18209   */\n      dup3\n        /* \"#utility.yul\":18117:18210   */\n      tag_251\n      jump\t// in\n    tag_427:\n        /* \"#utility.yul\":18235:18237   */\n      0x20\n        /* \"#utility.yul\":18230:18233   */\n      dup3\n        /* \"#utility.yul\":18226:18238   */\n      add\n        /* \"#utility.yul\":18219:18238   */\n      swap1\n      pop\n        /* \"#utility.yul\":17878:18244   */\n      swap2\n      swap1\n      pop\n      jump\t// out\n        /* \"#utility.yul\":18250:18669   */\n    tag_99:\n        /* \"#utility.yul\":18416:18420   */\n      0x00\n        /* \"#utility.yul\":18454:18456   */\n      0x20\n        /* \"#utility.yul\":18443:18452   */\n      dup3\n        /* \"#utility.yul\":18439:18457   */\n      add\n        /* \"#utility.yul\":18431:18457   */\n      swap1\n      pop\n        /* \"#utility.yul\":18503:18512   */\n      dup2\n        /* \"#utility.yul\":18497:18501   */\n      dup2\n        /* \"#utility.yul\":18493:18513   */\n      sub\n        /* \"#utility.yul\":18489:18490   */\n      0x00\n        /* \"#utility.yul\":18478:18487   */\n      dup4\n        /* \"#utility.yul\":18474:18491   */\n      add\n        /* \"#utility.yul\":18467:18514   */\n      mstore\n        /* \"#utility.yul\":18531:18662   */\n      tag_429\n        /* \"#utility.yul\":18657:18661   */\n      dup2\n        /* \"#utility.yul\":18531:18662   */\n      tag_252\n      jump\t// in\n    tag_429:\n        /* \"#utility.yul\":18523:18662   */\n      swap1\n      pop\n        /* \"#utility.yul\":18250:18669   */\n      swap2\n      swap1\n      pop\n      jump\t// out\n        /* \"#utility.yul\":18675:18852   */\n    tag_253:\n        /* \"#utility.yul\":18815:18844   */\n      0x416c726561647920666f6c6c6f77696e67207468697320757365720000000000\n        /* \"#utility.yul\":18811:18812   */\n      0x00\n        /* \"#utility.yul\":18803:18809   */\n      dup3\n        /* \"#utility.yul\":18799:18813   */\n      add\n        /* \"#utility.yul\":18792:18845   */\n      mstore\n        /* \"#utility.yul\":18675:18852   */\n      pop\n      jump\t// out\n        /* \"#utility.yul\":18858:19224   */\n    tag_254:\n        /* \"#utility.yul\":19000:19003   */\n      0x00\n        /* \"#utility.yul\":19021:19088   */\n      tag_432\n        /* \"#utility.yul\":19085:19087   */\n      0x1b\n        /* \"#utility.yul\":19080:19083   */\n      dup4\n        /* \"#utility.yul\":19021:19088   */\n      tag_217\n      jump\t// in\n    tag_432:\n        /* \"#utility.yul\":19014:19088   */\n      swap2\n      pop\n        /* \"#utility.yul\":19097:19190   */\n      tag_433\n        /* \"#utility.yul\":19186:19189   */\n      dup3\n        /* \"#utility.yul\":19097:19190   */\n      tag_253\n      jump\t// in\n    tag_433:\n        /* \"#utility.yul\":19215:19217   */\n      0x20\n        /* \"#utility.yul\":19210:19213   */\n      dup3\n        /* \"#utility.yul\":19206:19218   */\n      add\n        /* \"#utility.yul\":19199:19218   */\n      swap1\n      pop\n        /* \"#utility.yul\":18858:19224   */\n      swap2\n      swap1\n      pop\n      jump\t// out\n        /* \"#utility.yul\":19230:19649   */\n    tag_104:\n        /* \"#utility.yul\":19396:19400   */\n      0x00\n        /* \"#utility.yul\":19434:19436   */\n      0x20\n        /* \"#utility.yul\":19423:19432   */\n      dup3\n        /* \"#utility.yul\":19419:19437   */\n      add\n        /* \"#utility.yul\":19411:19437   */\n      swap1\n      pop\n        /* \"#utility.yul\":19483:19492   */\n      dup2\n        /* \"#utility.yul\":19477:19481   */\n      dup2\n        /* \"#utility.yul\":19473:19493   */\n      sub\n        /* \"#utility.yul\":19469:19470   */\n      0x00\n        /* \"#utility.yul\":19458:19467   */\n      dup4\n        /* \"#utility.yul\":19454:19471   */\n      add\n        /* \"#utility.yul\":19447:19494   */\n      mstore\n        /* \"#utility.yul\":19511:19642   */\n      tag_435\n        /* \"#utility.yul\":19637:19641   */\n      dup2\n        /* \"#utility.yul\":19511:19642   */\n      tag_254\n      jump\t// in\n    tag_435:\n        /* \"#utility.yul\":19503:19642   */\n      swap1\n      pop\n        /* \"#utility.yul\":19230:19649   */\n      swap2\n      swap1\n      pop\n      jump\t// out\n        /* \"#utility.yul\":19655:19835   */\n    tag_255:\n        /* \"#utility.yul\":19795:19827   */\n      0x43616e6e6f742073656e64206d65737361676520746f206f6e6573656c660000\n        /* \"#utility.yul\":19791:19792   */\n      0x00\n        /* \"#utility.yul\":19783:19789   */\n      dup3\n        /* \"#utility.yul\":19779:19793   */\n      add\n        /* \"#utility.yul\":19772:19828   */\n      mstore\n        /* \"#utility.yul\":19655:19835   */\n      pop\n      jump\t// out\n        /* \"#utility.yul\":19841:20207   */\n    tag_256:\n        /* \"#utility.yul\":19983:19986   */\n      0x00\n        /* \"#utility.yul\":20004:20071   */\n      tag_438\n        /* \"#utility.yul\":20068:20070   */\n      0x1e\n        /* \"#utility.yul\":20063:20066   */\n      dup4\n        /* \"#utility.yul\":20004:20071   */\n      tag_217\n      jump\t// in\n    tag_438:\n        /* \"#utility.yul\":19997:20071   */\n      swap2\n      pop\n        /* \"#utility.yul\":20080:20173   */\n      tag_439\n        /* \"#utility.yul\":20169:20172   */\n      dup3\n        /* \"#utility.yul\":20080:20173   */\n      tag_255\n      jump\t// in\n    tag_439:\n        /* \"#utility.yul\":20198:20200   */\n      0x20\n        /* \"#utility.yul\":20193:20196   */\n      dup3\n        /* \"#utility.yul\":20189:20201   */\n      add\n        /* \"#utility.yul\":20182:20201   */\n      swap1\n      pop\n        /* \"#utility.yul\":19841:20207   */\n      swap2\n      swap1\n      pop\n      jump\t// out\n        /* \"#utility.yul\":20213:20632   */\n    tag_128:\n        /* \"#utility.yul\":20379:20383   */\n      0x00\n        /* \"#utility.yul\":20417:20419   */\n      0x20\n        /* \"#utility.yul\":20406:20415   */\n      dup3\n        /* \"#utility.yul\":20402:20420   */\n      add\n        /* \"#utility.yul\":20394:20420   */\n      swap1\n      pop\n        /* \"#utility.yul\":20466:20475   */\n      dup2\n        /* \"#utility.yul\":20460:20464   */\n      dup2\n        /* \"#utility.yul\":20456:20476   */\n      sub\n        /* \"#utility.yul\":20452:20453   */\n      0x00\n        /* \"#utility.yul\":20441:20450   */\n      dup4\n        /* \"#utility.yul\":20437:20454   */\n      add\n        /* \"#utility.yul\":20430:20477   */\n      mstore\n        /* \"#utility.yul\":20494:20625   */\n      tag_441\n        /* \"#utility.yul\":20620:20624   */\n      dup2\n        /* \"#utility.yul\":20494:20625   */\n      tag_256\n      jump\t// in\n    tag_441:\n        /* \"#utility.yul\":20486:20625   */\n      swap1\n      pop\n        /* \"#utility.yul\":20213:20632   */\n      swap2\n      swap1\n      pop\n      jump\t// out\n        /* \"#utility.yul\":20638:20818   */\n    tag_257:\n        /* \"#utility.yul\":20686:20763   */\n      0x4e487b7100000000000000000000000000000000000000000000000000000000\n        /* \"#utility.yul\":20683:20684   */\n      0x00\n        /* \"#utility.yul\":20676:20764   */\n      mstore\n        /* \"#utility.yul\":20783:20787   */\n      0x41\n        /* \"#utility.yul\":20780:20781   */\n      0x04\n        /* \"#utility.yul\":20773:20788   */\n      mstore\n        /* \"#utility.yul\":20807:20811   */\n      0x24\n        /* \"#utility.yul\":20804:20805   */\n      0x00\n        /* \"#utility.yul\":20797:20812   */\n      revert\n        /* \"#utility.yul\":20824:20965   */\n    tag_258:\n        /* \"#utility.yul\":20873:20877   */\n      0x00\n        /* \"#utility.yul\":20896:20899   */\n      dup2\n        /* \"#utility.yul\":20888:20899   */\n      swap1\n      pop\n        /* \"#utility.yul\":20919:20922   */\n      dup2\n        /* \"#utility.yul\":20916:20917   */\n      0x00\n        /* \"#utility.yul\":20909:20923   */\n      mstore\n        /* \"#utility.yul\":20953:20957   */\n      0x20\n        /* \"#utility.yul\":20950:20951   */\n      0x00\n        /* \"#utility.yul\":20940:20958   */\n      keccak256\n        /* \"#utility.yul\":20932:20958   */\n      swap1\n      pop\n        /* \"#utility.yul\":20824:20965   */\n      swap2\n      swap1\n      pop\n      jump\t// out\n        /* \"#utility.yul\":20971:21064   */\n    tag_259:\n        /* \"#utility.yul\":21008:21014   */\n      0x00\n        /* \"#utility.yul\":21055:21057   */\n      0x20\n        /* \"#utility.yul\":21050:21052   */\n      0x1f\n        /* \"#utility.yul\":21043:21048   */\n      dup4\n        /* \"#utility.yul\":21039:21053   */\n      add\n        /* \"#utility.yul\":21035:21058   */\n      div\n        /* \"#utility.yul\":21025:21058   */\n      swap1\n      pop\n        /* \"#utility.yul\":20971:21064   */\n      swap2\n      swap1\n      pop\n      jump\t// out\n        /* \"#utility.yul\":21070:21177   */\n    tag_260:\n        /* \"#utility.yul\":21114:21122   */\n      0x00\n        /* \"#utility.yul\":21164:21169   */\n      dup3\n        /* \"#utility.yul\":21158:21162   */\n      dup3\n        /* \"#utility.yul\":21154:21170   */\n      shl\n        /* \"#utility.yul\":21133:21170   */\n      swap1\n      pop\n        /* \"#utility.yul\":21070:21177   */\n      swap3\n      swap2\n      pop\n      pop\n      jump\t// out\n        /* \"#utility.yul\":21183:21576   */\n    tag_261:\n        /* \"#utility.yul\":21252:21258   */\n      0x00\n        /* \"#utility.yul\":21302:21303   */\n      0x08\n        /* \"#utility.yul\":21290:21300   */\n      dup4\n        /* \"#utility.yul\":21286:21304   */\n      mul\n        /* \"#utility.yul\":21325:21422   */\n      tag_447\n        /* \"#utility.yul\":21355:21421   */\n      0xffffffffffffffffffffffffffffffffffffffffffffffffffffffffffffffff\n        /* \"#utility.yul\":21344:21353   */\n      dup3\n        /* \"#utility.yul\":21325:21422   */\n      tag_260\n      jump\t// in\n    tag_447:\n        /* \"#utility.yul\":21443:21482   */\n      tag_448\n        /* \"#utility.yul\":21473:21481   */\n      dup7\n        /* \"#utility.yul\":21462:21471   */\n      dup4\n        /* \"#utility.yul\":21443:21482   */\n      tag_260\n      jump\t// in\n    tag_448:\n        /* \"#utility.yul\":21431:21482   */\n      swap6\n      pop\n        /* \"#utility.yul\":21515:21519   */\n      dup1\n        /* \"#utility.yul\":21511:21520   */\n      not\n        /* \"#utility.yul\":21504:21509   */\n      dup5\n        /* \"#utility.yul\":21500:21521   */\n      and\n        /* \"#utility.yul\":21491:21521   */\n      swap4\n      pop\n        /* \"#utility.yul\":21564:21568   */\n      dup1\n        /* \"#utility.yul\":21554:21562   */\n      dup7\n        /* \"#utility.yul\":21550:21569   */\n      and\n        /* \"#utility.yul\":21543:21548   */\n      dup5\n        /* \"#utility.yul\":21540:21570   */\n      or\n        /* \"#utility.yul\":21530:21570   */\n      swap3\n      pop\n        /* \"#utility.yul\":21259:21576   */\n      pop\n      pop\n        /* \"#utility.yul\":21183:21576   */\n      swap4\n      swap3\n      pop\n      pop\n      pop\n      jump\t// out\n        /* \"#utility.yul\":21582:21642   */\n    tag_262:\n        /* \"#utility.yul\":21610:21613   */\n      0x00\n        /* \"#utility.yul\":21631:21636   */\n      dup2\n        /* \"#utility.yul\":21624:21636   */\n      swap1\n      pop\n        /* \"#utility.yul\":21582:21642   */\n      swap2\n      swap1\n      pop\n      jump\t// out\n        /* \"#utility.yul\":21648:21790   */\n    tag_263:\n        /* \"#utility.yul\":21698:21707   */\n      0x00\n        /* \"#utility.yul\":21731:21784   */\n      tag_451\n        /* \"#utility.yul\":21749:21783   */\n      tag_452\n        /* \"#utility.yul\":21758:21782   */\n      tag_453\n        /* \"#utility.yul\":21776:21781   */\n      dup5\n        /* \"#utility.yul\":21758:21782   */\n      tag_212\n      jump\t// in\n    tag_453:\n        /* \"#utility.yul\":21749:21783   */\n      tag_262\n      jump\t// in\n    tag_452:\n        /* \"#utility.yul\":21731:21784   */\n      tag_212\n      jump\t// in\n    tag_451:\n        /* \"#utility.yul\":21718:21784   */\n      swap1\n      pop\n        /* \"#utility.yul\":21648:21790   */\n      swap2\n      swap1\n      pop\n      jump\t// out\n        /* \"#utility.yul\":21796:21871   */\n    tag_264:\n        /* \"#utility.yul\":21839:21842   */\n      0x00\n        /* \"#utility.yul\":21860:21865   */\n      dup2\n        /* \"#utility.yul\":21853:21865   */\n      swap1\n      pop\n        /* \"#utility.yul\":21796:21871   */\n      swap2\n      swap1\n      pop\n      jump\t// out\n        /* \"#utility.yul\":21877:22146   */\n    tag_265:\n        /* \"#utility.yul\":21987:22026   */\n      tag_456\n        /* \"#utility.yul\":22018:22025   */\n      dup4\n        /* \"#utility.yul\":21987:22026   */\n      tag_263\n      jump\t// in\n    tag_456:\n        /* \"#utility.yul\":22048:22139   */\n      tag_457\n        /* \"#utility.yul\":22097:22138   */\n      tag_458\n        /* \"#utility.yul\":22121:22137   */\n      dup3\n        /* \"#utility.yul\":22097:22138   */\n      tag_264\n      jump\t// in\n    tag_458:\n        /* \"#utility.yul\":22089:22095   */\n      dup5\n        /* \"#utility.yul\":22082:22086   */\n      dup5\n        /* \"#utility.yul\":22076:22087   */\n      sload\n        /* \"#utility.yul\":22048:22139   */\n      tag_261\n      jump\t// in\n    tag_457:\n        /* \"#utility.yul\":22042:22046   */\n      dup3\n        /* \"#utility.yul\":22035:22140   */\n      sstore\n        /* \"#utility.yul\":21953:22146   */\n      pop\n        /* \"#utility.yul\":21877:22146   */\n      pop\n      pop\n      pop\n      jump\t// out\n        /* \"#utility.yul\":22152:22225   */\n    tag_266:\n        /* \"#utility.yul\":22197:22200   */\n      0x00\n        /* \"#utility.yul\":22152:22225   */\n      swap1\n      jump\t// out\n        /* \"#utility.yul\":22231:22420   */\n    tag_267:\n        /* \"#utility.yul\":22308:22340   */\n      tag_461\n      tag_266\n      jump\t// in\n    tag_461:\n        /* \"#utility.yul\":22349:22414   */\n      tag_462\n        /* \"#utility.yul\":22407:22413   */\n      dup2\n        /* \"#utility.yul\":22399:22405   */\n      dup5\n        /* \"#utility.yul\":22393:22397   */\n      dup5\n        /* \"#utility.yul\":22349:22414   */\n      tag_265\n      jump\t// in\n    tag_462:\n        /* \"#utility.yul\":22284:22420   */\n      pop\n        /* \"#utility.yul\":22231:22420   */\n      pop\n      pop\n      jump\t// out\n        /* \"#utility.yul\":22426:22612   */\n    tag_268:\n        /* \"#utility.yul\":22486:22606   */\n    tag_464:\n        /* \"#utility.yul\":22503:22506   */\n      dup2\n        /* \"#utility.yul\":22496:22501   */\n      dup2\n        /* \"#utility.yul\":22493:22507   */\n      lt\n        /* \"#utility.yul\":22486:22606   */\n      iszero\n      tag_466\n      jumpi\n        /* \"#utility.yul\":22557:22596   */\n      tag_467\n        /* \"#utility.yul\":22594:22595   */\n      0x00\n        /* \"#utility.yul\":22587:22592   */\n      dup3\n        /* \"#utility.yul\":22557:22596   */\n      tag_267\n      jump\t// in\n    tag_467:\n        /* \"#utility.yul\":22530:22531   */\n      0x01\n        /* \"#utility.yul\":22523:22528   */\n      dup2\n        /* \"#utility.yul\":22519:22532   */\n      add\n        /* \"#utility.yul\":22510:22532   */\n      swap1\n      pop\n        /* \"#utility.yul\":22486:22606   */\n      jump(tag_464)\n    tag_466:\n        /* \"#utility.yul\":22426:22612   */\n      pop\n      pop\n      jump\t// out\n        /* \"#utility.yul\":22618:23161   */\n    tag_269:\n        /* \"#utility.yul\":22719:22721   */\n      0x1f\n        /* \"#utility.yul\":22714:22717   */\n      dup3\n        /* \"#utility.yul\":22711:22722   */\n      gt\n        /* \"#utility.yul\":22708:23154   */\n      iszero\n      tag_469\n      jumpi\n        /* \"#utility.yul\":22753:22791   */\n      tag_470\n        /* \"#utility.yul\":22785:22790   */\n      dup2\n        /* \"#utility.yul\":22753:22791   */\n      tag_258\n      jump\t// in\n    tag_470:\n        /* \"#utility.yul\":22837:22866   */\n      tag_471\n        /* \"#utility.yul\":22855:22865   */\n      dup5\n        /* \"#utility.yul\":22837:22866   */\n      tag_259\n      jump\t// in\n    tag_471:\n        /* \"#utility.yul\":22827:22835   */\n      dup2\n        /* \"#utility.yul\":22823:22867   */\n      add\n        /* \"#utility.yul\":23020:23022   */\n      0x20\n        /* \"#utility.yul\":23008:23018   */\n      dup6\n        /* \"#utility.yul\":23005:23023   */\n      lt\n        /* \"#utility.yul\":23002:23051   */\n      iszero\n      tag_472\n      jumpi\n        /* \"#utility.yul\":23041:23049   */\n      dup2\n        /* \"#utility.yul\":23026:23049   */\n      swap1\n      pop\n        /* \"#utility.yul\":23002:23051   */\n    tag_472:\n        /* \"#utility.yul\":23064:23144   */\n      tag_473\n        /* \"#utility.yul\":23120:23142   */\n      tag_474\n        /* \"#utility.yul\":23138:23141   */\n      dup6\n        /* \"#utility.yul\":23120:23142   */\n      tag_259\n      jump\t// in\n    tag_474:\n        /* \"#utility.yul\":23110:23118   */\n      dup4\n        /* \"#utility.yul\":23106:23143   */\n      add\n        /* \"#utility.yul\":23093:23104   */\n      dup3\n        /* \"#utility.yul\":23064:23144   */\n      tag_268\n      jump\t// in\n    tag_473:\n        /* \"#utility.yul\":22723:23154   */\n      pop\n      pop\n        /* \"#utility.yul\":22708:23154   */\n    tag_469:\n        /* \"#utility.yul\":22618:23161   */\n      pop\n      pop\n      pop\n      jump\t// out\n        /* \"#utility.yul\":23167:23284   */\n    tag_270:\n        /* \"#utility.yul\":23221:23229   */\n      0x00\n        /* \"#utility.yul\":23271:23276   */\n      dup3\n        /* \"#utility.yul\":23265:23269   */\n      dup3\n        /* \"#utility.yul\":23261:23277   */\n      shr\n        /* \"#utility.yul\":23240:23277   */\n      swap1\n      pop\n        /* \"#utility.yul\":23167:23284   */\n      swap3\n      swap2\n      pop\n      pop\n      jump\t// out\n        /* \"#utility.yul\":23290:23459   */\n    tag_271:\n        /* \"#utility.yul\":23334:23340   */\n      0x00\n        /* \"#utility.yul\":23367:23418   */\n      tag_477\n        /* \"#utility.yul\":23415:23416   */\n      0x00\n        /* \"#utility.yul\":23411:23417   */\n      not\n        /* \"#utility.yul\":23403:23408   */\n      dup5\n        /* \"#utility.yul\":23400:23401   */\n      0x08\n        /* \"#utility.yul\":23396:23409   */\n      mul\n        /* \"#utility.yul\":23367:23418   */\n      tag_270\n      jump\t// in\n    tag_477:\n        /* \"#utility.yul\":23363:23419   */\n      not\n        /* \"#utility.yul\":23448:23452   */\n      dup1\n        /* \"#utility.yul\":23442:23446   */\n      dup4\n        /* \"#utility.yul\":23438:23453   */\n      and\n        /* \"#utility.yul\":23428:23453   */\n      swap2\n      pop\n        /* \"#utility.yul\":23341:23459   */\n      pop\n        /* \"#utility.yul\":23290:23459   */\n      swap3\n      swap2\n      pop\n      pop\n      jump\t// out\n        /* \"#utility.yul\":23464:23759   */\n    tag_272:\n        /* \"#utility.yul\":23540:23544   */\n      0x00\n        /* \"#utility.yul\":23686:23715   */\n      tag_479\n        /* \"#utility.yul\":23711:23714   */\n      dup4\n        /* \"#utility.yul\":23705:23709   */\n      dup4\n        /* \"#utility.yul\":23686:23715   */\n      tag_271\n      jump\t// in\n    tag_479:\n        /* \"#utility.yul\":23678:23715   */\n      swap2\n      pop\n        /* \"#utility.yul\":23748:23751   */\n      dup3\n        /* \"#utility.yul\":23745:23746   */\n      0x02\n        /* \"#utility.yul\":23741:23752   */\n      mul\n        /* \"#utility.yul\":23735:23739   */\n      dup3\n        /* \"#utility.yul\":23732:23753   */\n      or\n        /* \"#utility.yul\":23724:23753   */\n      swap1\n      pop\n        /* \"#utility.yul\":23464:23759   */\n      swap3\n      swap2\n      pop\n      pop\n      jump\t// out\n        /* \"#utility.yul\":23764:25159   */\n    tag_131:\n        /* \"#utility.yul\":23881:23918   */\n      tag_481\n        /* \"#utility.yul\":23914:23917   */\n      dup3\n        /* \"#utility.yul\":23881:23918   */\n      tag_216\n      jump\t// in\n    tag_481:\n        /* \"#utility.yul\":23983:24001   */\n      0xffffffffffffffff\n        /* \"#utility.yul\":23975:23981   */\n      dup2\n        /* \"#utility.yul\":23972:24002   */\n      gt\n        /* \"#utility.yul\":23969:24025   */\n      iszero\n      tag_482\n      jumpi\n        /* \"#utility.yul\":24005:24023   */\n      tag_483\n      tag_257\n      jump\t// in\n    tag_483:\n        /* \"#utility.yul\":23969:24025   */\n    tag_482:\n        /* \"#utility.yul\":24049:24087   */\n      tag_484\n        /* \"#utility.yul\":24081:24085   */\n      dup3\n        /* \"#utility.yul\":24075:24086   */\n      sload\n        /* \"#utility.yul\":24049:24087   */\n      tag_91\n      jump\t// in\n    tag_484:\n        /* \"#utility.yul\":24134:24201   */\n      tag_485\n        /* \"#utility.yul\":24194:24200   */\n      dup3\n        /* \"#utility.yul\":24186:24192   */\n      dup3\n        /* \"#utility.yul\":24180:24184   */\n      dup6\n        /* \"#utility.yul\":24134:24201   */\n      tag_269\n      jump\t// in\n    tag_485:\n        /* \"#utility.yul\":24228:24229   */\n      0x00\n        /* \"#utility.yul\":24252:24256   */\n      0x20\n        /* \"#utility.yul\":24239:24256   */\n      swap1\n      pop\n        /* \"#utility.yul\":24284:24286   */\n      0x1f\n        /* \"#utility.yul\":24276:24282   */\n      dup4\n        /* \"#utility.yul\":24273:24287   */\n      gt\n        /* \"#utility.yul\":24301:24302   */\n      0x01\n        /* \"#utility.yul\":24296:24914   */\n      dup2\n      eq\n      tag_487\n      jumpi\n        /* \"#utility.yul\":24958:24959   */\n      0x00\n        /* \"#utility.yul\":24975:24981   */\n      dup5\n        /* \"#utility.yul\":24972:25049   */\n      iszero\n      tag_488\n      jumpi\n        /* \"#utility.yul\":25024:25033   */\n      dup3\n        /* \"#utility.yul\":25019:25022   */\n      dup8\n        /* \"#utility.yul\":25015:25034   */\n      add\n        /* \"#utility.yul\":25009:25035   */\n      mload\n        /* \"#utility.yul\":25000:25035   */\n      swap1\n      pop\n        /* \"#utility.yul\":24972:25049   */\n    tag_488:\n        /* \"#utility.yul\":25075:25142   */\n      tag_489\n        /* \"#utility.yul\":25135:25141   */\n      dup6\n        /* \"#utility.yul\":25128:25133   */\n      dup3\n        /* \"#utility.yul\":25075:25142   */\n      tag_272\n      jump\t// in\n    tag_489:\n        /* \"#utility.yul\":25069:25073   */\n      dup7\n        /* \"#utility.yul\":25062:25143   */\n      sstore\n        /* \"#utility.yul\":24931:25153   */\n      pop\n        /* \"#utility.yul\":24266:25153   */\n      jump(tag_486)\n        /* \"#utility.yul\":24296:24914   */\n    tag_487:\n        /* \"#utility.yul\":24348:24352   */\n      0x1f\n        /* \"#utility.yul\":24344:24353   */\n      not\n        /* \"#utility.yul\":24336:24342   */\n      dup5\n        /* \"#utility.yul\":24332:24354   */\n      and\n        /* \"#utility.yul\":24382:24419   */\n      tag_490\n        /* \"#utility.yul\":24414:24418   */\n      dup7\n        /* \"#utility.yul\":24382:24419   */\n      tag_258\n      jump\t// in\n    tag_490:\n        /* \"#utility.yul\":24441:24442   */\n      0x00\n        /* \"#utility.yul\":24455:24663   */\n    tag_491:\n        /* \"#utility.yul\":24469:24476   */\n      dup3\n        /* \"#utility.yul\":24466:24467   */\n      dup2\n        /* \"#utility.yul\":24463:24477   */\n      lt\n        /* \"#utility.yul\":24455:24663   */\n      iszero\n      tag_493\n      jumpi\n        /* \"#utility.yul\":24548:24557   */\n      dup5\n        /* \"#utility.yul\":24543:24546   */\n      dup10\n        /* \"#utility.yul\":24539:24558   */\n      add\n        /* \"#utility.yul\":24533:24559   */\n      mload\n        /* \"#utility.yul\":24525:24531   */\n      dup3\n        /* \"#utility.yul\":24518:24560   */\n      sstore\n        /* \"#utility.yul\":24599:24600   */\n      0x01\n        /* \"#utility.yul\":24591:24597   */\n      dup3\n        /* \"#utility.yul\":24587:24601   */\n      add\n        /* \"#utility.yul\":24577:24601   */\n      swap2\n      pop\n        /* \"#utility.yul\":24646:24648   */\n      0x20\n        /* \"#utility.yul\":24635:24644   */\n      dup6\n        /* \"#utility.yul\":24631:24649   */\n      add\n        /* \"#utility.yul\":24618:24649   */\n      swap5\n      pop\n        /* \"#utility.yul\":24492:24496   */\n      0x20\n        /* \"#utility.yul\":24489:24490   */\n      dup2\n        /* \"#utility.yul\":24485:24497   */\n      add\n        /* \"#utility.yul\":24480:24497   */\n      swap1\n      pop\n        /* \"#utility.yul\":24455:24663   */\n      jump(tag_491)\n    tag_493:\n        /* \"#utility.yul\":24691:24697   */\n      dup7\n        /* \"#utility.yul\":24682:24689   */\n      dup4\n        /* \"#utility.yul\":24679:24698   */\n      lt\n        /* \"#utility.yul\":24676:24855   */\n      iszero\n      tag_494\n      jumpi\n        /* \"#utility.yul\":24749:24758   */\n      dup5\n        /* \"#utility.yul\":24744:24747   */\n      dup10\n        /* \"#utility.yul\":24740:24759   */\n      add\n        /* \"#utility.yul\":24734:24760   */\n      mload\n        /* \"#utility.yul\":24792:24840   */\n      tag_495\n        /* \"#utility.yul\":24834:24838   */\n      0x1f\n        /* \"#utility.yul\":24826:24832   */\n      dup10\n        /* \"#utility.yul\":24822:24839   */\n      and\n        /* \"#utility.yul\":24811:24820   */\n      dup3\n        /* \"#utility.yul\":24792:24840   */\n      tag_271\n      jump\t// in\n    tag_495:\n        /* \"#utility.yul\":24784:24790   */\n      dup4\n        /* \"#utility.yul\":24777:24841   */\n      sstore\n        /* \"#utility.yul\":24699:24855   */\n      pop\n        /* \"#utility.yul\":24676:24855   */\n    tag_494:\n        /* \"#utility.yul\":24901:24902   */\n      0x01\n        /* \"#utility.yul\":24897:24898   */\n      0x02\n        /* \"#utility.yul\":24889:24895   */\n      dup9\n        /* \"#utility.yul\":24885:24899   */\n      mul\n        /* \"#utility.yul\":24881:24903   */\n      add\n        /* \"#utility.yul\":24875:24879   */\n      dup9\n        /* \"#utility.yul\":24868:24904   */\n      sstore\n        /* \"#utility.yul\":24303:24914   */\n      pop\n      pop\n      pop\n        /* \"#utility.yul\":24266:25153   */\n    tag_486:\n      pop\n        /* \"#utility.yul\":23856:25159   */\n      pop\n      pop\n      pop\n        /* \"#utility.yul\":23764:25159   */\n      pop\n      pop\n      jump\t// out\n        /* \"#utility.yul\":25165:25313   */\n    tag_273:\n        /* \"#utility.yul\":25263:25269   */\n      dup3\n        /* \"#utility.yul\":25258:25261   */\n      dup2\n        /* \"#utility.yul\":25253:25256   */\n      dup4\n        /* \"#utility.yul\":25240:25270   */\n      calldatacopy\n        /* \"#utility.yul\":25304:25305   */\n      0x00\n        /* \"#utility.yul\":25295:25301   */\n      dup4\n        /* \"#utility.yul\":25290:25293   */\n      dup4\n        /* \"#utility.yul\":25286:25302   */\n      add\n        /* \"#utility.yul\":25279:25306   */\n      mstore\n        /* \"#utility.yul\":25165:25313   */\n      pop\n      pop\n      pop\n      jump\t// out\n        /* \"#utility.yul\":25343:25660   */\n    tag_274:\n        /* \"#utility.yul\":25441:25444   */\n      0x00\n        /* \"#utility.yul\":25462:25533   */\n      tag_498\n        /* \"#utility.yul\":25526:25532   */\n      dup4\n        /* \"#utility.yul\":25521:25524   */\n      dup6\n        /* \"#utility.yul\":25462:25533   */\n      tag_217\n      jump\t// in\n    tag_498:\n        /* \"#utility.yul\":25455:25533   */\n      swap4\n      pop\n        /* \"#utility.yul\":25543:25599   */\n      tag_499\n        /* \"#utility.yul\":25592:25598   */\n      dup4\n        /* \"#utility.yul\":25587:25590   */\n      dup6\n        /* \"#utility.yul\":25580:25585   */\n      dup5\n        /* \"#utility.yul\":25543:25599   */\n      tag_273\n      jump\t// in\n    tag_499:\n        /* \"#utility.yul\":25624:25653   */\n      tag_500\n        /* \"#utility.yul\":25646:25652   */\n      dup4\n        /* \"#utility.yul\":25624:25653   */\n      tag_219\n      jump\t// in\n    tag_500:\n        /* \"#utility.yul\":25619:25622   */\n      dup5\n        /* \"#utility.yul\":25615:25654   */\n      add\n        /* \"#utility.yul\":25608:25654   */\n      swap1\n      pop\n        /* \"#utility.yul\":25343:25660   */\n      swap4\n      swap3\n      pop\n      pop\n      pop\n      jump\t// out\n        /* \"#utility.yul\":25666:25999   */\n    tag_133:\n        /* \"#utility.yul\":25789:25793   */\n      0x00\n        /* \"#utility.yul\":25827:25829   */\n      0x20\n        /* \"#utility.yul\":25816:25825   */\n      dup3\n        /* \"#utility.yul\":25812:25830   */\n      add\n        /* \"#utility.yul\":25804:25830   */\n      swap1\n      pop\n        /* \"#utility.yul\":25876:25885   */\n      dup2\n        /* \"#utility.yul\":25870:25874   */\n      dup2\n        /* \"#utility.yul\":25866:25886   */\n      sub\n        /* \"#utility.yul\":25862:25863   */\n      0x00\n        /* \"#utility.yul\":25851:25860   */\n      dup4\n        /* \"#utility.yul\":25847:25864   */\n      add\n        /* \"#utility.yul\":25840:25887   */\n      mstore\n        /* \"#utility.yul\":25904:25992   */\n      tag_502\n        /* \"#utility.yul\":25987:25991   */\n      dup2\n        /* \"#utility.yul\":25978:25984   */\n      dup5\n        /* \"#utility.yul\":25970:25976   */\n      dup7\n        /* \"#utility.yul\":25904:25992   */\n      tag_274\n      jump\t// in\n    tag_502:\n        /* \"#utility.yul\":25896:25992   */\n      swap1\n      pop\n        /* \"#utility.yul\":25666:25999   */\n      swap4\n      swap3\n      pop\n      pop\n      pop\n      jump\t// out\n        /* \"#utility.yul\":26005:26448   */\n    tag_138:\n        /* \"#utility.yul\":26156:26160   */\n      0x00\n        /* \"#utility.yul\":26194:26196   */\n      0x40\n        /* \"#utility.yul\":26183:26192   */\n      dup3\n        /* \"#utility.yul\":26179:26197   */\n      add\n        /* \"#utility.yul\":26171:26197   */\n      swap1\n      pop\n        /* \"#utility.yul\":26243:26252   */\n      dup2\n        /* \"#utility.yul\":26237:26241   */\n      dup2\n        /* \"#utility.yul\":26233:26253   */\n      sub\n        /* \"#utility.yul\":26229:26230   */\n      0x00\n        /* \"#utility.yul\":26218:26227   */\n      dup4\n        /* \"#utility.yul\":26214:26231   */\n      add\n        /* \"#utility.yul\":26207:26254   */\n      mstore\n        /* \"#utility.yul\":26271:26359   */\n      tag_504\n        /* \"#utility.yul\":26354:26358   */\n      dup2\n        /* \"#utility.yul\":26345:26351   */\n      dup6\n        /* \"#utility.yul\":26337:26343   */\n      dup8\n        /* \"#utility.yul\":26271:26359   */\n      tag_274\n      jump\t// in\n    tag_504:\n        /* \"#utility.yul\":26263:26359   */\n      swap1\n      pop\n        /* \"#utility.yul\":26369:26441   */\n      tag_505\n        /* \"#utility.yul\":26437:26439   */\n      0x20\n        /* \"#utility.yul\":26426:26435   */\n      dup4\n        /* \"#utility.yul\":26422:26440   */\n      add\n        /* \"#utility.yul\":26413:26419   */\n      dup5\n        /* \"#utility.yul\":26369:26441   */\n      tag_221\n      jump\t// in\n    tag_505:\n        /* \"#utility.yul\":26005:26448   */\n      swap5\n      swap4\n      pop\n      pop\n      pop\n      pop\n      jump\t// out\n        /* \"#utility.yul\":26454:26634   */\n    tag_154:\n        /* \"#utility.yul\":26502:26579   */\n      0x4e487b7100000000000000000000000000000000000000000000000000000000\n        /* \"#utility.yul\":26499:26500   */\n      0x00\n        /* \"#utility.yul\":26492:26580   */\n      mstore\n        /* \"#utility.yul\":26599:26603   */\n      0x32\n        /* \"#utility.yul\":26596:26597   */\n      0x04\n        /* \"#utility.yul\":26589:26604   */\n      mstore\n        /* \"#utility.yul\":26623:26627   */\n      0x24\n        /* \"#utility.yul\":26620:26621   */\n      0x00\n        /* \"#utility.yul\":26613:26628   */\n      revert\n        /* \"#utility.yul\":26640:26820   */\n    tag_275:\n        /* \"#utility.yul\":26688:26765   */\n      0x4e487b7100000000000000000000000000000000000000000000000000000000\n        /* \"#utility.yul\":26685:26686   */\n      0x00\n        /* \"#utility.yul\":26678:26766   */\n      mstore\n        /* \"#utility.yul\":26785:26789   */\n      0x11\n        /* \"#utility.yul\":26782:26783   */\n      0x04\n        /* \"#utility.yul\":26775:26790   */\n      mstore\n        /* \"#utility.yul\":26809:26813   */\n      0x24\n        /* \"#utility.yul\":26806:26807   */\n      0x00\n        /* \"#utility.yul\":26799:26814   */\n      revert\n        /* \"#utility.yul\":26826:27020   */\n    tag_158:\n        /* \"#utility.yul\":26866:26870   */\n      0x00\n        /* \"#utility.yul\":26886:26906   */\n      tag_509\n        /* \"#utility.yul\":26904:26905   */\n      dup3\n        /* \"#utility.yul\":26886:26906   */\n      tag_212\n      jump\t// in\n    tag_509:\n        /* \"#utility.yul\":26881:26906   */\n      swap2\n      pop\n        /* \"#utility.yul\":26920:26940   */\n      tag_510\n        /* \"#utility.yul\":26938:26939   */\n      dup4\n        /* \"#utility.yul\":26920:26940   */\n      tag_212\n      jump\t// in\n    tag_510:\n        /* \"#utility.yul\":26915:26940   */\n      swap3\n      pop\n        /* \"#utility.yul\":26964:26965   */\n      dup3\n        /* \"#utility.yul\":26961:26962   */\n      dup3\n        /* \"#utility.yul\":26957:26966   */\n      sub\n        /* \"#utility.yul\":26949:26966   */\n      swap1\n      pop\n        /* \"#utility.yul\":26988:26989   */\n      dup2\n        /* \"#utility.yul\":26982:26986   */\n      dup2\n        /* \"#utility.yul\":26979:26990   */\n      gt\n        /* \"#utility.yul\":26976:27013   */\n      iszero\n      tag_511\n      jumpi\n        /* \"#utility.yul\":26993:27011   */\n      tag_512\n      tag_275\n      jump\t// in\n    tag_512:\n        /* \"#utility.yul\":26976:27013   */\n    tag_511:\n        /* \"#utility.yul\":26826:27020   */\n      swap3\n      swap2\n      pop\n      pop\n      jump\t// out\n        /* \"#utility.yul\":27026:27206   */\n    tag_167:\n        /* \"#utility.yul\":27074:27151   */\n      0x4e487b7100000000000000000000000000000000000000000000000000000000\n        /* \"#utility.yul\":27071:27072   */\n      0x00\n        /* \"#utility.yul\":27064:27152   */\n      mstore\n        /* \"#utility.yul\":27171:27175   */\n      0x31\n        /* \"#utility.yul\":27168:27169   */\n      0x04\n        /* \"#utility.yul\":27161:27176   */\n      mstore\n        /* \"#utility.yul\":27195:27199   */\n      0x24\n        /* \"#utility.yul\":27192:27193   */\n      0x00\n        /* \"#utility.yul\":27185:27200   */\n      revert\n\n    auxdata: 0xa2646970667358221220d01250ca01530d422f6c2e1a226b0d3392dee4266c772e41ed5d5c83ba50f82f64736f6c634300081a0033\n}\n",
				"bytecode": {
					"linkReferences": {},
					"object": "6080604052348015600e575f80fd5b5061234b8061001c5f395ff3fe608060405234801561000f575f80fd5b50600436106100b2575f3560e01c80635ff6cbf31161006f5780635ff6cbf31461019b5780639b85cf99146101b9578063bac7129a146101ec578063c48d6d5e1461021c578063fb46d4c514610238578063fc86741f14610254576100b2565b8063015a4ead146100b657806301fc9e67146100d25780630ae5e739146101025780633508b1f51461011e5780634af88ddf1461014e5780634dbf27cc1461017f575b5f80fd5b6100d060048036038101906100cb91906116ef565b610272565b005b6100ec60048036038101906100e7919061174d565b610350565b6040516100f9919061179a565b60405180910390f35b61011c600480360381019061011791906116ef565b610398565b005b6101386004803603810190610133919061174d565b610548565b604051610145919061179a565b60405180910390f35b6101686004803603810190610163919061174d565b610590565b604051610176929190611832565b60405180910390f35b610199600480360381019061019491906116ef565b61064f565b005b6101a361089a565b6040516101b091906119e1565b60405180910390f35b6101d360048036038101906101ce919061174d565b610a74565b6040516101e39493929190611a01565b60405180910390f35b6102066004803603810190610201919061174d565b610b7e565b604051610213919061179a565b60405180910390f35b61023660048036038101906102319190611aac565b610bc6565b005b610252600480360381019061024d9190611b09565b610e3f565b005b61025c610f6f565b6040516102699190611c49565b60405180910390f35b3373ffffffffffffffffffffffffffffffffffffffff168173ffffffffffffffffffffffffffffffffffffffff16036102e0576040517f08c379a00000000000000000000000000000000000000000000000000000000081526004016102d790611cb3565b60405180910390fd5b6102e98161109e565b6102f33382611256565b8073ffffffffffffffffffffffffffffffffffffffff163373ffffffffffffffffffffffffffffffffffffffff167fe7339343c6edff57f2d15278c419523844cea30ae5ee2146aa22cb9e3107dab760405160405180910390a350565b6001602052815f5260405f208181548110610369575f80fd5b905f5260205f20015f915091509054906101000a900473ffffffffffffffffffffffffffffffffffffffff1681565b3373ffffffffffffffffffffffffffffffffffffffff168173ffffffffffffffffffffffffffffffffffffffff1603610406576040517f08c379a00000000000000000000000000000000000000000000000000000000081526004016103fd90611d1b565b60405180910390fd5b610410338261140f565b15610450576040517f08c379a000000000000000000000000000000000000000000000000000000000815260040161044790611d83565b60405180910390fd5b60045f3373ffffffffffffffffffffffffffffffffffffffff1673ffffffffffffffffffffffffffffffffffffffff1681526020019081526020015f2081908060018154018082558091505060019003905f5260205f20015f9091909190916101000a81548173ffffffffffffffffffffffffffffffffffffffff021916908373ffffffffffffffffffffffffffffffffffffffff1602179055508073ffffffffffffffffffffffffffffffffffffffff163373ffffffffffffffffffffffffffffffffffffffff167f9f520b3bfc56d06f7065d10b4683b3f57ac8895d5026cd176dee95ce1454cb8d60405160405180910390a350565b6002602052815f5260405f208181548110610561575f80fd5b905f5260205f20015f915091509054906101000a900473ffffffffffffffffffffffffffffffffffffffff1681565b5f602052815f5260405f2081815481106105a8575f80fd5b905f5260205f2090600202015f9150915050805f0180546105c890611dce565b80601f01602080910402602001604051908101604052809291908181526020018280546105f490611dce565b801561063f5780601f106106165761010080835404028352916020019161063f565b820191905f5260205f20905b81548152906001019060200180831161062257829003601f168201915b5050505050908060010154905082565b3373ffffffffffffffffffffffffffffffffffffffff168173ffffffffffffffffffffffffffffffffffffffff16036106bd576040517f08c379a00000000000000000000000000000000000000000000000000000000081526004016106b490611e48565b60405180910390fd5b6106c7338261154e565b15610707576040517f08c379a00000000000000000000000000000000000000000000000000000000081526004016106fe90611eb0565b60405180910390fd5b60015f8273ffffffffffffffffffffffffffffffffffffffff1673ffffffffffffffffffffffffffffffffffffffff1681526020019081526020015f2033908060018154018082558091505060019003905f5260205f20015f9091909190916101000a81548173ffffffffffffffffffffffffffffffffffffffff021916908373ffffffffffffffffffffffffffffffffffffffff16021790555060025f3373ffffffffffffffffffffffffffffffffffffffff1673ffffffffffffffffffffffffffffffffffffffff1681526020019081526020015f2081908060018154018082558091505060019003905f5260205f20015f9091909190916101000a81548173ffffffffffffffffffffffffffffffffffffffff021916908373ffffffffffffffffffffffffffffffffffffffff1602179055508073ffffffffffffffffffffffffffffffffffffffff163373ffffffffffffffffffffffffffffffffffffffff167f30b3435b456f45779984ddfa456115ee4c20d9e446979b1b9e90dbb7e12b90b760405160405180910390a350565b606060035f3373ffffffffffffffffffffffffffffffffffffffff1673ffffffffffffffffffffffffffffffffffffffff1681526020019081526020015f20805480602002602001604051908101604052809291908181526020015f905b82821015610a6b578382905f5260205f2090600402016040518060800160405290815f8201805461092890611dce565b80601f016020809104026020016040519081016040528092919081815260200182805461095490611dce565b801561099f5780601f106109765761010080835404028352916020019161099f565b820191905f5260205f20905b81548152906001019060200180831161098257829003601f168201915b50505050508152602001600182015f9054906101000a900473ffffffffffffffffffffffffffffffffffffffff1673ffffffffffffffffffffffffffffffffffffffff1673ffffffffffffffffffffffffffffffffffffffff168152602001600282015f9054906101000a900473ffffffffffffffffffffffffffffffffffffffff1673ffffffffffffffffffffffffffffffffffffffff1673ffffffffffffffffffffffffffffffffffffffff168152602001600382015481525050815260200190600101906108f8565b50505050905090565b6003602052815f5260405f208181548110610a8d575f80fd5b905f5260205f2090600402015f9150915050805f018054610aad90611dce565b80601f0160208091040260200160405190810160405280929190818152602001828054610ad990611dce565b8015610b245780601f10610afb57610100808354040283529160200191610b24565b820191905f5260205f20905b815481529060010190602001808311610b0757829003601f168201915b505050505090806001015f9054906101000a900473ffffffffffffffffffffffffffffffffffffffff1690806002015f9054906101000a900473ffffffffffffffffffffffffffffffffffffffff16908060030154905084565b6004602052815f5260405f208181548110610b97575f80fd5b905f5260205f20015f915091509054906101000a900473ffffffffffffffffffffffffffffffffffffffff1681565b3373ffffffffffffffffffffffffffffffffffffffff168173ffffffffffffffffffffffffffffffffffffffff1603610c34576040517f08c379a0000000000000000000000000000000000000000000000000000000008152600401610c2b90611f18565b60405180910390fd5b60035f8273ffffffffffffffffffffffffffffffffffffffff1673ffffffffffffffffffffffffffffffffffffffff1681526020019081526020015f20604051806080016040528085858080601f0160208091040260200160405190810160405280939291908181526020018383808284375f81840152601f19601f8201169050808301925050505050505081526020013373ffffffffffffffffffffffffffffffffffffffff1681526020018373ffffffffffffffffffffffffffffffffffffffff16815260200142815250908060018154018082558091505060019003905f5260205f2090600402015f909190919091505f820151815f019081610d3a9190612100565b506020820151816001015f6101000a81548173ffffffffffffffffffffffffffffffffffffffff021916908373ffffffffffffffffffffffffffffffffffffffff1602179055506040820151816002015f6101000a81548173ffffffffffffffffffffffffffffffffffffffff021916908373ffffffffffffffffffffffffffffffffffffffff1602179055506060820151816003015550508073ffffffffffffffffffffffffffffffffffffffff163373ffffffffffffffffffffffffffffffffffffffff167fe2cf7446a11cbcd14cd99ea3a1bb77fb7653a64f4064d660140b5100d001e13c8585604051610e32929190612209565b60405180910390a3505050565b5f803373ffffffffffffffffffffffffffffffffffffffff1673ffffffffffffffffffffffffffffffffffffffff1681526020019081526020015f20604051806040016040528084848080601f0160208091040260200160405190810160405280939291908181526020018383808284375f81840152601f19601f82011690508083019250505050505050815260200142815250908060018154018082558091505060019003905f5260205f2090600202015f909190919091505f820151815f019081610f0c9190612100565b506020820151816001015550503373ffffffffffffffffffffffffffffffffffffffff167f79365ad4f87bfb12e1f7390d6e6128c39800a8d6b51bdea21fdf11520480a887838342604051610f639392919061222b565b60405180910390a25050565b60605f803373ffffffffffffffffffffffffffffffffffffffff1673ffffffffffffffffffffffffffffffffffffffff1681526020019081526020015f20805480602002602001604051908101604052809291908181526020015f905b82821015611095578382905f5260205f2090600202016040518060400160405290815f82018054610ffc90611dce565b80601f016020809104026020016040519081016040528092919081815260200182805461102890611dce565b80156110735780601f1061104a57610100808354040283529160200191611073565b820191905f5260205f20905b81548152906001019060200180831161105657829003601f168201915b5050505050815260200160018201548152505081526020019060010190610fcc565b50505050905090565b5f60015f8373ffffffffffffffffffffffffffffffffffffffff1673ffffffffffffffffffffffffffffffffffffffff1681526020019081526020015f2090505f5b8180549050811015611251573373ffffffffffffffffffffffffffffffffffffffff168282815481106111165761111561225b565b5b905f5260205f20015f9054906101000a900473ffffffffffffffffffffffffffffffffffffffff1673ffffffffffffffffffffffffffffffffffffffff160361124457816001838054905061116b91906122b5565b8154811061117c5761117b61225b565b5b905f5260205f20015f9054906101000a900473ffffffffffffffffffffffffffffffffffffffff168282815481106111b7576111b661225b565b5b905f5260205f20015f6101000a81548173ffffffffffffffffffffffffffffffffffffffff021916908373ffffffffffffffffffffffffffffffffffffffff1602179055508180548061120d5761120c6122e8565b5b600190038181905f5260205f20015f6101000a81549073ffffffffffffffffffffffffffffffffffffffff02191690559055611251565b80806001019150506110e0565b505050565b5f60025f8473ffffffffffffffffffffffffffffffffffffffff1673ffffffffffffffffffffffffffffffffffffffff1681526020019081526020015f2090505f5b8180549050811015611409578273ffffffffffffffffffffffffffffffffffffffff168282815481106112ce576112cd61225b565b5b905f5260205f20015f9054906101000a900473ffffffffffffffffffffffffffffffffffffffff1673ffffffffffffffffffffffffffffffffffffffff16036113fc57816001838054905061132391906122b5565b815481106113345761133361225b565b5b905f5260205f20015f9054906101000a900473ffffffffffffffffffffffffffffffffffffffff1682828154811061136f5761136e61225b565b5b905f5260205f20015f6101000a81548173ffffffffffffffffffffffffffffffffffffffff021916908373ffffffffffffffffffffffffffffffffffffffff160217905550818054806113c5576113c46122e8565b5b600190038181905f5260205f20015f6101000a81549073ffffffffffffffffffffffffffffffffffffffff02191690559055611409565b8080600101915050611298565b50505050565b5f8060045f8573ffffffffffffffffffffffffffffffffffffffff1673ffffffffffffffffffffffffffffffffffffffff1681526020019081526020015f208054806020026020016040519081016040528092919081815260200182805480156114cb57602002820191905f5260205f20905b815f9054906101000a900473ffffffffffffffffffffffffffffffffffffffff1673ffffffffffffffffffffffffffffffffffffffff1681526020019060010190808311611482575b505050505090505f5b8151811015611542578373ffffffffffffffffffffffffffffffffffffffff168282815181106115075761150661225b565b5b602002602001015173ffffffffffffffffffffffffffffffffffffffff160361153557600192505050611548565b80806001019150506114d4565b505f9150505b92915050565b5f8060025f8573ffffffffffffffffffffffffffffffffffffffff1673ffffffffffffffffffffffffffffffffffffffff1681526020019081526020015f2080548060200260200160405190810160405280929190818152602001828054801561160a57602002820191905f5260205f20905b815f9054906101000a900473ffffffffffffffffffffffffffffffffffffffff1673ffffffffffffffffffffffffffffffffffffffff16815260200190600101908083116115c1575b505050505090505f5b8151811015611681578373ffffffffffffffffffffffffffffffffffffffff168282815181106116465761164561225b565b5b602002602001015173ffffffffffffffffffffffffffffffffffffffff160361167457600192505050611687565b8080600101915050611613565b505f9150505b92915050565b5f80fd5b5f80fd5b5f73ffffffffffffffffffffffffffffffffffffffff82169050919050565b5f6116be82611695565b9050919050565b6116ce816116b4565b81146116d8575f80fd5b50565b5f813590506116e9816116c5565b92915050565b5f602082840312156117045761170361168d565b5b5f611711848285016116db565b91505092915050565b5f819050919050565b61172c8161171a565b8114611736575f80fd5b50565b5f8135905061174781611723565b92915050565b5f80604083850312156117635761176261168d565b5b5f611770858286016116db565b925050602061178185828601611739565b9150509250929050565b611794816116b4565b82525050565b5f6020820190506117ad5f83018461178b565b92915050565b5f81519050919050565b5f82825260208201905092915050565b8281835e5f83830152505050565b5f601f19601f8301169050919050565b5f6117f5826117b3565b6117ff81856117bd565b935061180f8185602086016117cd565b611818816117db565b840191505092915050565b61182c8161171a565b82525050565b5f6040820190508181035f83015261184a81856117eb565b90506118596020830184611823565b9392505050565b5f81519050919050565b5f82825260208201905092915050565b5f819050602082019050919050565b5f82825260208201905092915050565b5f6118a3826117b3565b6118ad8185611889565b93506118bd8185602086016117cd565b6118c6816117db565b840191505092915050565b6118da816116b4565b82525050565b6118e98161171a565b82525050565b5f608083015f8301518482035f8601526119098282611899565b915050602083015161191e60208601826118d1565b50604083015161193160408601826118d1565b50606083015161194460608601826118e0565b508091505092915050565b5f61195a83836118ef565b905092915050565b5f602082019050919050565b5f61197882611860565b611982818561186a565b9350836020820285016119948561187a565b805f5b858110156119cf57848403895281516119b0858261194f565b94506119bb83611962565b925060208a01995050600181019050611997565b50829750879550505050505092915050565b5f6020820190508181035f8301526119f9818461196e565b905092915050565b5f6080820190508181035f830152611a1981876117eb565b9050611a28602083018661178b565b611a35604083018561178b565b611a426060830184611823565b95945050505050565b5f80fd5b5f80fd5b5f80fd5b5f8083601f840112611a6c57611a6b611a4b565b5b8235905067ffffffffffffffff811115611a8957611a88611a4f565b5b602083019150836001820283011115611aa557611aa4611a53565b5b9250929050565b5f805f60408486031215611ac357611ac261168d565b5b5f84013567ffffffffffffffff811115611ae057611adf611691565b5b611aec86828701611a57565b93509350506020611aff868287016116db565b9150509250925092565b5f8060208385031215611b1f57611b1e61168d565b5b5f83013567ffffffffffffffff811115611b3c57611b3b611691565b5b611b4885828601611a57565b92509250509250929050565b5f81519050919050565b5f82825260208201905092915050565b5f819050602082019050919050565b5f604083015f8301518482035f860152611b978282611899565b9150506020830151611bac60208601826118e0565b508091505092915050565b5f611bc28383611b7d565b905092915050565b5f602082019050919050565b5f611be082611b54565b611bea8185611b5e565b935083602082028501611bfc85611b6e565b805f5b85811015611c375784840389528151611c188582611bb7565b9450611c2383611bca565b925060208a01995050600181019050611bff565b50829750879550505050505092915050565b5f6020820190508181035f830152611c618184611bd6565b905092915050565b7f43616e6e6f7420756e666f6c6c6f77206f6e6573656c660000000000000000005f82015250565b5f611c9d6017836117bd565b9150611ca882611c69565b602082019050919050565b5f6020820190508181035f830152611cca81611c91565b9050919050565b7f43616e6e6f74206772616e742061636365737320746f206f6e6573656c6600005f82015250565b5f611d05601e836117bd565b9150611d1082611cd1565b602082019050919050565b5f6020820190508181035f830152611d3281611cf9565b9050919050565b7f41636365737320616c7265616479206772616e746564000000000000000000005f82015250565b5f611d6d6016836117bd565b9150611d7882611d39565b602082019050919050565b5f6020820190508181035f830152611d9a81611d61565b9050919050565b7f4e487b71000000000000000000000000000000000000000000000000000000005f52602260045260245ffd5b5f6002820490506001821680611de557607f821691505b602082108103611df857611df7611da1565b5b50919050565b7f43616e6e6f7420666f6c6c6f77206f6e6573656c6600000000000000000000005f82015250565b5f611e326015836117bd565b9150611e3d82611dfe565b602082019050919050565b5f6020820190508181035f830152611e5f81611e26565b9050919050565b7f416c726561647920666f6c6c6f77696e672074686973207573657200000000005f82015250565b5f611e9a601b836117bd565b9150611ea582611e66565b602082019050919050565b5f6020820190508181035f830152611ec781611e8e565b9050919050565b7f43616e6e6f742073656e64206d65737361676520746f206f6e6573656c6600005f82015250565b5f611f02601e836117bd565b9150611f0d82611ece565b602082019050919050565b5f6020820190508181035f830152611f2f81611ef6565b9050919050565b7f4e487b71000000000000000000000000000000000000000000000000000000005f52604160045260245ffd5b5f819050815f5260205f209050919050565b5f6020601f8301049050919050565b5f82821b905092915050565b5f60088302611fbf7fffffffffffffffffffffffffffffffffffffffffffffffffffffffffffffffff82611f84565b611fc98683611f84565b95508019841693508086168417925050509392505050565b5f819050919050565b5f612004611fff611ffa8461171a565b611fe1565b61171a565b9050919050565b5f819050919050565b61201d83611fea565b6120316120298261200b565b848454611f90565b825550505050565b5f90565b612045612039565b612050818484612014565b505050565b5b81811015612073576120685f8261203d565b600181019050612056565b5050565b601f8211156120b85761208981611f63565b61209284611f75565b810160208510156120a1578190505b6120b56120ad85611f75565b830182612055565b50505b505050565b5f82821c905092915050565b5f6120d85f19846008026120bd565b1980831691505092915050565b5f6120f083836120c9565b9150826002028217905092915050565b612109826117b3565b67ffffffffffffffff81111561212257612121611f36565b5b61212c8254611dce565b612137828285612077565b5f60209050601f831160018114612168575f8415612156578287015190505b61216085826120e5565b8655506121c7565b601f19841661217686611f63565b5f5b8281101561219d57848901518255600182019150602085019450602081019050612178565b868310156121ba57848901516121b6601f8916826120c9565b8355505b6001600288020188555050505b505050505050565b828183375f83830152505050565b5f6121e883856117bd565b93506121f58385846121cf565b6121fe836117db565b840190509392505050565b5f6020820190508181035f8301526122228184866121dd565b90509392505050565b5f6040820190508181035f8301526122448185876121dd565b90506122536020830184611823565b949350505050565b7f4e487b71000000000000000000000000000000000000000000000000000000005f52603260045260245ffd5b7f4e487b71000000000000000000000000000000000000000000000000000000005f52601160045260245ffd5b5f6122bf8261171a565b91506122ca8361171a565b92508282039050818111156122e2576122e1612288565b5b92915050565b7f4e487b71000000000000000000000000000000000000000000000000000000005f52603160045260245ffdfea2646970667358221220d01250ca01530d422f6c2e1a226b0d3392dee4266c772e41ed5d5c83ba50f82f64736f6c634300081a0033",
					"opcodes": "PUSH1 0x80 PUSH1 0x40 MSTORE CALLVALUE DUP1 ISZERO PUSH1 0xE JUMPI PUSH0 DUP1 REVERT JUMPDEST POP PUSH2 0x234B DUP1 PUSH2 0x1C PUSH0 CODECOPY PUSH0 RETURN INVALID PUSH1 0x80 PUSH1 0x40 MSTORE CALLVALUE DUP1 ISZERO PUSH2 0xF JUMPI PUSH0 DUP1 REVERT JUMPDEST POP PUSH1 0x4 CALLDATASIZE LT PUSH2 0xB2 JUMPI PUSH0 CALLDATALOAD PUSH1 0xE0 SHR DUP1 PUSH4 0x5FF6CBF3 GT PUSH2 0x6F JUMPI DUP1 PUSH4 0x5FF6CBF3 EQ PUSH2 0x19B JUMPI DUP1 PUSH4 0x9B85CF99 EQ PUSH2 0x1B9 JUMPI DUP1 PUSH4 0xBAC7129A EQ PUSH2 0x1EC JUMPI DUP1 PUSH4 0xC48D6D5E EQ PUSH2 0x21C JUMPI DUP1 PUSH4 0xFB46D4C5 EQ PUSH2 0x238 JUMPI DUP1 PUSH4 0xFC86741F EQ PUSH2 0x254 JUMPI PUSH2 0xB2 JUMP JUMPDEST DUP1 PUSH4 0x15A4EAD EQ PUSH2 0xB6 JUMPI DUP1 PUSH4 0x1FC9E67 EQ PUSH2 0xD2 JUMPI DUP1 PUSH4 0xAE5E739 EQ PUSH2 0x102 JUMPI DUP1 PUSH4 0x3508B1F5 EQ PUSH2 0x11E JUMPI DUP1 PUSH4 0x4AF88DDF EQ PUSH2 0x14E JUMPI DUP1 PUSH4 0x4DBF27CC EQ PUSH2 0x17F JUMPI JUMPDEST PUSH0 DUP1 REVERT JUMPDEST PUSH2 0xD0 PUSH1 0x4 DUP1 CALLDATASIZE SUB DUP2 ADD SWAP1 PUSH2 0xCB SWAP2 SWAP1 PUSH2 0x16EF JUMP JUMPDEST PUSH2 0x272 JUMP JUMPDEST STOP JUMPDEST PUSH2 0xEC PUSH1 0x4 DUP1 CALLDATASIZE SUB DUP2 ADD SWAP1 PUSH2 0xE7 SWAP2 SWAP1 PUSH2 0x174D JUMP JUMPDEST PUSH2 0x350 JUMP JUMPDEST PUSH1 0x40 MLOAD PUSH2 0xF9 SWAP2 SWAP1 PUSH2 0x179A JUMP JUMPDEST PUSH1 0x40 MLOAD DUP1 SWAP2 SUB SWAP1 RETURN JUMPDEST PUSH2 0x11C PUSH1 0x4 DUP1 CALLDATASIZE SUB DUP2 ADD SWAP1 PUSH2 0x117 SWAP2 SWAP1 PUSH2 0x16EF JUMP JUMPDEST PUSH2 0x398 JUMP JUMPDEST STOP JUMPDEST PUSH2 0x138 PUSH1 0x4 DUP1 CALLDATASIZE SUB DUP2 ADD SWAP1 PUSH2 0x133 SWAP2 SWAP1 PUSH2 0x174D JUMP JUMPDEST PUSH2 0x548 JUMP JUMPDEST PUSH1 0x40 MLOAD PUSH2 0x145 SWAP2 SWAP1 PUSH2 0x179A JUMP JUMPDEST PUSH1 0x40 MLOAD DUP1 SWAP2 SUB SWAP1 RETURN JUMPDEST PUSH2 0x168 PUSH1 0x4 DUP1 CALLDATASIZE SUB DUP2 ADD SWAP1 PUSH2 0x163 SWAP2 SWAP1 PUSH2 0x174D JUMP JUMPDEST PUSH2 0x590 JUMP JUMPDEST PUSH1 0x40 MLOAD PUSH2 0x176 SWAP3 SWAP2 SWAP1 PUSH2 0x1832 JUMP JUMPDEST PUSH1 0x40 MLOAD DUP1 SWAP2 SUB SWAP1 RETURN JUMPDEST PUSH2 0x199 PUSH1 0x4 DUP1 CALLDATASIZE SUB DUP2 ADD SWAP1 PUSH2 0x194 SWAP2 SWAP1 PUSH2 0x16EF JUMP JUMPDEST PUSH2 0x64F JUMP JUMPDEST STOP JUMPDEST PUSH2 0x1A3 PUSH2 0x89A JUMP JUMPDEST PUSH1 0x40 MLOAD PUSH2 0x1B0 SWAP2 SWAP1 PUSH2 0x19E1 JUMP JUMPDEST PUSH1 0x40 MLOAD DUP1 SWAP2 SUB SWAP1 RETURN JUMPDEST PUSH2 0x1D3 PUSH1 0x4 DUP1 CALLDATASIZE SUB DUP2 ADD SWAP1 PUSH2 0x1CE SWAP2 SWAP1 PUSH2 0x174D JUMP JUMPDEST PUSH2 0xA74 JUMP JUMPDEST PUSH1 0x40 MLOAD PUSH2 0x1E3 SWAP5 SWAP4 SWAP3 SWAP2 SWAP1 PUSH2 0x1A01 JUMP JUMPDEST PUSH1 0x40 MLOAD DUP1 SWAP2 SUB SWAP1 RETURN JUMPDEST PUSH2 0x206 PUSH1 0x4 DUP1 CALLDATASIZE SUB DUP2 ADD SWAP1 PUSH2 0x201 SWAP2 SWAP1 PUSH2 0x174D JUMP JUMPDEST PUSH2 0xB7E JUMP JUMPDEST PUSH1 0x40 MLOAD PUSH2 0x213 SWAP2 SWAP1 PUSH2 0x179A JUMP JUMPDEST PUSH1 0x40 MLOAD DUP1 SWAP2 SUB SWAP1 RETURN JUMPDEST PUSH2 0x236 PUSH1 0x4 DUP1 CALLDATASIZE SUB DUP2 ADD SWAP1 PUSH2 0x231 SWAP2 SWAP1 PUSH2 0x1AAC JUMP JUMPDEST PUSH2 0xBC6 JUMP JUMPDEST STOP JUMPDEST PUSH2 0x252 PUSH1 0x4 DUP1 CALLDATASIZE SUB DUP2 ADD SWAP1 PUSH2 0x24D SWAP2 SWAP1 PUSH2 0x1B09 JUMP JUMPDEST PUSH2 0xE3F JUMP JUMPDEST STOP JUMPDEST PUSH2 0x25C PUSH2 0xF6F JUMP JUMPDEST PUSH1 0x40 MLOAD PUSH2 0x269 SWAP2 SWAP1 PUSH2 0x1C49 JUMP JUMPDEST PUSH1 0x40 MLOAD DUP1 SWAP2 SUB SWAP1 RETURN JUMPDEST CALLER PUSH20 0xFFFFFFFFFFFFFFFFFFFFFFFFFFFFFFFFFFFFFFFF AND DUP2 PUSH20 0xFFFFFFFFFFFFFFFFFFFFFFFFFFFFFFFFFFFFFFFF AND SUB PUSH2 0x2E0 JUMPI PUSH1 0x40 MLOAD PUSH32 0x8C379A000000000000000000000000000000000000000000000000000000000 DUP2 MSTORE PUSH1 0x4 ADD PUSH2 0x2D7 SWAP1 PUSH2 0x1CB3 JUMP JUMPDEST PUSH1 0x40 MLOAD DUP1 SWAP2 SUB SWAP1 REVERT JUMPDEST PUSH2 0x2E9 DUP2 PUSH2 0x109E JUMP JUMPDEST PUSH2 0x2F3 CALLER DUP3 PUSH2 0x1256 JUMP JUMPDEST DUP1 PUSH20 0xFFFFFFFFFFFFFFFFFFFFFFFFFFFFFFFFFFFFFFFF AND CALLER PUSH20 0xFFFFFFFFFFFFFFFFFFFFFFFFFFFFFFFFFFFFFFFF AND PUSH32 0xE7339343C6EDFF57F2D15278C419523844CEA30AE5EE2146AA22CB9E3107DAB7 PUSH1 0x40 MLOAD PUSH1 0x40 MLOAD DUP1 SWAP2 SUB SWAP1 LOG3 POP JUMP JUMPDEST PUSH1 0x1 PUSH1 0x20 MSTORE DUP2 PUSH0 MSTORE PUSH1 0x40 PUSH0 KECCAK256 DUP2 DUP2 SLOAD DUP2 LT PUSH2 0x369 JUMPI PUSH0 DUP1 REVERT JUMPDEST SWAP1 PUSH0 MSTORE PUSH1 0x20 PUSH0 KECCAK256 ADD PUSH0 SWAP2 POP SWAP2 POP SWAP1 SLOAD SWAP1 PUSH2 0x100 EXP SWAP1 DIV PUSH20 0xFFFFFFFFFFFFFFFFFFFFFFFFFFFFFFFFFFFFFFFF AND DUP2 JUMP JUMPDEST CALLER PUSH20 0xFFFFFFFFFFFFFFFFFFFFFFFFFFFFFFFFFFFFFFFF AND DUP2 PUSH20 0xFFFFFFFFFFFFFFFFFFFFFFFFFFFFFFFFFFFFFFFF AND SUB PUSH2 0x406 JUMPI PUSH1 0x40 MLOAD PUSH32 0x8C379A000000000000000000000000000000000000000000000000000000000 DUP2 MSTORE PUSH1 0x4 ADD PUSH2 0x3FD SWAP1 PUSH2 0x1D1B JUMP JUMPDEST PUSH1 0x40 MLOAD DUP1 SWAP2 SUB SWAP1 REVERT JUMPDEST PUSH2 0x410 CALLER DUP3 PUSH2 0x140F JUMP JUMPDEST ISZERO PUSH2 0x450 JUMPI PUSH1 0x40 MLOAD PUSH32 0x8C379A000000000000000000000000000000000000000000000000000000000 DUP2 MSTORE PUSH1 0x4 ADD PUSH2 0x447 SWAP1 PUSH2 0x1D83 JUMP JUMPDEST PUSH1 0x40 MLOAD DUP1 SWAP2 SUB SWAP1 REVERT JUMPDEST PUSH1 0x4 PUSH0 CALLER PUSH20 0xFFFFFFFFFFFFFFFFFFFFFFFFFFFFFFFFFFFFFFFF AND PUSH20 0xFFFFFFFFFFFFFFFFFFFFFFFFFFFFFFFFFFFFFFFF AND DUP2 MSTORE PUSH1 0x20 ADD SWAP1 DUP2 MSTORE PUSH1 0x20 ADD PUSH0 KECCAK256 DUP2 SWAP1 DUP1 PUSH1 0x1 DUP2 SLOAD ADD DUP1 DUP3 SSTORE DUP1 SWAP2 POP POP PUSH1 0x1 SWAP1 SUB SWAP1 PUSH0 MSTORE PUSH1 0x20 PUSH0 KECCAK256 ADD PUSH0 SWAP1 SWAP2 SWAP1 SWAP2 SWAP1 SWAP2 PUSH2 0x100 EXP DUP2 SLOAD DUP2 PUSH20 0xFFFFFFFFFFFFFFFFFFFFFFFFFFFFFFFFFFFFFFFF MUL NOT AND SWAP1 DUP4 PUSH20 0xFFFFFFFFFFFFFFFFFFFFFFFFFFFFFFFFFFFFFFFF AND MUL OR SWAP1 SSTORE POP DUP1 PUSH20 0xFFFFFFFFFFFFFFFFFFFFFFFFFFFFFFFFFFFFFFFF AND CALLER PUSH20 0xFFFFFFFFFFFFFFFFFFFFFFFFFFFFFFFFFFFFFFFF AND PUSH32 0x9F520B3BFC56D06F7065D10B4683B3F57AC8895D5026CD176DEE95CE1454CB8D PUSH1 0x40 MLOAD PUSH1 0x40 MLOAD DUP1 SWAP2 SUB SWAP1 LOG3 POP JUMP JUMPDEST PUSH1 0x2 PUSH1 0x20 MSTORE DUP2 PUSH0 MSTORE PUSH1 0x40 PUSH0 KECCAK256 DUP2 DUP2 SLOAD DUP2 LT PUSH2 0x561 JUMPI PUSH0 DUP1 REVERT JUMPDEST SWAP1 PUSH0 MSTORE PUSH1 0x20 PUSH0 KECCAK256 ADD PUSH0 SWAP2 POP SWAP2 POP SWAP1 SLOAD SWAP1 PUSH2 0x100 EXP SWAP1 DIV PUSH20 0xFFFFFFFFFFFFFFFFFFFFFFFFFFFFFFFFFFFFFFFF AND DUP2 JUMP JUMPDEST PUSH0 PUSH1 0x20 MSTORE DUP2 PUSH0 MSTORE PUSH1 0x40 PUSH0 KECCAK256 DUP2 DUP2 SLOAD DUP2 LT PUSH2 0x5A8 JUMPI PUSH0 DUP1 REVERT JUMPDEST SWAP1 PUSH0 MSTORE PUSH1 0x20 PUSH0 KECCAK256 SWAP1 PUSH1 0x2 MUL ADD PUSH0 SWAP2 POP SWAP2 POP POP DUP1 PUSH0 ADD DUP1 SLOAD PUSH2 0x5C8 SWAP1 PUSH2 0x1DCE JUMP JUMPDEST DUP1 PUSH1 0x1F ADD PUSH1 0x20 DUP1 SWAP2 DIV MUL PUSH1 0x20 ADD PUSH1 0x40 MLOAD SWAP1 DUP2 ADD PUSH1 0x40 MSTORE DUP1 SWAP3 SWAP2 SWAP1 DUP2 DUP2 MSTORE PUSH1 0x20 ADD DUP3 DUP1 SLOAD PUSH2 0x5F4 SWAP1 PUSH2 0x1DCE JUMP JUMPDEST DUP1 ISZERO PUSH2 0x63F JUMPI DUP1 PUSH1 0x1F LT PUSH2 0x616 JUMPI PUSH2 0x100 DUP1 DUP4 SLOAD DIV MUL DUP4 MSTORE SWAP2 PUSH1 0x20 ADD SWAP2 PUSH2 0x63F JUMP JUMPDEST DUP3 ADD SWAP2 SWAP1 PUSH0 MSTORE PUSH1 0x20 PUSH0 KECCAK256 SWAP1 JUMPDEST DUP2 SLOAD DUP2 MSTORE SWAP1 PUSH1 0x1 ADD SWAP1 PUSH1 0x20 ADD DUP1 DUP4 GT PUSH2 0x622 JUMPI DUP3 SWAP1 SUB PUSH1 0x1F AND DUP3 ADD SWAP2 JUMPDEST POP POP POP POP POP SWAP1 DUP1 PUSH1 0x1 ADD SLOAD SWAP1 POP DUP3 JUMP JUMPDEST CALLER PUSH20 0xFFFFFFFFFFFFFFFFFFFFFFFFFFFFFFFFFFFFFFFF AND DUP2 PUSH20 0xFFFFFFFFFFFFFFFFFFFFFFFFFFFFFFFFFFFFFFFF AND SUB PUSH2 0x6BD JUMPI PUSH1 0x40 MLOAD PUSH32 0x8C379A000000000000000000000000000000000000000000000000000000000 DUP2 MSTORE PUSH1 0x4 ADD PUSH2 0x6B4 SWAP1 PUSH2 0x1E48 JUMP JUMPDEST PUSH1 0x40 MLOAD DUP1 SWAP2 SUB SWAP1 REVERT JUMPDEST PUSH2 0x6C7 CALLER DUP3 PUSH2 0x154E JUMP JUMPDEST ISZERO PUSH2 0x707 JUMPI PUSH1 0x40 MLOAD PUSH32 0x8C379A000000000000000000000000000000000000000000000000000000000 DUP2 MSTORE PUSH1 0x4 ADD PUSH2 0x6FE SWAP1 PUSH2 0x1EB0 JUMP JUMPDEST PUSH1 0x40 MLOAD DUP1 SWAP2 SUB SWAP1 REVERT JUMPDEST PUSH1 0x1 PUSH0 DUP3 PUSH20 0xFFFFFFFFFFFFFFFFFFFFFFFFFFFFFFFFFFFFFFFF AND PUSH20 0xFFFFFFFFFFFFFFFFFFFFFFFFFFFFFFFFFFFFFFFF AND DUP2 MSTORE PUSH1 0x20 ADD SWAP1 DUP2 MSTORE PUSH1 0x20 ADD PUSH0 KECCAK256 CALLER SWAP1 DUP1 PUSH1 0x1 DUP2 SLOAD ADD DUP1 DUP3 SSTORE DUP1 SWAP2 POP POP PUSH1 0x1 SWAP1 SUB SWAP1 PUSH0 MSTORE PUSH1 0x20 PUSH0 KECCAK256 ADD PUSH0 SWAP1 SWAP2 SWAP1 SWAP2 SWAP1 SWAP2 PUSH2 0x100 EXP DUP2 SLOAD DUP2 PUSH20 0xFFFFFFFFFFFFFFFFFFFFFFFFFFFFFFFFFFFFFFFF MUL NOT AND SWAP1 DUP4 PUSH20 0xFFFFFFFFFFFFFFFFFFFFFFFFFFFFFFFFFFFFFFFF AND MUL OR SWAP1 SSTORE POP PUSH1 0x2 PUSH0 CALLER PUSH20 0xFFFFFFFFFFFFFFFFFFFFFFFFFFFFFFFFFFFFFFFF AND PUSH20 0xFFFFFFFFFFFFFFFFFFFFFFFFFFFFFFFFFFFFFFFF AND DUP2 MSTORE PUSH1 0x20 ADD SWAP1 DUP2 MSTORE PUSH1 0x20 ADD PUSH0 KECCAK256 DUP2 SWAP1 DUP1 PUSH1 0x1 DUP2 SLOAD ADD DUP1 DUP3 SSTORE DUP1 SWAP2 POP POP PUSH1 0x1 SWAP1 SUB SWAP1 PUSH0 MSTORE PUSH1 0x20 PUSH0 KECCAK256 ADD PUSH0 SWAP1 SWAP2 SWAP1 SWAP2 SWAP1 SWAP2 PUSH2 0x100 EXP DUP2 SLOAD DUP2 PUSH20 0xFFFFFFFFFFFFFFFFFFFFFFFFFFFFFFFFFFFFFFFF MUL NOT AND SWAP1 DUP4 PUSH20 0xFFFFFFFFFFFFFFFFFFFFFFFFFFFFFFFFFFFFFFFF AND MUL OR SWAP1 SSTORE POP DUP1 PUSH20 0xFFFFFFFFFFFFFFFFFFFFFFFFFFFFFFFFFFFFFFFF AND CALLER PUSH20 0xFFFFFFFFFFFFFFFFFFFFFFFFFFFFFFFFFFFFFFFF AND PUSH32 0x30B3435B456F45779984DDFA456115EE4C20D9E446979B1B9E90DBB7E12B90B7 PUSH1 0x40 MLOAD PUSH1 0x40 MLOAD DUP1 SWAP2 SUB SWAP1 LOG3 POP JUMP JUMPDEST PUSH1 0x60 PUSH1 0x3 PUSH0 CALLER PUSH20 0xFFFFFFFFFFFFFFFFFFFFFFFFFFFFFFFFFFFFFFFF AND PUSH20 0xFFFFFFFFFFFFFFFFFFFFFFFFFFFFFFFFFFFFFFFF AND DUP2 MSTORE PUSH1 0x20 ADD SWAP1 DUP2 MSTORE PUSH1 0x20 ADD PUSH0 KECCAK256 DUP1 SLOAD DUP1 PUSH1 0x20 MUL PUSH1 0x20 ADD PUSH1 0x40 MLOAD SWAP1 DUP2 ADD PUSH1 0x40 MSTORE DUP1 SWAP3 SWAP2 SWAP1 DUP2 DUP2 MSTORE PUSH1 0x20 ADD PUSH0 SWAP1 JUMPDEST DUP3 DUP3 LT ISZERO PUSH2 0xA6B JUMPI DUP4 DUP3 SWAP1 PUSH0 MSTORE PUSH1 0x20 PUSH0 KECCAK256 SWAP1 PUSH1 0x4 MUL ADD PUSH1 0x40 MLOAD DUP1 PUSH1 0x80 ADD PUSH1 0x40 MSTORE SWAP1 DUP2 PUSH0 DUP3 ADD DUP1 SLOAD PUSH2 0x928 SWAP1 PUSH2 0x1DCE JUMP JUMPDEST DUP1 PUSH1 0x1F ADD PUSH1 0x20 DUP1 SWAP2 DIV MUL PUSH1 0x20 ADD PUSH1 0x40 MLOAD SWAP1 DUP2 ADD PUSH1 0x40 MSTORE DUP1 SWAP3 SWAP2 SWAP1 DUP2 DUP2 MSTORE PUSH1 0x20 ADD DUP3 DUP1 SLOAD PUSH2 0x954 SWAP1 PUSH2 0x1DCE JUMP JUMPDEST DUP1 ISZERO PUSH2 0x99F JUMPI DUP1 PUSH1 0x1F LT PUSH2 0x976 JUMPI PUSH2 0x100 DUP1 DUP4 SLOAD DIV MUL DUP4 MSTORE SWAP2 PUSH1 0x20 ADD SWAP2 PUSH2 0x99F JUMP JUMPDEST DUP3 ADD SWAP2 SWAP1 PUSH0 MSTORE PUSH1 0x20 PUSH0 KECCAK256 SWAP1 JUMPDEST DUP2 SLOAD DUP2 MSTORE SWAP1 PUSH1 0x1 ADD SWAP1 PUSH1 0x20 ADD DUP1 DUP4 GT PUSH2 0x982 JUMPI DUP3 SWAP1 SUB PUSH1 0x1F AND DUP3 ADD SWAP2 JUMPDEST POP POP POP POP POP DUP2 MSTORE PUSH1 0x20 ADD PUSH1 0x1 DUP3 ADD PUSH0 SWAP1 SLOAD SWAP1 PUSH2 0x100 EXP SWAP1 DIV PUSH20 0xFFFFFFFFFFFFFFFFFFFFFFFFFFFFFFFFFFFFFFFF AND PUSH20 0xFFFFFFFFFFFFFFFFFFFFFFFFFFFFFFFFFFFFFFFF AND PUSH20 0xFFFFFFFFFFFFFFFFFFFFFFFFFFFFFFFFFFFFFFFF AND DUP2 MSTORE PUSH1 0x20 ADD PUSH1 0x2 DUP3 ADD PUSH0 SWAP1 SLOAD SWAP1 PUSH2 0x100 EXP SWAP1 DIV PUSH20 0xFFFFFFFFFFFFFFFFFFFFFFFFFFFFFFFFFFFFFFFF AND PUSH20 0xFFFFFFFFFFFFFFFFFFFFFFFFFFFFFFFFFFFFFFFF AND PUSH20 0xFFFFFFFFFFFFFFFFFFFFFFFFFFFFFFFFFFFFFFFF AND DUP2 MSTORE PUSH1 0x20 ADD PUSH1 0x3 DUP3 ADD SLOAD DUP2 MSTORE POP POP DUP2 MSTORE PUSH1 0x20 ADD SWAP1 PUSH1 0x1 ADD SWAP1 PUSH2 0x8F8 JUMP JUMPDEST POP POP POP POP SWAP1 POP SWAP1 JUMP JUMPDEST PUSH1 0x3 PUSH1 0x20 MSTORE DUP2 PUSH0 MSTORE PUSH1 0x40 PUSH0 KECCAK256 DUP2 DUP2 SLOAD DUP2 LT PUSH2 0xA8D JUMPI PUSH0 DUP1 REVERT JUMPDEST SWAP1 PUSH0 MSTORE PUSH1 0x20 PUSH0 KECCAK256 SWAP1 PUSH1 0x4 MUL ADD PUSH0 SWAP2 POP SWAP2 POP POP DUP1 PUSH0 ADD DUP1 SLOAD PUSH2 0xAAD SWAP1 PUSH2 0x1DCE JUMP JUMPDEST DUP1 PUSH1 0x1F ADD PUSH1 0x20 DUP1 SWAP2 DIV MUL PUSH1 0x20 ADD PUSH1 0x40 MLOAD SWAP1 DUP2 ADD PUSH1 0x40 MSTORE DUP1 SWAP3 SWAP2 SWAP1 DUP2 DUP2 MSTORE PUSH1 0x20 ADD DUP3 DUP1 SLOAD PUSH2 0xAD9 SWAP1 PUSH2 0x1DCE JUMP JUMPDEST DUP1 ISZERO PUSH2 0xB24 JUMPI DUP1 PUSH1 0x1F LT PUSH2 0xAFB JUMPI PUSH2 0x100 DUP1 DUP4 SLOAD DIV MUL DUP4 MSTORE SWAP2 PUSH1 0x20 ADD SWAP2 PUSH2 0xB24 JUMP JUMPDEST DUP3 ADD SWAP2 SWAP1 PUSH0 MSTORE PUSH1 0x20 PUSH0 KECCAK256 SWAP1 JUMPDEST DUP2 SLOAD DUP2 MSTORE SWAP1 PUSH1 0x1 ADD SWAP1 PUSH1 0x20 ADD DUP1 DUP4 GT PUSH2 0xB07 JUMPI DUP3 SWAP1 SUB PUSH1 0x1F AND DUP3 ADD SWAP2 JUMPDEST POP POP POP POP POP SWAP1 DUP1 PUSH1 0x1 ADD PUSH0 SWAP1 SLOAD SWAP1 PUSH2 0x100 EXP SWAP1 DIV PUSH20 0xFFFFFFFFFFFFFFFFFFFFFFFFFFFFFFFFFFFFFFFF AND SWAP1 DUP1 PUSH1 0x2 ADD PUSH0 SWAP1 SLOAD SWAP1 PUSH2 0x100 EXP SWAP1 DIV PUSH20 0xFFFFFFFFFFFFFFFFFFFFFFFFFFFFFFFFFFFFFFFF AND SWAP1 DUP1 PUSH1 0x3 ADD SLOAD SWAP1 POP DUP5 JUMP JUMPDEST PUSH1 0x4 PUSH1 0x20 MSTORE DUP2 PUSH0 MSTORE PUSH1 0x40 PUSH0 KECCAK256 DUP2 DUP2 SLOAD DUP2 LT PUSH2 0xB97 JUMPI PUSH0 DUP1 REVERT JUMPDEST SWAP1 PUSH0 MSTORE PUSH1 0x20 PUSH0 KECCAK256 ADD PUSH0 SWAP2 POP SWAP2 POP SWAP1 SLOAD SWAP1 PUSH2 0x100 EXP SWAP1 DIV PUSH20 0xFFFFFFFFFFFFFFFFFFFFFFFFFFFFFFFFFFFFFFFF AND DUP2 JUMP JUMPDEST CALLER PUSH20 0xFFFFFFFFFFFFFFFFFFFFFFFFFFFFFFFFFFFFFFFF AND DUP2 PUSH20 0xFFFFFFFFFFFFFFFFFFFFFFFFFFFFFFFFFFFFFFFF AND SUB PUSH2 0xC34 JUMPI PUSH1 0x40 MLOAD PUSH32 0x8C379A000000000000000000000000000000000000000000000000000000000 DUP2 MSTORE PUSH1 0x4 ADD PUSH2 0xC2B SWAP1 PUSH2 0x1F18 JUMP JUMPDEST PUSH1 0x40 MLOAD DUP1 SWAP2 SUB SWAP1 REVERT JUMPDEST PUSH1 0x3 PUSH0 DUP3 PUSH20 0xFFFFFFFFFFFFFFFFFFFFFFFFFFFFFFFFFFFFFFFF AND PUSH20 0xFFFFFFFFFFFFFFFFFFFFFFFFFFFFFFFFFFFFFFFF AND DUP2 MSTORE PUSH1 0x20 ADD SWAP1 DUP2 MSTORE PUSH1 0x20 ADD PUSH0 KECCAK256 PUSH1 0x40 MLOAD DUP1 PUSH1 0x80 ADD PUSH1 0x40 MSTORE DUP1 DUP6 DUP6 DUP1 DUP1 PUSH1 0x1F ADD PUSH1 0x20 DUP1 SWAP2 DIV MUL PUSH1 0x20 ADD PUSH1 0x40 MLOAD SWAP1 DUP2 ADD PUSH1 0x40 MSTORE DUP1 SWAP4 SWAP3 SWAP2 SWAP1 DUP2 DUP2 MSTORE PUSH1 0x20 ADD DUP4 DUP4 DUP1 DUP3 DUP5 CALLDATACOPY PUSH0 DUP2 DUP5 ADD MSTORE PUSH1 0x1F NOT PUSH1 0x1F DUP3 ADD AND SWAP1 POP DUP1 DUP4 ADD SWAP3 POP POP POP POP POP POP POP DUP2 MSTORE PUSH1 0x20 ADD CALLER PUSH20 0xFFFFFFFFFFFFFFFFFFFFFFFFFFFFFFFFFFFFFFFF AND DUP2 MSTORE PUSH1 0x20 ADD DUP4 PUSH20 0xFFFFFFFFFFFFFFFFFFFFFFFFFFFFFFFFFFFFFFFF AND DUP2 MSTORE PUSH1 0x20 ADD TIMESTAMP DUP2 MSTORE POP SWAP1 DUP1 PUSH1 0x1 DUP2 SLOAD ADD DUP1 DUP3 SSTORE DUP1 SWAP2 POP POP PUSH1 0x1 SWAP1 SUB SWAP1 PUSH0 MSTORE PUSH1 0x20 PUSH0 KECCAK256 SWAP1 PUSH1 0x4 MUL ADD PUSH0 SWAP1 SWAP2 SWAP1 SWAP2 SWAP1 SWAP2 POP PUSH0 DUP3 ADD MLOAD DUP2 PUSH0 ADD SWAP1 DUP2 PUSH2 0xD3A SWAP2 SWAP1 PUSH2 0x2100 JUMP JUMPDEST POP PUSH1 0x20 DUP3 ADD MLOAD DUP2 PUSH1 0x1 ADD PUSH0 PUSH2 0x100 EXP DUP2 SLOAD DUP2 PUSH20 0xFFFFFFFFFFFFFFFFFFFFFFFFFFFFFFFFFFFFFFFF MUL NOT AND SWAP1 DUP4 PUSH20 0xFFFFFFFFFFFFFFFFFFFFFFFFFFFFFFFFFFFFFFFF AND MUL OR SWAP1 SSTORE POP PUSH1 0x40 DUP3 ADD MLOAD DUP2 PUSH1 0x2 ADD PUSH0 PUSH2 0x100 EXP DUP2 SLOAD DUP2 PUSH20 0xFFFFFFFFFFFFFFFFFFFFFFFFFFFFFFFFFFFFFFFF MUL NOT AND SWAP1 DUP4 PUSH20 0xFFFFFFFFFFFFFFFFFFFFFFFFFFFFFFFFFFFFFFFF AND MUL OR SWAP1 SSTORE POP PUSH1 0x60 DUP3 ADD MLOAD DUP2 PUSH1 0x3 ADD SSTORE POP POP DUP1 PUSH20 0xFFFFFFFFFFFFFFFFFFFFFFFFFFFFFFFFFFFFFFFF AND CALLER PUSH20 0xFFFFFFFFFFFFFFFFFFFFFFFFFFFFFFFFFFFFFFFF AND PUSH32 0xE2CF7446A11CBCD14CD99EA3A1BB77FB7653A64F4064D660140B5100D001E13C DUP6 DUP6 PUSH1 0x40 MLOAD PUSH2 0xE32 SWAP3 SWAP2 SWAP1 PUSH2 0x2209 JUMP JUMPDEST PUSH1 0x40 MLOAD DUP1 SWAP2 SUB SWAP1 LOG3 POP POP POP JUMP JUMPDEST PUSH0 DUP1 CALLER PUSH20 0xFFFFFFFFFFFFFFFFFFFFFFFFFFFFFFFFFFFFFFFF AND PUSH20 0xFFFFFFFFFFFFFFFFFFFFFFFFFFFFFFFFFFFFFFFF AND DUP2 MSTORE PUSH1 0x20 ADD SWAP1 DUP2 MSTORE PUSH1 0x20 ADD PUSH0 KECCAK256 PUSH1 0x40 MLOAD DUP1 PUSH1 0x40 ADD PUSH1 0x40 MSTORE DUP1 DUP5 DUP5 DUP1 DUP1 PUSH1 0x1F ADD PUSH1 0x20 DUP1 SWAP2 DIV MUL PUSH1 0x20 ADD PUSH1 0x40 MLOAD SWAP1 DUP2 ADD PUSH1 0x40 MSTORE DUP1 SWAP4 SWAP3 SWAP2 SWAP1 DUP2 DUP2 MSTORE PUSH1 0x20 ADD DUP4 DUP4 DUP1 DUP3 DUP5 CALLDATACOPY PUSH0 DUP2 DUP5 ADD MSTORE PUSH1 0x1F NOT PUSH1 0x1F DUP3 ADD AND SWAP1 POP DUP1 DUP4 ADD SWAP3 POP POP POP POP POP POP POP DUP2 MSTORE PUSH1 0x20 ADD TIMESTAMP DUP2 MSTORE POP SWAP1 DUP1 PUSH1 0x1 DUP2 SLOAD ADD DUP1 DUP3 SSTORE DUP1 SWAP2 POP POP PUSH1 0x1 SWAP1 SUB SWAP1 PUSH0 MSTORE PUSH1 0x20 PUSH0 KECCAK256 SWAP1 PUSH1 0x2 MUL ADD PUSH0 SWAP1 SWAP2 SWAP1 SWAP2 SWAP1 SWAP2 POP PUSH0 DUP3 ADD MLOAD DUP2 PUSH0 ADD SWAP1 DUP2 PUSH2 0xF0C SWAP2 SWAP1 PUSH2 0x2100 JUMP JUMPDEST POP PUSH1 0x20 DUP3 ADD MLOAD DUP2 PUSH1 0x1 ADD SSTORE POP POP CALLER PUSH20 0xFFFFFFFFFFFFFFFFFFFFFFFFFFFFFFFFFFFFFFFF AND PUSH32 0x79365AD4F87BFB12E1F7390D6E6128C39800A8D6B51BDEA21FDF11520480A887 DUP4 DUP4 TIMESTAMP PUSH1 0x40 MLOAD PUSH2 0xF63 SWAP4 SWAP3 SWAP2 SWAP1 PUSH2 0x222B JUMP JUMPDEST PUSH1 0x40 MLOAD DUP1 SWAP2 SUB SWAP1 LOG2 POP POP JUMP JUMPDEST PUSH1 0x60 PUSH0 DUP1 CALLER PUSH20 0xFFFFFFFFFFFFFFFFFFFFFFFFFFFFFFFFFFFFFFFF AND PUSH20 0xFFFFFFFFFFFFFFFFFFFFFFFFFFFFFFFFFFFFFFFF AND DUP2 MSTORE PUSH1 0x20 ADD SWAP1 DUP2 MSTORE PUSH1 0x20 ADD PUSH0 KECCAK256 DUP1 SLOAD DUP1 PUSH1 0x20 MUL PUSH1 0x20 ADD PUSH1 0x40 MLOAD SWAP1 DUP2 ADD PUSH1 0x40 MSTORE DUP1 SWAP3 SWAP2 SWAP1 DUP2 DUP2 MSTORE PUSH1 0x20 ADD PUSH0 SWAP1 JUMPDEST DUP3 DUP3 LT ISZERO PUSH2 0x1095 JUMPI DUP4 DUP3 SWAP1 PUSH0 MSTORE PUSH1 0x20 PUSH0 KECCAK256 SWAP1 PUSH1 0x2 MUL ADD PUSH1 0x40 MLOAD DUP1 PUSH1 0x40 ADD PUSH1 0x40 MSTORE SWAP1 DUP2 PUSH0 DUP3 ADD DUP1 SLOAD PUSH2 0xFFC SWAP1 PUSH2 0x1DCE JUMP JUMPDEST DUP1 PUSH1 0x1F ADD PUSH1 0x20 DUP1 SWAP2 DIV MUL PUSH1 0x20 ADD PUSH1 0x40 MLOAD SWAP1 DUP2 ADD PUSH1 0x40 MSTORE DUP1 SWAP3 SWAP2 SWAP1 DUP2 DUP2 MSTORE PUSH1 0x20 ADD DUP3 DUP1 SLOAD PUSH2 0x1028 SWAP1 PUSH2 0x1DCE JUMP JUMPDEST DUP1 ISZERO PUSH2 0x1073 JUMPI DUP1 PUSH1 0x1F LT PUSH2 0x104A JUMPI PUSH2 0x100 DUP1 DUP4 SLOAD DIV MUL DUP4 MSTORE SWAP2 PUSH1 0x20 ADD SWAP2 PUSH2 0x1073 JUMP JUMPDEST DUP3 ADD SWAP2 SWAP1 PUSH0 MSTORE PUSH1 0x20 PUSH0 KECCAK256 SWAP1 JUMPDEST DUP2 SLOAD DUP2 MSTORE SWAP1 PUSH1 0x1 ADD SWAP1 PUSH1 0x20 ADD DUP1 DUP4 GT PUSH2 0x1056 JUMPI DUP3 SWAP1 SUB PUSH1 0x1F AND DUP3 ADD SWAP2 JUMPDEST POP POP POP POP POP DUP2 MSTORE PUSH1 0x20 ADD PUSH1 0x1 DUP3 ADD SLOAD DUP2 MSTORE POP POP DUP2 MSTORE PUSH1 0x20 ADD SWAP1 PUSH1 0x1 ADD SWAP1 PUSH2 0xFCC JUMP JUMPDEST POP POP POP POP SWAP1 POP SWAP1 JUMP JUMPDEST PUSH0 PUSH1 0x1 PUSH0 DUP4 PUSH20 0xFFFFFFFFFFFFFFFFFFFFFFFFFFFFFFFFFFFFFFFF AND PUSH20 0xFFFFFFFFFFFFFFFFFFFFFFFFFFFFFFFFFFFFFFFF AND DUP2 MSTORE PUSH1 0x20 ADD SWAP1 DUP2 MSTORE PUSH1 0x20 ADD PUSH0 KECCAK256 SWAP1 POP PUSH0 JUMPDEST DUP2 DUP1 SLOAD SWAP1 POP DUP2 LT ISZERO PUSH2 0x1251 JUMPI CALLER PUSH20 0xFFFFFFFFFFFFFFFFFFFFFFFFFFFFFFFFFFFFFFFF AND DUP3 DUP3 DUP2 SLOAD DUP2 LT PUSH2 0x1116 JUMPI PUSH2 0x1115 PUSH2 0x225B JUMP JUMPDEST JUMPDEST SWAP1 PUSH0 MSTORE PUSH1 0x20 PUSH0 KECCAK256 ADD PUSH0 SWAP1 SLOAD SWAP1 PUSH2 0x100 EXP SWAP1 DIV PUSH20 0xFFFFFFFFFFFFFFFFFFFFFFFFFFFFFFFFFFFFFFFF AND PUSH20 0xFFFFFFFFFFFFFFFFFFFFFFFFFFFFFFFFFFFFFFFF AND SUB PUSH2 0x1244 JUMPI DUP2 PUSH1 0x1 DUP4 DUP1 SLOAD SWAP1 POP PUSH2 0x116B SWAP2 SWAP1 PUSH2 0x22B5 JUMP JUMPDEST DUP2 SLOAD DUP2 LT PUSH2 0x117C JUMPI PUSH2 0x117B PUSH2 0x225B JUMP JUMPDEST JUMPDEST SWAP1 PUSH0 MSTORE PUSH1 0x20 PUSH0 KECCAK256 ADD PUSH0 SWAP1 SLOAD SWAP1 PUSH2 0x100 EXP SWAP1 DIV PUSH20 0xFFFFFFFFFFFFFFFFFFFFFFFFFFFFFFFFFFFFFFFF AND DUP3 DUP3 DUP2 SLOAD DUP2 LT PUSH2 0x11B7 JUMPI PUSH2 0x11B6 PUSH2 0x225B JUMP JUMPDEST JUMPDEST SWAP1 PUSH0 MSTORE PUSH1 0x20 PUSH0 KECCAK256 ADD PUSH0 PUSH2 0x100 EXP DUP2 SLOAD DUP2 PUSH20 0xFFFFFFFFFFFFFFFFFFFFFFFFFFFFFFFFFFFFFFFF MUL NOT AND SWAP1 DUP4 PUSH20 0xFFFFFFFFFFFFFFFFFFFFFFFFFFFFFFFFFFFFFFFF AND MUL OR SWAP1 SSTORE POP DUP2 DUP1 SLOAD DUP1 PUSH2 0x120D JUMPI PUSH2 0x120C PUSH2 0x22E8 JUMP JUMPDEST JUMPDEST PUSH1 0x1 SWAP1 SUB DUP2 DUP2 SWAP1 PUSH0 MSTORE PUSH1 0x20 PUSH0 KECCAK256 ADD PUSH0 PUSH2 0x100 EXP DUP2 SLOAD SWAP1 PUSH20 0xFFFFFFFFFFFFFFFFFFFFFFFFFFFFFFFFFFFFFFFF MUL NOT AND SWAP1 SSTORE SWAP1 SSTORE PUSH2 0x1251 JUMP JUMPDEST DUP1 DUP1 PUSH1 0x1 ADD SWAP2 POP POP PUSH2 0x10E0 JUMP JUMPDEST POP POP POP JUMP JUMPDEST PUSH0 PUSH1 0x2 PUSH0 DUP5 PUSH20 0xFFFFFFFFFFFFFFFFFFFFFFFFFFFFFFFFFFFFFFFF AND PUSH20 0xFFFFFFFFFFFFFFFFFFFFFFFFFFFFFFFFFFFFFFFF AND DUP2 MSTORE PUSH1 0x20 ADD SWAP1 DUP2 MSTORE PUSH1 0x20 ADD PUSH0 KECCAK256 SWAP1 POP PUSH0 JUMPDEST DUP2 DUP1 SLOAD SWAP1 POP DUP2 LT ISZERO PUSH2 0x1409 JUMPI DUP3 PUSH20 0xFFFFFFFFFFFFFFFFFFFFFFFFFFFFFFFFFFFFFFFF AND DUP3 DUP3 DUP2 SLOAD DUP2 LT PUSH2 0x12CE JUMPI PUSH2 0x12CD PUSH2 0x225B JUMP JUMPDEST JUMPDEST SWAP1 PUSH0 MSTORE PUSH1 0x20 PUSH0 KECCAK256 ADD PUSH0 SWAP1 SLOAD SWAP1 PUSH2 0x100 EXP SWAP1 DIV PUSH20 0xFFFFFFFFFFFFFFFFFFFFFFFFFFFFFFFFFFFFFFFF AND PUSH20 0xFFFFFFFFFFFFFFFFFFFFFFFFFFFFFFFFFFFFFFFF AND SUB PUSH2 0x13FC JUMPI DUP2 PUSH1 0x1 DUP4 DUP1 SLOAD SWAP1 POP PUSH2 0x1323 SWAP2 SWAP1 PUSH2 0x22B5 JUMP JUMPDEST DUP2 SLOAD DUP2 LT PUSH2 0x1334 JUMPI PUSH2 0x1333 PUSH2 0x225B JUMP JUMPDEST JUMPDEST SWAP1 PUSH0 MSTORE PUSH1 0x20 PUSH0 KECCAK256 ADD PUSH0 SWAP1 SLOAD SWAP1 PUSH2 0x100 EXP SWAP1 DIV PUSH20 0xFFFFFFFFFFFFFFFFFFFFFFFFFFFFFFFFFFFFFFFF AND DUP3 DUP3 DUP2 SLOAD DUP2 LT PUSH2 0x136F JUMPI PUSH2 0x136E PUSH2 0x225B JUMP JUMPDEST JUMPDEST SWAP1 PUSH0 MSTORE PUSH1 0x20 PUSH0 KECCAK256 ADD PUSH0 PUSH2 0x100 EXP DUP2 SLOAD DUP2 PUSH20 0xFFFFFFFFFFFFFFFFFFFFFFFFFFFFFFFFFFFFFFFF MUL NOT AND SWAP1 DUP4 PUSH20 0xFFFFFFFFFFFFFFFFFFFFFFFFFFFFFFFFFFFFFFFF AND MUL OR SWAP1 SSTORE POP DUP2 DUP1 SLOAD DUP1 PUSH2 0x13C5 JUMPI PUSH2 0x13C4 PUSH2 0x22E8 JUMP JUMPDEST JUMPDEST PUSH1 0x1 SWAP1 SUB DUP2 DUP2 SWAP1 PUSH0 MSTORE PUSH1 0x20 PUSH0 KECCAK256 ADD PUSH0 PUSH2 0x100 EXP DUP2 SLOAD SWAP1 PUSH20 0xFFFFFFFFFFFFFFFFFFFFFFFFFFFFFFFFFFFFFFFF MUL NOT AND SWAP1 SSTORE SWAP1 SSTORE PUSH2 0x1409 JUMP JUMPDEST DUP1 DUP1 PUSH1 0x1 ADD SWAP2 POP POP PUSH2 0x1298 JUMP JUMPDEST POP POP POP POP JUMP JUMPDEST PUSH0 DUP1 PUSH1 0x4 PUSH0 DUP6 PUSH20 0xFFFFFFFFFFFFFFFFFFFFFFFFFFFFFFFFFFFFFFFF AND PUSH20 0xFFFFFFFFFFFFFFFFFFFFFFFFFFFFFFFFFFFFFFFF AND DUP2 MSTORE PUSH1 0x20 ADD SWAP1 DUP2 MSTORE PUSH1 0x20 ADD PUSH0 KECCAK256 DUP1 SLOAD DUP1 PUSH1 0x20 MUL PUSH1 0x20 ADD PUSH1 0x40 MLOAD SWAP1 DUP2 ADD PUSH1 0x40 MSTORE DUP1 SWAP3 SWAP2 SWAP1 DUP2 DUP2 MSTORE PUSH1 0x20 ADD DUP3 DUP1 SLOAD DUP1 ISZERO PUSH2 0x14CB JUMPI PUSH1 0x20 MUL DUP3 ADD SWAP2 SWAP1 PUSH0 MSTORE PUSH1 0x20 PUSH0 KECCAK256 SWAP1 JUMPDEST DUP2 PUSH0 SWAP1 SLOAD SWAP1 PUSH2 0x100 EXP SWAP1 DIV PUSH20 0xFFFFFFFFFFFFFFFFFFFFFFFFFFFFFFFFFFFFFFFF AND PUSH20 0xFFFFFFFFFFFFFFFFFFFFFFFFFFFFFFFFFFFFFFFF AND DUP2 MSTORE PUSH1 0x20 ADD SWAP1 PUSH1 0x1 ADD SWAP1 DUP1 DUP4 GT PUSH2 0x1482 JUMPI JUMPDEST POP POP POP POP POP SWAP1 POP PUSH0 JUMPDEST DUP2 MLOAD DUP2 LT ISZERO PUSH2 0x1542 JUMPI DUP4 PUSH20 0xFFFFFFFFFFFFFFFFFFFFFFFFFFFFFFFFFFFFFFFF AND DUP3 DUP3 DUP2 MLOAD DUP2 LT PUSH2 0x1507 JUMPI PUSH2 0x1506 PUSH2 0x225B JUMP JUMPDEST JUMPDEST PUSH1 0x20 MUL PUSH1 0x20 ADD ADD MLOAD PUSH20 0xFFFFFFFFFFFFFFFFFFFFFFFFFFFFFFFFFFFFFFFF AND SUB PUSH2 0x1535 JUMPI PUSH1 0x1 SWAP3 POP POP POP PUSH2 0x1548 JUMP JUMPDEST DUP1 DUP1 PUSH1 0x1 ADD SWAP2 POP POP PUSH2 0x14D4 JUMP JUMPDEST POP PUSH0 SWAP2 POP POP JUMPDEST SWAP3 SWAP2 POP POP JUMP JUMPDEST PUSH0 DUP1 PUSH1 0x2 PUSH0 DUP6 PUSH20 0xFFFFFFFFFFFFFFFFFFFFFFFFFFFFFFFFFFFFFFFF AND PUSH20 0xFFFFFFFFFFFFFFFFFFFFFFFFFFFFFFFFFFFFFFFF AND DUP2 MSTORE PUSH1 0x20 ADD SWAP1 DUP2 MSTORE PUSH1 0x20 ADD PUSH0 KECCAK256 DUP1 SLOAD DUP1 PUSH1 0x20 MUL PUSH1 0x20 ADD PUSH1 0x40 MLOAD SWAP1 DUP2 ADD PUSH1 0x40 MSTORE DUP1 SWAP3 SWAP2 SWAP1 DUP2 DUP2 MSTORE PUSH1 0x20 ADD DUP3 DUP1 SLOAD DUP1 ISZERO PUSH2 0x160A JUMPI PUSH1 0x20 MUL DUP3 ADD SWAP2 SWAP1 PUSH0 MSTORE PUSH1 0x20 PUSH0 KECCAK256 SWAP1 JUMPDEST DUP2 PUSH0 SWAP1 SLOAD SWAP1 PUSH2 0x100 EXP SWAP1 DIV PUSH20 0xFFFFFFFFFFFFFFFFFFFFFFFFFFFFFFFFFFFFFFFF AND PUSH20 0xFFFFFFFFFFFFFFFFFFFFFFFFFFFFFFFFFFFFFFFF AND DUP2 MSTORE PUSH1 0x20 ADD SWAP1 PUSH1 0x1 ADD SWAP1 DUP1 DUP4 GT PUSH2 0x15C1 JUMPI JUMPDEST POP POP POP POP POP SWAP1 POP PUSH0 JUMPDEST DUP2 MLOAD DUP2 LT ISZERO PUSH2 0x1681 JUMPI DUP4 PUSH20 0xFFFFFFFFFFFFFFFFFFFFFFFFFFFFFFFFFFFFFFFF AND DUP3 DUP3 DUP2 MLOAD DUP2 LT PUSH2 0x1646 JUMPI PUSH2 0x1645 PUSH2 0x225B JUMP JUMPDEST JUMPDEST PUSH1 0x20 MUL PUSH1 0x20 ADD ADD MLOAD PUSH20 0xFFFFFFFFFFFFFFFFFFFFFFFFFFFFFFFFFFFFFFFF AND SUB PUSH2 0x1674 JUMPI PUSH1 0x1 SWAP3 POP POP POP PUSH2 0x1687 JUMP JUMPDEST DUP1 DUP1 PUSH1 0x1 ADD SWAP2 POP POP PUSH2 0x1613 JUMP JUMPDEST POP PUSH0 SWAP2 POP POP JUMPDEST SWAP3 SWAP2 POP POP JUMP JUMPDEST PUSH0 DUP1 REVERT JUMPDEST PUSH0 DUP1 REVERT JUMPDEST PUSH0 PUSH20 0xFFFFFFFFFFFFFFFFFFFFFFFFFFFFFFFFFFFFFFFF DUP3 AND SWAP1 POP SWAP2 SWAP1 POP JUMP JUMPDEST PUSH0 PUSH2 0x16BE DUP3 PUSH2 0x1695 JUMP JUMPDEST SWAP1 POP SWAP2 SWAP1 POP JUMP JUMPDEST PUSH2 0x16CE DUP2 PUSH2 0x16B4 JUMP JUMPDEST DUP2 EQ PUSH2 0x16D8 JUMPI PUSH0 DUP1 REVERT JUMPDEST POP JUMP JUMPDEST PUSH0 DUP2 CALLDATALOAD SWAP1 POP PUSH2 0x16E9 DUP2 PUSH2 0x16C5 JUMP JUMPDEST SWAP3 SWAP2 POP POP JUMP JUMPDEST PUSH0 PUSH1 0x20 DUP3 DUP5 SUB SLT ISZERO PUSH2 0x1704 JUMPI PUSH2 0x1703 PUSH2 0x168D JUMP JUMPDEST JUMPDEST PUSH0 PUSH2 0x1711 DUP5 DUP3 DUP6 ADD PUSH2 0x16DB JUMP JUMPDEST SWAP2 POP POP SWAP3 SWAP2 POP POP JUMP JUMPDEST PUSH0 DUP2 SWAP1 POP SWAP2 SWAP1 POP JUMP JUMPDEST PUSH2 0x172C DUP2 PUSH2 0x171A JUMP JUMPDEST DUP2 EQ PUSH2 0x1736 JUMPI PUSH0 DUP1 REVERT JUMPDEST POP JUMP JUMPDEST PUSH0 DUP2 CALLDATALOAD SWAP1 POP PUSH2 0x1747 DUP2 PUSH2 0x1723 JUMP JUMPDEST SWAP3 SWAP2 POP POP JUMP JUMPDEST PUSH0 DUP1 PUSH1 0x40 DUP4 DUP6 SUB SLT ISZERO PUSH2 0x1763 JUMPI PUSH2 0x1762 PUSH2 0x168D JUMP JUMPDEST JUMPDEST PUSH0 PUSH2 0x1770 DUP6 DUP3 DUP7 ADD PUSH2 0x16DB JUMP JUMPDEST SWAP3 POP POP PUSH1 0x20 PUSH2 0x1781 DUP6 DUP3 DUP7 ADD PUSH2 0x1739 JUMP JUMPDEST SWAP2 POP POP SWAP3 POP SWAP3 SWAP1 POP JUMP JUMPDEST PUSH2 0x1794 DUP2 PUSH2 0x16B4 JUMP JUMPDEST DUP3 MSTORE POP POP JUMP JUMPDEST PUSH0 PUSH1 0x20 DUP3 ADD SWAP1 POP PUSH2 0x17AD PUSH0 DUP4 ADD DUP5 PUSH2 0x178B JUMP JUMPDEST SWAP3 SWAP2 POP POP JUMP JUMPDEST PUSH0 DUP2 MLOAD SWAP1 POP SWAP2 SWAP1 POP JUMP JUMPDEST PUSH0 DUP3 DUP3 MSTORE PUSH1 0x20 DUP3 ADD SWAP1 POP SWAP3 SWAP2 POP POP JUMP JUMPDEST DUP3 DUP2 DUP4 MCOPY PUSH0 DUP4 DUP4 ADD MSTORE POP POP POP JUMP JUMPDEST PUSH0 PUSH1 0x1F NOT PUSH1 0x1F DUP4 ADD AND SWAP1 POP SWAP2 SWAP1 POP JUMP JUMPDEST PUSH0 PUSH2 0x17F5 DUP3 PUSH2 0x17B3 JUMP JUMPDEST PUSH2 0x17FF DUP2 DUP6 PUSH2 0x17BD JUMP JUMPDEST SWAP4 POP PUSH2 0x180F DUP2 DUP6 PUSH1 0x20 DUP7 ADD PUSH2 0x17CD JUMP JUMPDEST PUSH2 0x1818 DUP2 PUSH2 0x17DB JUMP JUMPDEST DUP5 ADD SWAP2 POP POP SWAP3 SWAP2 POP POP JUMP JUMPDEST PUSH2 0x182C DUP2 PUSH2 0x171A JUMP JUMPDEST DUP3 MSTORE POP POP JUMP JUMPDEST PUSH0 PUSH1 0x40 DUP3 ADD SWAP1 POP DUP2 DUP2 SUB PUSH0 DUP4 ADD MSTORE PUSH2 0x184A DUP2 DUP6 PUSH2 0x17EB JUMP JUMPDEST SWAP1 POP PUSH2 0x1859 PUSH1 0x20 DUP4 ADD DUP5 PUSH2 0x1823 JUMP JUMPDEST SWAP4 SWAP3 POP POP POP JUMP JUMPDEST PUSH0 DUP2 MLOAD SWAP1 POP SWAP2 SWAP1 POP JUMP JUMPDEST PUSH0 DUP3 DUP3 MSTORE PUSH1 0x20 DUP3 ADD SWAP1 POP SWAP3 SWAP2 POP POP JUMP JUMPDEST PUSH0 DUP2 SWAP1 POP PUSH1 0x20 DUP3 ADD SWAP1 POP SWAP2 SWAP1 POP JUMP JUMPDEST PUSH0 DUP3 DUP3 MSTORE PUSH1 0x20 DUP3 ADD SWAP1 POP SWAP3 SWAP2 POP POP JUMP JUMPDEST PUSH0 PUSH2 0x18A3 DUP3 PUSH2 0x17B3 JUMP JUMPDEST PUSH2 0x18AD DUP2 DUP6 PUSH2 0x1889 JUMP JUMPDEST SWAP4 POP PUSH2 0x18BD DUP2 DUP6 PUSH1 0x20 DUP7 ADD PUSH2 0x17CD JUMP JUMPDEST PUSH2 0x18C6 DUP2 PUSH2 0x17DB JUMP JUMPDEST DUP5 ADD SWAP2 POP POP SWAP3 SWAP2 POP POP JUMP JUMPDEST PUSH2 0x18DA DUP2 PUSH2 0x16B4 JUMP JUMPDEST DUP3 MSTORE POP POP JUMP JUMPDEST PUSH2 0x18E9 DUP2 PUSH2 0x171A JUMP JUMPDEST DUP3 MSTORE POP POP JUMP JUMPDEST PUSH0 PUSH1 0x80 DUP4 ADD PUSH0 DUP4 ADD MLOAD DUP5 DUP3 SUB PUSH0 DUP7 ADD MSTORE PUSH2 0x1909 DUP3 DUP3 PUSH2 0x1899 JUMP JUMPDEST SWAP2 POP POP PUSH1 0x20 DUP4 ADD MLOAD PUSH2 0x191E PUSH1 0x20 DUP7 ADD DUP3 PUSH2 0x18D1 JUMP JUMPDEST POP PUSH1 0x40 DUP4 ADD MLOAD PUSH2 0x1931 PUSH1 0x40 DUP7 ADD DUP3 PUSH2 0x18D1 JUMP JUMPDEST POP PUSH1 0x60 DUP4 ADD MLOAD PUSH2 0x1944 PUSH1 0x60 DUP7 ADD DUP3 PUSH2 0x18E0 JUMP JUMPDEST POP DUP1 SWAP2 POP POP SWAP3 SWAP2 POP POP JUMP JUMPDEST PUSH0 PUSH2 0x195A DUP4 DUP4 PUSH2 0x18EF JUMP JUMPDEST SWAP1 POP SWAP3 SWAP2 POP POP JUMP JUMPDEST PUSH0 PUSH1 0x20 DUP3 ADD SWAP1 POP SWAP2 SWAP1 POP JUMP JUMPDEST PUSH0 PUSH2 0x1978 DUP3 PUSH2 0x1860 JUMP JUMPDEST PUSH2 0x1982 DUP2 DUP6 PUSH2 0x186A JUMP JUMPDEST SWAP4 POP DUP4 PUSH1 0x20 DUP3 MUL DUP6 ADD PUSH2 0x1994 DUP6 PUSH2 0x187A JUMP JUMPDEST DUP1 PUSH0 JUMPDEST DUP6 DUP2 LT ISZERO PUSH2 0x19CF JUMPI DUP5 DUP5 SUB DUP10 MSTORE DUP2 MLOAD PUSH2 0x19B0 DUP6 DUP3 PUSH2 0x194F JUMP JUMPDEST SWAP5 POP PUSH2 0x19BB DUP4 PUSH2 0x1962 JUMP JUMPDEST SWAP3 POP PUSH1 0x20 DUP11 ADD SWAP10 POP POP PUSH1 0x1 DUP2 ADD SWAP1 POP PUSH2 0x1997 JUMP JUMPDEST POP DUP3 SWAP8 POP DUP8 SWAP6 POP POP POP POP POP POP SWAP3 SWAP2 POP POP JUMP JUMPDEST PUSH0 PUSH1 0x20 DUP3 ADD SWAP1 POP DUP2 DUP2 SUB PUSH0 DUP4 ADD MSTORE PUSH2 0x19F9 DUP2 DUP5 PUSH2 0x196E JUMP JUMPDEST SWAP1 POP SWAP3 SWAP2 POP POP JUMP JUMPDEST PUSH0 PUSH1 0x80 DUP3 ADD SWAP1 POP DUP2 DUP2 SUB PUSH0 DUP4 ADD MSTORE PUSH2 0x1A19 DUP2 DUP8 PUSH2 0x17EB JUMP JUMPDEST SWAP1 POP PUSH2 0x1A28 PUSH1 0x20 DUP4 ADD DUP7 PUSH2 0x178B JUMP JUMPDEST PUSH2 0x1A35 PUSH1 0x40 DUP4 ADD DUP6 PUSH2 0x178B JUMP JUMPDEST PUSH2 0x1A42 PUSH1 0x60 DUP4 ADD DUP5 PUSH2 0x1823 JUMP JUMPDEST SWAP6 SWAP5 POP POP POP POP POP JUMP JUMPDEST PUSH0 DUP1 REVERT JUMPDEST PUSH0 DUP1 REVERT JUMPDEST PUSH0 DUP1 REVERT JUMPDEST PUSH0 DUP1 DUP4 PUSH1 0x1F DUP5 ADD SLT PUSH2 0x1A6C JUMPI PUSH2 0x1A6B PUSH2 0x1A4B JUMP JUMPDEST JUMPDEST DUP3 CALLDATALOAD SWAP1 POP PUSH8 0xFFFFFFFFFFFFFFFF DUP2 GT ISZERO PUSH2 0x1A89 JUMPI PUSH2 0x1A88 PUSH2 0x1A4F JUMP JUMPDEST JUMPDEST PUSH1 0x20 DUP4 ADD SWAP2 POP DUP4 PUSH1 0x1 DUP3 MUL DUP4 ADD GT ISZERO PUSH2 0x1AA5 JUMPI PUSH2 0x1AA4 PUSH2 0x1A53 JUMP JUMPDEST JUMPDEST SWAP3 POP SWAP3 SWAP1 POP JUMP JUMPDEST PUSH0 DUP1 PUSH0 PUSH1 0x40 DUP5 DUP7 SUB SLT ISZERO PUSH2 0x1AC3 JUMPI PUSH2 0x1AC2 PUSH2 0x168D JUMP JUMPDEST JUMPDEST PUSH0 DUP5 ADD CALLDATALOAD PUSH8 0xFFFFFFFFFFFFFFFF DUP2 GT ISZERO PUSH2 0x1AE0 JUMPI PUSH2 0x1ADF PUSH2 0x1691 JUMP JUMPDEST JUMPDEST PUSH2 0x1AEC DUP7 DUP3 DUP8 ADD PUSH2 0x1A57 JUMP JUMPDEST SWAP4 POP SWAP4 POP POP PUSH1 0x20 PUSH2 0x1AFF DUP7 DUP3 DUP8 ADD PUSH2 0x16DB JUMP JUMPDEST SWAP2 POP POP SWAP3 POP SWAP3 POP SWAP3 JUMP JUMPDEST PUSH0 DUP1 PUSH1 0x20 DUP4 DUP6 SUB SLT ISZERO PUSH2 0x1B1F JUMPI PUSH2 0x1B1E PUSH2 0x168D JUMP JUMPDEST JUMPDEST PUSH0 DUP4 ADD CALLDATALOAD PUSH8 0xFFFFFFFFFFFFFFFF DUP2 GT ISZERO PUSH2 0x1B3C JUMPI PUSH2 0x1B3B PUSH2 0x1691 JUMP JUMPDEST JUMPDEST PUSH2 0x1B48 DUP6 DUP3 DUP7 ADD PUSH2 0x1A57 JUMP JUMPDEST SWAP3 POP SWAP3 POP POP SWAP3 POP SWAP3 SWAP1 POP JUMP JUMPDEST PUSH0 DUP2 MLOAD SWAP1 POP SWAP2 SWAP1 POP JUMP JUMPDEST PUSH0 DUP3 DUP3 MSTORE PUSH1 0x20 DUP3 ADD SWAP1 POP SWAP3 SWAP2 POP POP JUMP JUMPDEST PUSH0 DUP2 SWAP1 POP PUSH1 0x20 DUP3 ADD SWAP1 POP SWAP2 SWAP1 POP JUMP JUMPDEST PUSH0 PUSH1 0x40 DUP4 ADD PUSH0 DUP4 ADD MLOAD DUP5 DUP3 SUB PUSH0 DUP7 ADD MSTORE PUSH2 0x1B97 DUP3 DUP3 PUSH2 0x1899 JUMP JUMPDEST SWAP2 POP POP PUSH1 0x20 DUP4 ADD MLOAD PUSH2 0x1BAC PUSH1 0x20 DUP7 ADD DUP3 PUSH2 0x18E0 JUMP JUMPDEST POP DUP1 SWAP2 POP POP SWAP3 SWAP2 POP POP JUMP JUMPDEST PUSH0 PUSH2 0x1BC2 DUP4 DUP4 PUSH2 0x1B7D JUMP JUMPDEST SWAP1 POP SWAP3 SWAP2 POP POP JUMP JUMPDEST PUSH0 PUSH1 0x20 DUP3 ADD SWAP1 POP SWAP2 SWAP1 POP JUMP JUMPDEST PUSH0 PUSH2 0x1BE0 DUP3 PUSH2 0x1B54 JUMP JUMPDEST PUSH2 0x1BEA DUP2 DUP6 PUSH2 0x1B5E JUMP JUMPDEST SWAP4 POP DUP4 PUSH1 0x20 DUP3 MUL DUP6 ADD PUSH2 0x1BFC DUP6 PUSH2 0x1B6E JUMP JUMPDEST DUP1 PUSH0 JUMPDEST DUP6 DUP2 LT ISZERO PUSH2 0x1C37 JUMPI DUP5 DUP5 SUB DUP10 MSTORE DUP2 MLOAD PUSH2 0x1C18 DUP6 DUP3 PUSH2 0x1BB7 JUMP JUMPDEST SWAP5 POP PUSH2 0x1C23 DUP4 PUSH2 0x1BCA JUMP JUMPDEST SWAP3 POP PUSH1 0x20 DUP11 ADD SWAP10 POP POP PUSH1 0x1 DUP2 ADD SWAP1 POP PUSH2 0x1BFF JUMP JUMPDEST POP DUP3 SWAP8 POP DUP8 SWAP6 POP POP POP POP POP POP SWAP3 SWAP2 POP POP JUMP JUMPDEST PUSH0 PUSH1 0x20 DUP3 ADD SWAP1 POP DUP2 DUP2 SUB PUSH0 DUP4 ADD MSTORE PUSH2 0x1C61 DUP2 DUP5 PUSH2 0x1BD6 JUMP JUMPDEST SWAP1 POP SWAP3 SWAP2 POP POP JUMP JUMPDEST PUSH32 0x43616E6E6F7420756E666F6C6C6F77206F6E6573656C66000000000000000000 PUSH0 DUP3 ADD MSTORE POP JUMP JUMPDEST PUSH0 PUSH2 0x1C9D PUSH1 0x17 DUP4 PUSH2 0x17BD JUMP JUMPDEST SWAP2 POP PUSH2 0x1CA8 DUP3 PUSH2 0x1C69 JUMP JUMPDEST PUSH1 0x20 DUP3 ADD SWAP1 POP SWAP2 SWAP1 POP JUMP JUMPDEST PUSH0 PUSH1 0x20 DUP3 ADD SWAP1 POP DUP2 DUP2 SUB PUSH0 DUP4 ADD MSTORE PUSH2 0x1CCA DUP2 PUSH2 0x1C91 JUMP JUMPDEST SWAP1 POP SWAP2 SWAP1 POP JUMP JUMPDEST PUSH32 0x43616E6E6F74206772616E742061636365737320746F206F6E6573656C660000 PUSH0 DUP3 ADD MSTORE POP JUMP JUMPDEST PUSH0 PUSH2 0x1D05 PUSH1 0x1E DUP4 PUSH2 0x17BD JUMP JUMPDEST SWAP2 POP PUSH2 0x1D10 DUP3 PUSH2 0x1CD1 JUMP JUMPDEST PUSH1 0x20 DUP3 ADD SWAP1 POP SWAP2 SWAP1 POP JUMP JUMPDEST PUSH0 PUSH1 0x20 DUP3 ADD SWAP1 POP DUP2 DUP2 SUB PUSH0 DUP4 ADD MSTORE PUSH2 0x1D32 DUP2 PUSH2 0x1CF9 JUMP JUMPDEST SWAP1 POP SWAP2 SWAP1 POP JUMP JUMPDEST PUSH32 0x41636365737320616C7265616479206772616E74656400000000000000000000 PUSH0 DUP3 ADD MSTORE POP JUMP JUMPDEST PUSH0 PUSH2 0x1D6D PUSH1 0x16 DUP4 PUSH2 0x17BD JUMP JUMPDEST SWAP2 POP PUSH2 0x1D78 DUP3 PUSH2 0x1D39 JUMP JUMPDEST PUSH1 0x20 DUP3 ADD SWAP1 POP SWAP2 SWAP1 POP JUMP JUMPDEST PUSH0 PUSH1 0x20 DUP3 ADD SWAP1 POP DUP2 DUP2 SUB PUSH0 DUP4 ADD MSTORE PUSH2 0x1D9A DUP2 PUSH2 0x1D61 JUMP JUMPDEST SWAP1 POP SWAP2 SWAP1 POP JUMP JUMPDEST PUSH32 0x4E487B7100000000000000000000000000000000000000000000000000000000 PUSH0 MSTORE PUSH1 0x22 PUSH1 0x4 MSTORE PUSH1 0x24 PUSH0 REVERT JUMPDEST PUSH0 PUSH1 0x2 DUP3 DIV SWAP1 POP PUSH1 0x1 DUP3 AND DUP1 PUSH2 0x1DE5 JUMPI PUSH1 0x7F DUP3 AND SWAP2 POP JUMPDEST PUSH1 0x20 DUP3 LT DUP2 SUB PUSH2 0x1DF8 JUMPI PUSH2 0x1DF7 PUSH2 0x1DA1 JUMP JUMPDEST JUMPDEST POP SWAP2 SWAP1 POP JUMP JUMPDEST PUSH32 0x43616E6E6F7420666F6C6C6F77206F6E6573656C660000000000000000000000 PUSH0 DUP3 ADD MSTORE POP JUMP JUMPDEST PUSH0 PUSH2 0x1E32 PUSH1 0x15 DUP4 PUSH2 0x17BD JUMP JUMPDEST SWAP2 POP PUSH2 0x1E3D DUP3 PUSH2 0x1DFE JUMP JUMPDEST PUSH1 0x20 DUP3 ADD SWAP1 POP SWAP2 SWAP1 POP JUMP JUMPDEST PUSH0 PUSH1 0x20 DUP3 ADD SWAP1 POP DUP2 DUP2 SUB PUSH0 DUP4 ADD MSTORE PUSH2 0x1E5F DUP2 PUSH2 0x1E26 JUMP JUMPDEST SWAP1 POP SWAP2 SWAP1 POP JUMP JUMPDEST PUSH32 0x416C726561647920666F6C6C6F77696E67207468697320757365720000000000 PUSH0 DUP3 ADD MSTORE POP JUMP JUMPDEST PUSH0 PUSH2 0x1E9A PUSH1 0x1B DUP4 PUSH2 0x17BD JUMP JUMPDEST SWAP2 POP PUSH2 0x1EA5 DUP3 PUSH2 0x1E66 JUMP JUMPDEST PUSH1 0x20 DUP3 ADD SWAP1 POP SWAP2 SWAP1 POP JUMP JUMPDEST PUSH0 PUSH1 0x20 DUP3 ADD SWAP1 POP DUP2 DUP2 SUB PUSH0 DUP4 ADD MSTORE PUSH2 0x1EC7 DUP2 PUSH2 0x1E8E JUMP JUMPDEST SWAP1 POP SWAP2 SWAP1 POP JUMP JUMPDEST PUSH32 0x43616E6E6F742073656E64206D65737361676520746F206F6E6573656C660000 PUSH0 DUP3 ADD MSTORE POP JUMP JUMPDEST PUSH0 PUSH2 0x1F02 PUSH1 0x1E DUP4 PUSH2 0x17BD JUMP JUMPDEST SWAP2 POP PUSH2 0x1F0D DUP3 PUSH2 0x1ECE JUMP JUMPDEST PUSH1 0x20 DUP3 ADD SWAP1 POP SWAP2 SWAP1 POP JUMP JUMPDEST PUSH0 PUSH1 0x20 DUP3 ADD SWAP1 POP DUP2 DUP2 SUB PUSH0 DUP4 ADD MSTORE PUSH2 0x1F2F DUP2 PUSH2 0x1EF6 JUMP JUMPDEST SWAP1 POP SWAP2 SWAP1 POP JUMP JUMPDEST PUSH32 0x4E487B7100000000000000000000000000000000000000000000000000000000 PUSH0 MSTORE PUSH1 0x41 PUSH1 0x4 MSTORE PUSH1 0x24 PUSH0 REVERT JUMPDEST PUSH0 DUP2 SWAP1 POP DUP2 PUSH0 MSTORE PUSH1 0x20 PUSH0 KECCAK256 SWAP1 POP SWAP2 SWAP1 POP JUMP JUMPDEST PUSH0 PUSH1 0x20 PUSH1 0x1F DUP4 ADD DIV SWAP1 POP SWAP2 SWAP1 POP JUMP JUMPDEST PUSH0 DUP3 DUP3 SHL SWAP1 POP SWAP3 SWAP2 POP POP JUMP JUMPDEST PUSH0 PUSH1 0x8 DUP4 MUL PUSH2 0x1FBF PUSH32 0xFFFFFFFFFFFFFFFFFFFFFFFFFFFFFFFFFFFFFFFFFFFFFFFFFFFFFFFFFFFFFFFF DUP3 PUSH2 0x1F84 JUMP JUMPDEST PUSH2 0x1FC9 DUP7 DUP4 PUSH2 0x1F84 JUMP JUMPDEST SWAP6 POP DUP1 NOT DUP5 AND SWAP4 POP DUP1 DUP7 AND DUP5 OR SWAP3 POP POP POP SWAP4 SWAP3 POP POP POP JUMP JUMPDEST PUSH0 DUP2 SWAP1 POP SWAP2 SWAP1 POP JUMP JUMPDEST PUSH0 PUSH2 0x2004 PUSH2 0x1FFF PUSH2 0x1FFA DUP5 PUSH2 0x171A JUMP JUMPDEST PUSH2 0x1FE1 JUMP JUMPDEST PUSH2 0x171A JUMP JUMPDEST SWAP1 POP SWAP2 SWAP1 POP JUMP JUMPDEST PUSH0 DUP2 SWAP1 POP SWAP2 SWAP1 POP JUMP JUMPDEST PUSH2 0x201D DUP4 PUSH2 0x1FEA JUMP JUMPDEST PUSH2 0x2031 PUSH2 0x2029 DUP3 PUSH2 0x200B JUMP JUMPDEST DUP5 DUP5 SLOAD PUSH2 0x1F90 JUMP JUMPDEST DUP3 SSTORE POP POP POP POP JUMP JUMPDEST PUSH0 SWAP1 JUMP JUMPDEST PUSH2 0x2045 PUSH2 0x2039 JUMP JUMPDEST PUSH2 0x2050 DUP2 DUP5 DUP5 PUSH2 0x2014 JUMP JUMPDEST POP POP POP JUMP JUMPDEST JUMPDEST DUP2 DUP2 LT ISZERO PUSH2 0x2073 JUMPI PUSH2 0x2068 PUSH0 DUP3 PUSH2 0x203D JUMP JUMPDEST PUSH1 0x1 DUP2 ADD SWAP1 POP PUSH2 0x2056 JUMP JUMPDEST POP POP JUMP JUMPDEST PUSH1 0x1F DUP3 GT ISZERO PUSH2 0x20B8 JUMPI PUSH2 0x2089 DUP2 PUSH2 0x1F63 JUMP JUMPDEST PUSH2 0x2092 DUP5 PUSH2 0x1F75 JUMP JUMPDEST DUP2 ADD PUSH1 0x20 DUP6 LT ISZERO PUSH2 0x20A1 JUMPI DUP2 SWAP1 POP JUMPDEST PUSH2 0x20B5 PUSH2 0x20AD DUP6 PUSH2 0x1F75 JUMP JUMPDEST DUP4 ADD DUP3 PUSH2 0x2055 JUMP JUMPDEST POP POP JUMPDEST POP POP POP JUMP JUMPDEST PUSH0 DUP3 DUP3 SHR SWAP1 POP SWAP3 SWAP2 POP POP JUMP JUMPDEST PUSH0 PUSH2 0x20D8 PUSH0 NOT DUP5 PUSH1 0x8 MUL PUSH2 0x20BD JUMP JUMPDEST NOT DUP1 DUP4 AND SWAP2 POP POP SWAP3 SWAP2 POP POP JUMP JUMPDEST PUSH0 PUSH2 0x20F0 DUP4 DUP4 PUSH2 0x20C9 JUMP JUMPDEST SWAP2 POP DUP3 PUSH1 0x2 MUL DUP3 OR SWAP1 POP SWAP3 SWAP2 POP POP JUMP JUMPDEST PUSH2 0x2109 DUP3 PUSH2 0x17B3 JUMP JUMPDEST PUSH8 0xFFFFFFFFFFFFFFFF DUP2 GT ISZERO PUSH2 0x2122 JUMPI PUSH2 0x2121 PUSH2 0x1F36 JUMP JUMPDEST JUMPDEST PUSH2 0x212C DUP3 SLOAD PUSH2 0x1DCE JUMP JUMPDEST PUSH2 0x2137 DUP3 DUP3 DUP6 PUSH2 0x2077 JUMP JUMPDEST PUSH0 PUSH1 0x20 SWAP1 POP PUSH1 0x1F DUP4 GT PUSH1 0x1 DUP2 EQ PUSH2 0x2168 JUMPI PUSH0 DUP5 ISZERO PUSH2 0x2156 JUMPI DUP3 DUP8 ADD MLOAD SWAP1 POP JUMPDEST PUSH2 0x2160 DUP6 DUP3 PUSH2 0x20E5 JUMP JUMPDEST DUP7 SSTORE POP PUSH2 0x21C7 JUMP JUMPDEST PUSH1 0x1F NOT DUP5 AND PUSH2 0x2176 DUP7 PUSH2 0x1F63 JUMP JUMPDEST PUSH0 JUMPDEST DUP3 DUP2 LT ISZERO PUSH2 0x219D JUMPI DUP5 DUP10 ADD MLOAD DUP3 SSTORE PUSH1 0x1 DUP3 ADD SWAP2 POP PUSH1 0x20 DUP6 ADD SWAP5 POP PUSH1 0x20 DUP2 ADD SWAP1 POP PUSH2 0x2178 JUMP JUMPDEST DUP7 DUP4 LT ISZERO PUSH2 0x21BA JUMPI DUP5 DUP10 ADD MLOAD PUSH2 0x21B6 PUSH1 0x1F DUP10 AND DUP3 PUSH2 0x20C9 JUMP JUMPDEST DUP4 SSTORE POP JUMPDEST PUSH1 0x1 PUSH1 0x2 DUP9 MUL ADD DUP9 SSTORE POP POP POP JUMPDEST POP POP POP POP POP POP JUMP JUMPDEST DUP3 DUP2 DUP4 CALLDATACOPY PUSH0 DUP4 DUP4 ADD MSTORE POP POP POP JUMP JUMPDEST PUSH0 PUSH2 0x21E8 DUP4 DUP6 PUSH2 0x17BD JUMP JUMPDEST SWAP4 POP PUSH2 0x21F5 DUP4 DUP6 DUP5 PUSH2 0x21CF JUMP JUMPDEST PUSH2 0x21FE DUP4 PUSH2 0x17DB JUMP JUMPDEST DUP5 ADD SWAP1 POP SWAP4 SWAP3 POP POP POP JUMP JUMPDEST PUSH0 PUSH1 0x20 DUP3 ADD SWAP1 POP DUP2 DUP2 SUB PUSH0 DUP4 ADD MSTORE PUSH2 0x2222 DUP2 DUP5 DUP7 PUSH2 0x21DD JUMP JUMPDEST SWAP1 POP SWAP4 SWAP3 POP POP POP JUMP JUMPDEST PUSH0 PUSH1 0x40 DUP3 ADD SWAP1 POP DUP2 DUP2 SUB PUSH0 DUP4 ADD MSTORE PUSH2 0x2244 DUP2 DUP6 DUP8 PUSH2 0x21DD JUMP JUMPDEST SWAP1 POP PUSH2 0x2253 PUSH1 0x20 DUP4 ADD DUP5 PUSH2 0x1823 JUMP JUMPDEST SWAP5 SWAP4 POP POP POP POP JUMP JUMPDEST PUSH32 0x4E487B7100000000000000000000000000000000000000000000000000000000 PUSH0 MSTORE PUSH1 0x32 PUSH1 0x4 MSTORE PUSH1 0x24 PUSH0 REVERT JUMPDEST PUSH32 0x4E487B7100000000000000000000000000000000000000000000000000000000 PUSH0 MSTORE PUSH1 0x11 PUSH1 0x4 MSTORE PUSH1 0x24 PUSH0 REVERT JUMPDEST PUSH0 PUSH2 0x22BF DUP3 PUSH2 0x171A JUMP JUMPDEST SWAP2 POP PUSH2 0x22CA DUP4 PUSH2 0x171A JUMP JUMPDEST SWAP3 POP DUP3 DUP3 SUB SWAP1 POP DUP2 DUP2 GT ISZERO PUSH2 0x22E2 JUMPI PUSH2 0x22E1 PUSH2 0x2288 JUMP JUMPDEST JUMPDEST SWAP3 SWAP2 POP POP JUMP JUMPDEST PUSH32 0x4E487B7100000000000000000000000000000000000000000000000000000000 PUSH0 MSTORE PUSH1 0x31 PUSH1 0x4 MSTORE PUSH1 0x24 PUSH0 REVERT INVALID LOG2 PUSH5 0x6970667358 0x22 SLT KECCAK256 0xD0 SLT POP 0xCA ADD MSTORE8 0xD TIMESTAMP 0x2F PUSH13 0x2E1A226B0D3392DEE4266C772E COINBASE 0xED TSTORE TLOAD DUP4 0xBA POP 0xF8 0x2F PUSH5 0x736F6C6343 STOP ADDMOD BYTE STOP CALLER "
				},
				"gasEstimates": {
					"creation": {
						"codeDepositCost": "1807000",
						"executionCost": "1903",
						"totalCost": "1808903"
					},
					"external": {
						"allowedUsers(address,uint256)": "infinite",
						"follow(address)": "infinite",
						"followersOfUsers(address,uint256)": "infinite",
						"followingOfUsers(address,uint256)": "infinite",
						"getMessages()": "infinite",
						"getTweets()": "infinite",
						"grantAccess(address)": "infinite",
						"sendMessage(string,address)": "infinite",
						"sendMessages(address,uint256)": "infinite",
						"tweet(string)": "infinite",
						"unfollow(address)": "infinite",
						"userAndTweetInfo(address,uint256)": "infinite"
					},
					"internal": {
						"_isAllowed(address,address)": "infinite",
						"_isFollowing(address,address)": "infinite",
						"_removeFollower(address)": "infinite",
						"_removeFollowing(address,address)": "infinite"
					}
				},
				"methodIdentifiers": {
					"allowedUsers(address,uint256)": "bac7129a",
					"follow(address)": "4dbf27cc",
					"followersOfUsers(address,uint256)": "01fc9e67",
					"followingOfUsers(address,uint256)": "3508b1f5",
					"getMessages()": "5ff6cbf3",
					"getTweets()": "fc86741f",
					"grantAccess(address)": "0ae5e739",
					"sendMessage(string,address)": "c48d6d5e",
					"sendMessages(address,uint256)": "9b85cf99",
					"tweet(string)": "fb46d4c5",
					"unfollow(address)": "015a4ead",
					"userAndTweetInfo(address,uint256)": "4af88ddf"
				}
			},
			"storageLayout": {
				"storage": [
					{
						"astId": 21,
						"contract": "contracts/01Twitter.sol:Twitter",
						"label": "userAndTweetInfo",
						"offset": 0,
						"slot": "0",
						"type": "t_mapping(t_address,t_array(t_struct(UserTweet)6_storage)dyn_storage)"
					},
					{
						"astId": 26,
						"contract": "contracts/01Twitter.sol:Twitter",
						"label": "followersOfUsers",
						"offset": 0,
						"slot": "1",
						"type": "t_mapping(t_address,t_array(t_address)dyn_storage)"
					},
					{
						"astId": 31,
						"contract": "contracts/01Twitter.sol:Twitter",
						"label": "followingOfUsers",
						"offset": 0,
						"slot": "2",
						"type": "t_mapping(t_address,t_array(t_address)dyn_storage)"
					},
					{
						"astId": 37,
						"contract": "contracts/01Twitter.sol:Twitter",
						"label": "sendMessages",
						"offset": 0,
						"slot": "3",
						"type": "t_mapping(t_address,t_array(t_struct(Messaging)15_storage)dyn_storage)"
					},
					{
						"astId": 42,
						"contract": "contracts/01Twitter.sol:Twitter",
						"label": "allowedUsers",
						"offset": 0,
						"slot": "4",
						"type": "t_mapping(t_address,t_array(t_address)dyn_storage)"
					}
				],
				"types": {
					"t_address": {
						"encoding": "inplace",
						"label": "address",
						"numberOfBytes": "20"
					},
					"t_array(t_address)dyn_storage": {
						"base": "t_address",
						"encoding": "dynamic_array",
						"label": "address[]",
						"numberOfBytes": "32"
					},
					"t_array(t_struct(Messaging)15_storage)dyn_storage": {
						"base": "t_struct(Messaging)15_storage",
						"encoding": "dynamic_array",
						"label": "struct Twitter.Messaging[]",
						"numberOfBytes": "32"
					},
					"t_array(t_struct(UserTweet)6_storage)dyn_storage": {
						"base": "t_struct(UserTweet)6_storage",
						"encoding": "dynamic_array",
						"label": "struct Twitter.UserTweet[]",
						"numberOfBytes": "32"
					},
					"t_mapping(t_address,t_array(t_address)dyn_storage)": {
						"encoding": "mapping",
						"key": "t_address",
						"label": "mapping(address => address[])",
						"numberOfBytes": "32",
						"value": "t_array(t_address)dyn_storage"
					},
					"t_mapping(t_address,t_array(t_struct(Messaging)15_storage)dyn_storage)": {
						"encoding": "mapping",
						"key": "t_address",
						"label": "mapping(address => struct Twitter.Messaging[])",
						"numberOfBytes": "32",
						"value": "t_array(t_struct(Messaging)15_storage)dyn_storage"
					},
					"t_mapping(t_address,t_array(t_struct(UserTweet)6_storage)dyn_storage)": {
						"encoding": "mapping",
						"key": "t_address",
						"label": "mapping(address => struct Twitter.UserTweet[])",
						"numberOfBytes": "32",
						"value": "t_array(t_struct(UserTweet)6_storage)dyn_storage"
					},
					"t_string_storage": {
						"encoding": "bytes",
						"label": "string",
						"numberOfBytes": "32"
					},
					"t_struct(Messaging)15_storage": {
						"encoding": "inplace",
						"label": "struct Twitter.Messaging",
						"members": [
							{
								"astId": 8,
								"contract": "contracts/01Twitter.sol:Twitter",
								"label": "messageContent",
								"offset": 0,
								"slot": "0",
								"type": "t_string_storage"
							},
							{
								"astId": 10,
								"contract": "contracts/01Twitter.sol:Twitter",
								"label": "sender",
								"offset": 0,
								"slot": "1",
								"type": "t_address"
							},
							{
								"astId": 12,
								"contract": "contracts/01Twitter.sol:Twitter",
								"label": "receiver",
								"offset": 0,
								"slot": "2",
								"type": "t_address"
							},
							{
								"astId": 14,
								"contract": "contracts/01Twitter.sol:Twitter",
								"label": "sendAt",
								"offset": 0,
								"slot": "3",
								"type": "t_uint256"
							}
						],
						"numberOfBytes": "128"
					},
					"t_struct(UserTweet)6_storage": {
						"encoding": "inplace",
						"label": "struct Twitter.UserTweet",
						"members": [
							{
								"astId": 3,
								"contract": "contracts/01Twitter.sol:Twitter",
								"label": "tweetContent",
								"offset": 0,
								"slot": "0",
								"type": "t_string_storage"
							},
							{
								"astId": 5,
								"contract": "contracts/01Twitter.sol:Twitter",
								"label": "timeStamp",
								"offset": 0,
								"slot": "1",
								"type": "t_uint256"
							}
						],
						"numberOfBytes": "64"
					},
					"t_uint256": {
						"encoding": "inplace",
						"label": "uint256",
						"numberOfBytes": "32"
					}
				}
			},
			"userdoc": {
				"kind": "user",
				"methods": {},
				"version": 1
			}
		}
	}
}